{
  "_format": "hh-sol-artifact-1",
  "contractName": "DAOFactory",
  "sourceName": "contracts/DAOFactory.sol",
  "abi": [
    {
      "inputs": [
        {
          "internalType": "contract IDAOGovernorDeployer",
          "name": "_governorDeployer",
          "type": "address"
        },
        {
          "internalType": "contract IDAOExecutorDeployer",
          "name": "_executorDeployer",
          "type": "address"
        },
        {
          "internalType": "contract IDAOTokenDeployer",
          "name": "_tokenDeployer",
          "type": "address"
        },
        {
          "internalType": "contract IDAOProposerDeployer",
          "name": "_proposerDeployer",
          "type": "address"
        }
      ],
      "stateMutability": "nonpayable",
      "type": "constructor"
    },
    {
      "anonymous": false,
      "inputs": [
        {
          "indexed": false,
          "internalType": "address",
          "name": "dao",
          "type": "address"
        },
        {
          "indexed": false,
          "internalType": "address",
          "name": "token",
          "type": "address"
        },
        {
          "indexed": false,
          "internalType": "address",
          "name": "executor",
          "type": "address"
        },
        {
          "indexed": false,
          "internalType": "address",
          "name": "proposer",
          "type": "address"
        }
      ],
      "name": "DAOCreated",
      "type": "event"
    },
    {
      "inputs": [
        {
          "internalType": "string",
          "name": "_daoName",
          "type": "string"
        },
        {
          "internalType": "string",
          "name": "_daoImage",
          "type": "string"
        },
        {
          "internalType": "string",
          "name": "_tokenName",
          "type": "string"
        },
        {
          "internalType": "string",
          "name": "_tokenSymbol",
          "type": "string"
        },
        {
          "internalType": "uint256",
          "name": "_tokenInitialSupply",
          "type": "uint256"
        }
      ],
      "name": "createDAO",
      "outputs": [
        {
          "internalType": "address",
          "name": "",
          "type": "address"
        }
      ],
      "stateMutability": "nonpayable",
      "type": "function"
    },
    {
      "inputs": [
        {
          "internalType": "uint256",
          "name": "",
          "type": "uint256"
        }
      ],
      "name": "daos",
      "outputs": [
        {
          "internalType": "address",
          "name": "",
          "type": "address"
        }
      ],
      "stateMutability": "view",
      "type": "function"
    },
    {
      "inputs": [],
      "name": "executorDeployer",
      "outputs": [
        {
          "internalType": "contract IDAOExecutorDeployer",
          "name": "",
          "type": "address"
        }
      ],
      "stateMutability": "view",
      "type": "function"
    },
    {
      "inputs": [
        {
          "internalType": "uint256",
          "name": "_index",
          "type": "uint256"
        }
      ],
      "name": "getDAO",
      "outputs": [
        {
          "internalType": "address",
          "name": "",
          "type": "address"
        }
      ],
      "stateMutability": "view",
      "type": "function"
    },
    {
      "inputs": [],
      "name": "getDAOCount",
      "outputs": [
        {
          "internalType": "uint256",
          "name": "",
          "type": "uint256"
        }
      ],
      "stateMutability": "view",
      "type": "function"
    },
    {
      "inputs": [],
      "name": "governorDeployer",
      "outputs": [
        {
          "internalType": "contract IDAOGovernorDeployer",
          "name": "",
          "type": "address"
        }
      ],
      "stateMutability": "view",
      "type": "function"
    },
    {
      "inputs": [],
      "name": "proposerDeployer",
      "outputs": [
        {
          "internalType": "contract IDAOProposerDeployer",
          "name": "",
          "type": "address"
        }
      ],
      "stateMutability": "view",
      "type": "function"
    },
    {
      "inputs": [],
      "name": "tokenDeployer",
      "outputs": [
        {
          "internalType": "contract IDAOTokenDeployer",
          "name": "",
          "type": "address"
        }
      ],
      "stateMutability": "view",
      "type": "function"
    }
  ],
  "bytecode": "0x608060405234801561001057600080fd5b50604051610c2f380380610c2f83398101604081905261002f9161009a565b600080546001600160a01b039586166001600160a01b03199182161790915560018054948616948216949094179093556002805492851692841692909217909155600380549190931691161790556100f9565b6001600160a01b038116811461009757600080fd5b50565b600080600080608085870312156100b057600080fd5b84516100bb81610082565b60208601519094506100cc81610082565b60408601519093506100dd81610082565b60608601519092506100ee81610082565b939692955090935050565b610b27806101086000396000f3fe608060405234801561001057600080fd5b50600436106100885760003560e01c80635a29426c1161005b5780635a29426c146100f457806369354f3514610107578063ccbbd2601461011a578063f143d6941461012d57600080fd5b806317d315811461008d5780631e15d094146100bd5780632a2dae0a146100d05780633a479fb8146100e3575b600080fd5b6100a061009b3660046108cb565b610140565b6040516001600160a01b0390911681526020015b60405180910390f35b6001546100a0906001600160a01b031681565b6002546100a0906001600160a01b031681565b6004546040519081526020016100b4565b6100a0610102366004610980565b6107ce565b6003546100a0906001600160a01b031681565b6100a0610128366004610980565b6107fe565b6000546100a0906001600160a01b031681565b600080600360009054906101000a90046001600160a01b03166001600160a01b0316633dfd25926040518163ffffffff1660e01b81526004016020604051808303816000875af1158015610198573d6000803e3d6000fd5b505050506040513d601f19601f820116820180604052508101906101bc91906109b1565b60025460405163272f0b4160e21b81529192506000916001600160a01b0390911690639cbc2d04906101f8908990899033908a90600401610a1b565b6020604051808303816000875af1158015610217573d6000803e3d6000fd5b505050506040513d601f19601f8201168201806040525081019061023b91906109b1565b60015460405163cf43505f60e01b81523060048201529192506000916001600160a01b039091169063cf43505f906024016020604051808303816000875af115801561028b573d6000803e3d6000fd5b505050506040513d601f19601f820116820180604052508101906102af91906109b1565b60008054604051634915d29d60e11b815292935090916001600160a01b039091169063922ba53a906102f5908d908d90889088908b906004908a90610258908301610a5d565b6020604051808303816000875af1158015610314573d6000803e3d6000fd5b505050506040513d601f19601f8201168201806040525081019061033891906109b1565b60405163c42cf53560e01b81526001600160a01b0380831660048301529192509085169063c42cf53590602401600060405180830381600087803b15801561037f57600080fd5b505af1158015610393573d6000803e3d6000fd5b505060405163f2fde38b60e01b81526001600160a01b0385811660048301528616925063f2fde38b9150602401600060405180830381600087803b1580156103da57600080fd5b505af11580156103ee573d6000803e3d6000fd5b50505050816001600160a01b0316632f2ff15d836001600160a01b0316638f61f4f56040518163ffffffff1660e01b8152600401602060405180830381865afa15801561043f573d6000803e3d6000fd5b505050506040513d601f19601f820116820180604052508101906104639190610ac2565b6040516001600160e01b031960e084901b16815260048101919091526001600160a01b0384166024820152604401600060405180830381600087803b1580156104ab57600080fd5b505af11580156104bf573d6000803e3d6000fd5b50505050816001600160a01b0316632f2ff15d836001600160a01b03166307bd02656040518163ffffffff1660e01b8152600401602060405180830381865afa158015610510573d6000803e3d6000fd5b505050506040513d601f19601f820116820180604052508101906105349190610ac2565b6040516001600160e01b031960e084901b16815260048101919091526001600160a01b0384166024820152604401600060405180830381600087803b15801561057c57600080fd5b505af1158015610590573d6000803e3d6000fd5b50505050816001600160a01b03166336568abe836001600160a01b0316638f61f4f56040518163ffffffff1660e01b8152600401602060405180830381865afa1580156105e1573d6000803e3d6000fd5b505050506040513d601f19601f820116820180604052508101906106059190610ac2565b6040516001600160e01b031960e084901b1681526004810191909152306024820152604401600060405180830381600087803b15801561064457600080fd5b505af1158015610658573d6000803e3d6000fd5b50505050816001600160a01b03166336568abe836001600160a01b0316630d3cf6fc6040518163ffffffff1660e01b8152600401602060405180830381865afa1580156106a9573d6000803e3d6000fd5b505050506040513d601f19601f820116820180604052508101906106cd9190610ac2565b6040516001600160e01b031960e084901b1681526004810191909152306024820152604401600060405180830381600087803b15801561070c57600080fd5b505af1158015610720573d6000803e3d6000fd5b5050600480546001810182556000919091527f8a35acfbc15ff81a39ae7d344fd709f28e8600b4aa8c65c6b64bfe7fe36bd19b0180546001600160a01b0319166001600160a01b038581169182179092556040805191825287831660208301528683169082015290871660608201527f4db6ee38117e611315b34948f609eed3356f7c79be1c2e94a2a636a7e9599cf79250608001905060405180910390a150309998505050505050505050565b6000600482815481106107e3576107e3610adb565b6000918252602090912001546001600160a01b031692915050565b6004818154811061080e57600080fd5b6000918252602090912001546001600160a01b0316905081565b634e487b7160e01b600052604160045260246000fd5b600082601f83011261084f57600080fd5b813567ffffffffffffffff8082111561086a5761086a610828565b604051601f8301601f19908116603f0116810190828211818310171561089257610892610828565b816040528381528660208588010111156108ab57600080fd5b836020870160208301376000602085830101528094505050505092915050565b600080600080600060a086880312156108e357600080fd5b853567ffffffffffffffff808211156108fb57600080fd5b61090789838a0161083e565b9650602088013591508082111561091d57600080fd5b61092989838a0161083e565b9550604088013591508082111561093f57600080fd5b61094b89838a0161083e565b9450606088013591508082111561096157600080fd5b5061096e8882890161083e565b95989497509295608001359392505050565b60006020828403121561099257600080fd5b5035919050565b6001600160a01b03811681146109ae57600080fd5b50565b6000602082840312156109c357600080fd5b81516109ce81610999565b9392505050565b6000815180845260005b818110156109fb576020818501810151868301820152016109df565b506000602082860101526020601f19601f83011685010191505092915050565b608081526000610a2e60808301876109d5565b8281036020840152610a4081876109d5565b6001600160a01b0395909516604084015250506060015292915050565b6000610100808352610a718184018c6109d5565b90508281036020840152610a85818b6109d5565b6001600160a01b03998a1660408501529789166060840152505093909516608084015260a083019190915260c082015260e0019190915292915050565b600060208284031215610ad457600080fd5b5051919050565b634e487b7160e01b600052603260045260246000fdfea26469706673582212209826cd42844334d707c9e049226c9d47fc8d3a765706f461dee6f1e0407d856a64736f6c63430008110033",
  "linkReferences": {},
  "deployedLinkReferences": {}
}