{
  "_format": "hh-sol-artifact-1",
  "contractName": "DAOGovernor",
  "sourceName": "contracts/DAOGovernor.sol",
  "abi": [
    {
      "inputs": [
        {
          "internalType": "string",
          "name": "_name",
          "type": "string"
        },
        {
          "internalType": "string",
          "name": "_imageURL",
          "type": "string"
        },
        {
          "internalType": "contract IVotes",
          "name": "_token",
          "type": "address"
        },
        {
          "internalType": "contract TimelockController",
          "name": "_timelock",
          "type": "address"
        },
        {
          "internalType": "uint256",
          "name": "_quorumFraction",
          "type": "uint256"
        },
        {
          "internalType": "uint256",
          "name": "_votingDelay",
          "type": "uint256"
        },
        {
          "internalType": "uint256",
          "name": "_votingPeriod",
          "type": "uint256"
        },
        {
          "internalType": "uint256",
          "name": "_proposalThreshold",
          "type": "uint256"
        }
      ],
      "stateMutability": "nonpayable",
      "type": "constructor"
    },
    {
      "inputs": [],
      "name": "Empty",
      "type": "error"
    },
    {
      "anonymous": false,
      "inputs": [
        {
          "indexed": false,
          "internalType": "uint256",
          "name": "proposalId",
          "type": "uint256"
        }
      ],
      "name": "ProposalCanceled",
      "type": "event"
    },
    {
      "anonymous": false,
      "inputs": [
        {
          "indexed": false,
          "internalType": "uint256",
          "name": "proposalId",
          "type": "uint256"
        },
        {
          "indexed": false,
          "internalType": "address",
          "name": "proposer",
          "type": "address"
        },
        {
          "indexed": false,
          "internalType": "address[]",
          "name": "targets",
          "type": "address[]"
        },
        {
          "indexed": false,
          "internalType": "uint256[]",
          "name": "values",
          "type": "uint256[]"
        },
        {
          "indexed": false,
          "internalType": "string[]",
          "name": "signatures",
          "type": "string[]"
        },
        {
          "indexed": false,
          "internalType": "bytes[]",
          "name": "calldatas",
          "type": "bytes[]"
        },
        {
          "indexed": false,
          "internalType": "uint256",
          "name": "startBlock",
          "type": "uint256"
        },
        {
          "indexed": false,
          "internalType": "uint256",
          "name": "endBlock",
          "type": "uint256"
        },
        {
          "indexed": false,
          "internalType": "string",
          "name": "description",
          "type": "string"
        }
      ],
      "name": "ProposalCreated",
      "type": "event"
    },
    {
      "anonymous": false,
      "inputs": [
        {
          "indexed": false,
          "internalType": "uint256",
          "name": "proposalId",
          "type": "uint256"
        }
      ],
      "name": "ProposalExecuted",
      "type": "event"
    },
    {
      "anonymous": false,
      "inputs": [
        {
          "indexed": false,
          "internalType": "uint256",
          "name": "proposalId",
          "type": "uint256"
        },
        {
          "indexed": false,
          "internalType": "uint256",
          "name": "eta",
          "type": "uint256"
        }
      ],
      "name": "ProposalQueued",
      "type": "event"
    },
    {
      "anonymous": false,
      "inputs": [
        {
          "indexed": false,
          "internalType": "uint256",
          "name": "oldQuorumNumerator",
          "type": "uint256"
        },
        {
          "indexed": false,
          "internalType": "uint256",
          "name": "newQuorumNumerator",
          "type": "uint256"
        }
      ],
      "name": "QuorumNumeratorUpdated",
      "type": "event"
    },
    {
      "anonymous": false,
      "inputs": [
        {
          "indexed": false,
          "internalType": "address",
          "name": "oldTimelock",
          "type": "address"
        },
        {
          "indexed": false,
          "internalType": "address",
          "name": "newTimelock",
          "type": "address"
        }
      ],
      "name": "TimelockChange",
      "type": "event"
    },
    {
      "anonymous": false,
      "inputs": [
        {
          "indexed": true,
          "internalType": "address",
          "name": "voter",
          "type": "address"
        },
        {
          "indexed": false,
          "internalType": "uint256",
          "name": "proposalId",
          "type": "uint256"
        },
        {
          "indexed": false,
          "internalType": "uint8",
          "name": "support",
          "type": "uint8"
        },
        {
          "indexed": false,
          "internalType": "uint256",
          "name": "weight",
          "type": "uint256"
        },
        {
          "indexed": false,
          "internalType": "string",
          "name": "reason",
          "type": "string"
        }
      ],
      "name": "VoteCast",
      "type": "event"
    },
    {
      "anonymous": false,
      "inputs": [
        {
          "indexed": true,
          "internalType": "address",
          "name": "voter",
          "type": "address"
        },
        {
          "indexed": false,
          "internalType": "uint256",
          "name": "proposalId",
          "type": "uint256"
        },
        {
          "indexed": false,
          "internalType": "uint8",
          "name": "support",
          "type": "uint8"
        },
        {
          "indexed": false,
          "internalType": "uint256",
          "name": "weight",
          "type": "uint256"
        },
        {
          "indexed": false,
          "internalType": "string",
          "name": "reason",
          "type": "string"
        },
        {
          "indexed": false,
          "internalType": "bytes",
          "name": "params",
          "type": "bytes"
        }
      ],
      "name": "VoteCastWithParams",
      "type": "event"
    },
    {
      "inputs": [],
      "name": "BALLOT_TYPEHASH",
      "outputs": [
        {
          "internalType": "bytes32",
          "name": "",
          "type": "bytes32"
        }
      ],
      "stateMutability": "view",
      "type": "function"
    },
    {
      "inputs": [],
      "name": "COUNTING_MODE",
      "outputs": [
        {
          "internalType": "string",
          "name": "",
          "type": "string"
        }
      ],
      "stateMutability": "pure",
      "type": "function"
    },
    {
      "inputs": [],
      "name": "EXTENDED_BALLOT_TYPEHASH",
      "outputs": [
        {
          "internalType": "bytes32",
          "name": "",
          "type": "bytes32"
        }
      ],
      "stateMutability": "view",
      "type": "function"
    },
    {
      "inputs": [
        {
          "internalType": "uint256",
          "name": "proposalId",
          "type": "uint256"
        }
      ],
      "name": "cancel",
      "outputs": [],
      "stateMutability": "nonpayable",
      "type": "function"
    },
    {
      "inputs": [
        {
          "internalType": "uint256",
          "name": "proposalId",
          "type": "uint256"
        },
        {
          "internalType": "uint8",
          "name": "support",
          "type": "uint8"
        }
      ],
      "name": "castVote",
      "outputs": [
        {
          "internalType": "uint256",
          "name": "",
          "type": "uint256"
        }
      ],
      "stateMutability": "nonpayable",
      "type": "function"
    },
    {
      "inputs": [
        {
          "internalType": "uint256",
          "name": "proposalId",
          "type": "uint256"
        },
        {
          "internalType": "uint8",
          "name": "support",
          "type": "uint8"
        },
        {
          "internalType": "uint8",
          "name": "v",
          "type": "uint8"
        },
        {
          "internalType": "bytes32",
          "name": "r",
          "type": "bytes32"
        },
        {
          "internalType": "bytes32",
          "name": "s",
          "type": "bytes32"
        }
      ],
      "name": "castVoteBySig",
      "outputs": [
        {
          "internalType": "uint256",
          "name": "",
          "type": "uint256"
        }
      ],
      "stateMutability": "nonpayable",
      "type": "function"
    },
    {
      "inputs": [
        {
          "internalType": "uint256",
          "name": "proposalId",
          "type": "uint256"
        },
        {
          "internalType": "uint8",
          "name": "support",
          "type": "uint8"
        },
        {
          "internalType": "string",
          "name": "reason",
          "type": "string"
        }
      ],
      "name": "castVoteWithReason",
      "outputs": [
        {
          "internalType": "uint256",
          "name": "",
          "type": "uint256"
        }
      ],
      "stateMutability": "nonpayable",
      "type": "function"
    },
    {
      "inputs": [
        {
          "internalType": "uint256",
          "name": "proposalId",
          "type": "uint256"
        },
        {
          "internalType": "uint8",
          "name": "support",
          "type": "uint8"
        },
        {
          "internalType": "string",
          "name": "reason",
          "type": "string"
        },
        {
          "internalType": "bytes",
          "name": "params",
          "type": "bytes"
        }
      ],
      "name": "castVoteWithReasonAndParams",
      "outputs": [
        {
          "internalType": "uint256",
          "name": "",
          "type": "uint256"
        }
      ],
      "stateMutability": "nonpayable",
      "type": "function"
    },
    {
      "inputs": [
        {
          "internalType": "uint256",
          "name": "proposalId",
          "type": "uint256"
        },
        {
          "internalType": "uint8",
          "name": "support",
          "type": "uint8"
        },
        {
          "internalType": "string",
          "name": "reason",
          "type": "string"
        },
        {
          "internalType": "bytes",
          "name": "params",
          "type": "bytes"
        },
        {
          "internalType": "uint8",
          "name": "v",
          "type": "uint8"
        },
        {
          "internalType": "bytes32",
          "name": "r",
          "type": "bytes32"
        },
        {
          "internalType": "bytes32",
          "name": "s",
          "type": "bytes32"
        }
      ],
      "name": "castVoteWithReasonAndParamsBySig",
      "outputs": [
        {
          "internalType": "uint256",
          "name": "",
          "type": "uint256"
        }
      ],
      "stateMutability": "nonpayable",
      "type": "function"
    },
    {
      "inputs": [
        {
          "internalType": "address[]",
          "name": "targets",
          "type": "address[]"
        },
        {
          "internalType": "uint256[]",
          "name": "values",
          "type": "uint256[]"
        },
        {
          "internalType": "bytes[]",
          "name": "calldatas",
          "type": "bytes[]"
        },
        {
          "internalType": "bytes32",
          "name": "descriptionHash",
          "type": "bytes32"
        }
      ],
      "name": "execute",
      "outputs": [
        {
          "internalType": "uint256",
          "name": "",
          "type": "uint256"
        }
      ],
      "stateMutability": "payable",
      "type": "function"
    },
    {
      "inputs": [
        {
          "internalType": "uint256",
          "name": "proposalId",
          "type": "uint256"
        }
      ],
      "name": "execute",
      "outputs": [],
      "stateMutability": "payable",
      "type": "function"
    },
    {
      "inputs": [
        {
          "internalType": "uint256",
          "name": "proposalId",
          "type": "uint256"
        }
      ],
      "name": "getActions",
      "outputs": [
        {
          "internalType": "address[]",
          "name": "targets",
          "type": "address[]"
        },
        {
          "internalType": "uint256[]",
          "name": "values",
          "type": "uint256[]"
        },
        {
          "internalType": "string[]",
          "name": "signatures",
          "type": "string[]"
        },
        {
          "internalType": "bytes[]",
          "name": "calldatas",
          "type": "bytes[]"
        }
      ],
      "stateMutability": "view",
      "type": "function"
    },
    {
      "inputs": [
        {
          "internalType": "uint256",
          "name": "id",
          "type": "uint256"
        }
      ],
      "name": "getProposalContent",
      "outputs": [
        {
          "internalType": "address[]",
          "name": "",
          "type": "address[]"
        },
        {
          "internalType": "uint256[]",
          "name": "",
          "type": "uint256[]"
        },
        {
          "internalType": "bytes[]",
          "name": "",
          "type": "bytes[]"
        },
        {
          "internalType": "string",
          "name": "",
          "type": "string"
        }
      ],
      "stateMutability": "view",
      "type": "function"
    },
    {
      "inputs": [
        {
          "internalType": "uint256",
          "name": "proposalId",
          "type": "uint256"
        },
        {
          "internalType": "address",
          "name": "voter",
          "type": "address"
        }
      ],
      "name": "getReceipt",
      "outputs": [
        {
          "components": [
            {
              "internalType": "bool",
              "name": "hasVoted",
              "type": "bool"
            },
            {
              "internalType": "uint8",
              "name": "support",
              "type": "uint8"
            },
            {
              "internalType": "uint96",
              "name": "votes",
              "type": "uint96"
            }
          ],
          "internalType": "struct IGovernorCompatibilityBravo.Receipt",
          "name": "",
          "type": "tuple"
        }
      ],
      "stateMutability": "view",
      "type": "function"
    },
    {
      "inputs": [
        {
          "internalType": "address",
          "name": "account",
          "type": "address"
        },
        {
          "internalType": "uint256",
          "name": "blockNumber",
          "type": "uint256"
        }
      ],
      "name": "getVotes",
      "outputs": [
        {
          "internalType": "uint256",
          "name": "",
          "type": "uint256"
        }
      ],
      "stateMutability": "view",
      "type": "function"
    },
    {
      "inputs": [
        {
          "internalType": "address",
          "name": "account",
          "type": "address"
        },
        {
          "internalType": "uint256",
          "name": "blockNumber",
          "type": "uint256"
        },
        {
          "internalType": "bytes",
          "name": "params",
          "type": "bytes"
        }
      ],
      "name": "getVotesWithParams",
      "outputs": [
        {
          "internalType": "uint256",
          "name": "",
          "type": "uint256"
        }
      ],
      "stateMutability": "view",
      "type": "function"
    },
    {
      "inputs": [
        {
          "internalType": "uint256",
          "name": "proposalId",
          "type": "uint256"
        },
        {
          "internalType": "address",
          "name": "account",
          "type": "address"
        }
      ],
      "name": "hasVoted",
      "outputs": [
        {
          "internalType": "bool",
          "name": "",
          "type": "bool"
        }
      ],
      "stateMutability": "view",
      "type": "function"
    },
    {
      "inputs": [
        {
          "internalType": "address[]",
          "name": "targets",
          "type": "address[]"
        },
        {
          "internalType": "uint256[]",
          "name": "values",
          "type": "uint256[]"
        },
        {
          "internalType": "bytes[]",
          "name": "calldatas",
          "type": "bytes[]"
        },
        {
          "internalType": "bytes32",
          "name": "descriptionHash",
          "type": "bytes32"
        }
      ],
      "name": "hashProposal",
      "outputs": [
        {
          "internalType": "uint256",
          "name": "",
          "type": "uint256"
        }
      ],
      "stateMutability": "pure",
      "type": "function"
    },
    {
      "inputs": [],
      "name": "imageURL",
      "outputs": [
        {
          "internalType": "string",
          "name": "",
          "type": "string"
        }
      ],
      "stateMutability": "view",
      "type": "function"
    },
    {
      "inputs": [],
      "name": "name",
      "outputs": [
        {
          "internalType": "string",
          "name": "",
          "type": "string"
        }
      ],
      "stateMutability": "view",
      "type": "function"
    },
    {
      "inputs": [
        {
          "internalType": "address",
          "name": "",
          "type": "address"
        },
        {
          "internalType": "address",
          "name": "",
          "type": "address"
        },
        {
          "internalType": "uint256[]",
          "name": "",
          "type": "uint256[]"
        },
        {
          "internalType": "uint256[]",
          "name": "",
          "type": "uint256[]"
        },
        {
          "internalType": "bytes",
          "name": "",
          "type": "bytes"
        }
      ],
      "name": "onERC1155BatchReceived",
      "outputs": [
        {
          "internalType": "bytes4",
          "name": "",
          "type": "bytes4"
        }
      ],
      "stateMutability": "nonpayable",
      "type": "function"
    },
    {
      "inputs": [
        {
          "internalType": "address",
          "name": "",
          "type": "address"
        },
        {
          "internalType": "address",
          "name": "",
          "type": "address"
        },
        {
          "internalType": "uint256",
          "name": "",
          "type": "uint256"
        },
        {
          "internalType": "uint256",
          "name": "",
          "type": "uint256"
        },
        {
          "internalType": "bytes",
          "name": "",
          "type": "bytes"
        }
      ],
      "name": "onERC1155Received",
      "outputs": [
        {
          "internalType": "bytes4",
          "name": "",
          "type": "bytes4"
        }
      ],
      "stateMutability": "nonpayable",
      "type": "function"
    },
    {
      "inputs": [
        {
          "internalType": "address",
          "name": "",
          "type": "address"
        },
        {
          "internalType": "address",
          "name": "",
          "type": "address"
        },
        {
          "internalType": "uint256",
          "name": "",
          "type": "uint256"
        },
        {
          "internalType": "bytes",
          "name": "",
          "type": "bytes"
        }
      ],
      "name": "onERC721Received",
      "outputs": [
        {
          "internalType": "bytes4",
          "name": "",
          "type": "bytes4"
        }
      ],
      "stateMutability": "nonpayable",
      "type": "function"
    },
    {
      "inputs": [
        {
          "internalType": "uint256",
          "name": "",
          "type": "uint256"
        }
      ],
      "name": "proposalContents",
      "outputs": [
        {
          "internalType": "string",
          "name": "description",
          "type": "string"
        }
      ],
      "stateMutability": "view",
      "type": "function"
    },
    {
      "inputs": [],
      "name": "proposalCount",
      "outputs": [
        {
          "internalType": "uint256",
          "name": "",
          "type": "uint256"
        }
      ],
      "stateMutability": "view",
      "type": "function"
    },
    {
      "inputs": [
        {
          "internalType": "uint256",
          "name": "proposalId",
          "type": "uint256"
        }
      ],
      "name": "proposalDeadline",
      "outputs": [
        {
          "internalType": "uint256",
          "name": "",
          "type": "uint256"
        }
      ],
      "stateMutability": "view",
      "type": "function"
    },
    {
      "inputs": [
        {
          "internalType": "uint256",
          "name": "proposalId",
          "type": "uint256"
        }
      ],
      "name": "proposalEta",
      "outputs": [
        {
          "internalType": "uint256",
          "name": "",
          "type": "uint256"
        }
      ],
      "stateMutability": "view",
      "type": "function"
    },
    {
      "inputs": [
        {
          "internalType": "uint256",
          "name": "",
          "type": "uint256"
        }
      ],
      "name": "proposalIDs",
      "outputs": [
        {
          "internalType": "uint256",
          "name": "",
          "type": "uint256"
        }
      ],
      "stateMutability": "view",
      "type": "function"
    },
    {
      "inputs": [
        {
          "internalType": "uint256",
          "name": "proposalId",
          "type": "uint256"
        }
      ],
      "name": "proposalSnapshot",
      "outputs": [
        {
          "internalType": "uint256",
          "name": "",
          "type": "uint256"
        }
      ],
      "stateMutability": "view",
      "type": "function"
    },
    {
      "inputs": [],
      "name": "proposalThreshold",
      "outputs": [
        {
          "internalType": "uint256",
          "name": "",
          "type": "uint256"
        }
      ],
      "stateMutability": "view",
      "type": "function"
    },
    {
      "inputs": [
        {
          "internalType": "uint256",
          "name": "proposalId",
          "type": "uint256"
        }
      ],
      "name": "proposals",
      "outputs": [
        {
          "internalType": "uint256",
          "name": "id",
          "type": "uint256"
        },
        {
          "internalType": "address",
          "name": "proposer",
          "type": "address"
        },
        {
          "internalType": "uint256",
          "name": "eta",
          "type": "uint256"
        },
        {
          "internalType": "uint256",
          "name": "startBlock",
          "type": "uint256"
        },
        {
          "internalType": "uint256",
          "name": "endBlock",
          "type": "uint256"
        },
        {
          "internalType": "uint256",
          "name": "forVotes",
          "type": "uint256"
        },
        {
          "internalType": "uint256",
          "name": "againstVotes",
          "type": "uint256"
        },
        {
          "internalType": "uint256",
          "name": "abstainVotes",
          "type": "uint256"
        },
        {
          "internalType": "bool",
          "name": "canceled",
          "type": "bool"
        },
        {
          "internalType": "bool",
          "name": "executed",
          "type": "bool"
        }
      ],
      "stateMutability": "view",
      "type": "function"
    },
    {
      "inputs": [
        {
          "internalType": "address[]",
          "name": "targets",
          "type": "address[]"
        },
        {
          "internalType": "uint256[]",
          "name": "values",
          "type": "uint256[]"
        },
        {
          "internalType": "bytes[]",
          "name": "calldatas",
          "type": "bytes[]"
        },
        {
          "internalType": "string",
          "name": "description",
          "type": "string"
        }
      ],
      "name": "propose",
      "outputs": [
        {
          "internalType": "uint256",
          "name": "",
          "type": "uint256"
        }
      ],
      "stateMutability": "nonpayable",
      "type": "function"
    },
    {
      "inputs": [
        {
          "internalType": "address[]",
          "name": "targets",
          "type": "address[]"
        },
        {
          "internalType": "uint256[]",
          "name": "values",
          "type": "uint256[]"
        },
        {
          "internalType": "string[]",
          "name": "signatures",
          "type": "string[]"
        },
        {
          "internalType": "bytes[]",
          "name": "calldatas",
          "type": "bytes[]"
        },
        {
          "internalType": "string",
          "name": "description",
          "type": "string"
        }
      ],
      "name": "propose",
      "outputs": [
        {
          "internalType": "uint256",
          "name": "",
          "type": "uint256"
        }
      ],
      "stateMutability": "nonpayable",
      "type": "function"
    },
    {
      "inputs": [
        {
          "internalType": "address[]",
          "name": "targets",
          "type": "address[]"
        },
        {
          "internalType": "uint256[]",
          "name": "values",
          "type": "uint256[]"
        },
        {
          "internalType": "bytes[]",
          "name": "calldatas",
          "type": "bytes[]"
        },
        {
          "internalType": "bytes32",
          "name": "descriptionHash",
          "type": "bytes32"
        }
      ],
      "name": "queue",
      "outputs": [
        {
          "internalType": "uint256",
          "name": "",
          "type": "uint256"
        }
      ],
      "stateMutability": "nonpayable",
      "type": "function"
    },
    {
      "inputs": [
        {
          "internalType": "uint256",
          "name": "proposalId",
          "type": "uint256"
        }
      ],
      "name": "queue",
      "outputs": [],
      "stateMutability": "nonpayable",
      "type": "function"
    },
    {
      "inputs": [
        {
          "internalType": "uint256",
          "name": "blockNumber",
          "type": "uint256"
        }
      ],
      "name": "quorum",
      "outputs": [
        {
          "internalType": "uint256",
          "name": "",
          "type": "uint256"
        }
      ],
      "stateMutability": "view",
      "type": "function"
    },
    {
      "inputs": [],
      "name": "quorumDenominator",
      "outputs": [
        {
          "internalType": "uint256",
          "name": "",
          "type": "uint256"
        }
      ],
      "stateMutability": "view",
      "type": "function"
    },
    {
      "inputs": [
        {
          "internalType": "uint256",
          "name": "blockNumber",
          "type": "uint256"
        }
      ],
      "name": "quorumNumerator",
      "outputs": [
        {
          "internalType": "uint256",
          "name": "",
          "type": "uint256"
        }
      ],
      "stateMutability": "view",
      "type": "function"
    },
    {
      "inputs": [],
      "name": "quorumNumerator",
      "outputs": [
        {
          "internalType": "uint256",
          "name": "",
          "type": "uint256"
        }
      ],
      "stateMutability": "view",
      "type": "function"
    },
    {
      "inputs": [],
      "name": "quorumVotes",
      "outputs": [
        {
          "internalType": "uint256",
          "name": "",
          "type": "uint256"
        }
      ],
      "stateMutability": "view",
      "type": "function"
    },
    {
      "inputs": [
        {
          "internalType": "address",
          "name": "target",
          "type": "address"
        },
        {
          "internalType": "uint256",
          "name": "value",
          "type": "uint256"
        },
        {
          "internalType": "bytes",
          "name": "data",
          "type": "bytes"
        }
      ],
      "name": "relay",
      "outputs": [],
      "stateMutability": "payable",
      "type": "function"
    },
    {
      "inputs": [
        {
          "internalType": "uint256",
          "name": "proposalId",
          "type": "uint256"
        }
      ],
      "name": "state",
      "outputs": [
        {
          "internalType": "enum IGovernor.ProposalState",
          "name": "",
          "type": "uint8"
        }
      ],
      "stateMutability": "view",
      "type": "function"
    },
    {
      "inputs": [
        {
          "internalType": "bytes4",
          "name": "interfaceId",
          "type": "bytes4"
        }
      ],
      "name": "supportsInterface",
      "outputs": [
        {
          "internalType": "bool",
          "name": "",
          "type": "bool"
        }
      ],
      "stateMutability": "view",
      "type": "function"
    },
    {
      "inputs": [],
      "name": "timelock",
      "outputs": [
        {
          "internalType": "address",
          "name": "",
          "type": "address"
        }
      ],
      "stateMutability": "view",
      "type": "function"
    },
    {
      "inputs": [],
      "name": "token",
      "outputs": [
        {
          "internalType": "contract IVotes",
          "name": "",
          "type": "address"
        }
      ],
      "stateMutability": "view",
      "type": "function"
    },
    {
      "inputs": [
        {
          "internalType": "uint256",
          "name": "newQuorumNumerator",
          "type": "uint256"
        }
      ],
      "name": "updateQuorumNumerator",
      "outputs": [],
      "stateMutability": "nonpayable",
      "type": "function"
    },
    {
      "inputs": [
        {
          "internalType": "contract TimelockController",
          "name": "newTimelock",
          "type": "address"
        }
      ],
      "name": "updateTimelock",
      "outputs": [],
      "stateMutability": "nonpayable",
      "type": "function"
    },
    {
      "inputs": [],
      "name": "version",
      "outputs": [
        {
          "internalType": "string",
          "name": "",
          "type": "string"
        }
      ],
      "stateMutability": "view",
      "type": "function"
    },
    {
      "inputs": [],
      "name": "votingDelay",
      "outputs": [
        {
          "internalType": "uint256",
          "name": "",
          "type": "uint256"
        }
      ],
      "stateMutability": "view",
      "type": "function"
    },
    {
      "inputs": [],
      "name": "votingPeriod",
      "outputs": [
        {
          "internalType": "uint256",
          "name": "",
          "type": "uint256"
        }
      ],
      "stateMutability": "view",
      "type": "function"
    },
    {
      "stateMutability": "payable",
      "type": "receive"
    }
  ],
  "bytecode": "0x6101606040526000600d553480156200001757600080fd5b5060405162005cef38038062005cef8339810160408190526200003a9162000773565b8484878a806200005e6040805180820190915260018152603160f81b602082015290565b815160209283012081519183019190912060e08290526101008190524660a0818152604080517f8b73c3c69bb8fe3d512ecc4cf759cc79239f7b179b0ffacaa9a75d522b39400f818801819052818301969096526060810194909452608080850193909352308483018190528151808603909301835260c094850190915281519190950120905291909152610120526000620000fb8282620008bd565b50506001600160a01b03166101405262000115816200014e565b506200012181620002ca565b506009839055600a829055600b819055600c6200013f8882620008bd565b505050505050505050620009b1565b6064811115620001d75760405162461bcd60e51b815260206004820152604360248201527f476f7665726e6f72566f74657351756f72756d4672616374696f6e3a2071756f60448201527f72756d4e756d657261746f72206f7665722071756f72756d44656e6f6d696e616064820152623a37b960e91b608482015260a4015b60405180910390fd5b6000620001e362000333565b90508015801590620001f55750600654155b15620002705760066000016040518060400160405280600063ffffffff1681526020016200022e846200036b60201b620025821760201c565b6001600160e01b0390811690915282546001810184556000938452602093849020835194909301519091166401000000000263ffffffff909316929092179101555b6200028b826006620003da60201b620025ef1790919060201c565b505060408051828152602081018490527f0553476bf02ef2726e8ce5ced78d63e26e602e4a2257b1f559418e24b4633997910160405180910390a15050565b600754604080516001600160a01b03928316815291831660208301527f08f74ea46ef7894f65eabfb5e6e695de773a000b47c529ab559178069b226401910160405180910390a1600780546001600160a01b0319166001600160a01b0392909216919091179055565b6006546000901562000364576200035660066200042d60201b620026251760201c565b6001600160e01b0316905090565b5060055490565b60006001600160e01b03821115620003d65760405162461bcd60e51b815260206004820152602760248201527f53616665436173743a2076616c756520646f65736e27742066697420696e20326044820152663234206269747360c81b6064820152608401620001ce565b5090565b6000806200041784600001620003fb436200047b60201b620026631760201c565b62000411866200036b60201b620025821760201c565b620004e2565b6001600160e01b03918216969116945092505050565b80546000908015620004715762000459836200044b60018462000989565b600091825260209091200190565b5464010000000090046001600160e01b031662000474565b60005b9392505050565b600063ffffffff821115620003d65760405162461bcd60e51b815260206004820152602660248201527f53616665436173743a2076616c756520646f65736e27742066697420696e203360448201526532206269747360d01b6064820152608401620001ce565b8254600090819080156200063757600062000504876200044b60018562000989565b60408051808201909152905463ffffffff8082168084526401000000009092046001600160e01b031660208401529192509087161015620005885760405162461bcd60e51b815260206004820152601760248201527f436865636b706f696e743a20696e76616c6964206b65790000000000000000006044820152606401620001ce565b805163ffffffff808816911603620005d65784620005ad886200044b60018662000989565b80546001600160e01b03929092166401000000000263ffffffff90921691909117905562000626565b6040805180820190915263ffffffff80881682526001600160e01b0380881660208085019182528b54600181018d5560008d81529190912094519151909216640100000000029216919091179101555b6020015192508391506200068d9050565b50506040805180820190915263ffffffff80851682526001600160e01b0380851660208085019182528854600181018a5560008a8152918220955192519093166401000000000291909316179201919091559050815b935093915050565b634e487b7160e01b600052604160045260246000fd5b600082601f830112620006bd57600080fd5b81516001600160401b0380821115620006da57620006da62000695565b604051601f8301601f19908116603f0116810190828211818310171562000705576200070562000695565b816040528381526020925086838588010111156200072257600080fd5b600091505b8382101562000746578582018301518183018401529082019062000727565b600093810190920192909252949350505050565b6001600160a01b03811681146200077057600080fd5b50565b600080600080600080600080610100898b0312156200079157600080fd5b88516001600160401b0380821115620007a957600080fd5b620007b78c838d01620006ab565b995060208b0151915080821115620007ce57600080fd5b50620007dd8b828c01620006ab565b9750506040890151620007f0816200075a565b60608a015190965062000803816200075a565b60808a015160a08b015160c08c015160e0909c01519a9d999c50979a91999098919650945092505050565b600181811c908216806200084357607f821691505b6020821081036200086457634e487b7160e01b600052602260045260246000fd5b50919050565b601f821115620008b857600081815260208120601f850160051c81016020861015620008935750805b601f850160051c820191505b81811015620008b4578281556001016200089f565b5050505b505050565b81516001600160401b03811115620008d957620008d962000695565b620008f181620008ea84546200082e565b846200086a565b602080601f831160018114620009295760008415620009105750858301515b600019600386901b1c1916600185901b178555620008b4565b600085815260208120601f198616915b828110156200095a5788860151825594840194600190910190840162000939565b5085821015620009795787850151600019600388901b60f8161c191681555b5050505050600190811b01905550565b81810381811115620009ab57634e487b7160e01b600052601160045260246000fd5b92915050565b60805160a05160c05160e0516101005161012051610140516152d562000a1a60003960008181610ac00152818161228d0152612f6a015260006133ae015260006133fd015260006133d8015260006133310152600061335b0152600061338501526152d56000f3fe6080604052600436106102cd5760003560e01c80637d5e81e211610175578063c59057e4116100dc578063deaaa7cc11610095578063f23a6e611161006f578063f23a6e6114610a62578063f8ce560a14610a8e578063fc0c546a14610aae578063fe0d94c114610ae257600080fd5b8063deaaa7cc14610944578063e23a9a5214610978578063eb9019d414610a4257600080fd5b8063c59057e414610856578063d33219b414610876578063da35c664146108a8578063da95691a146108be578063dd4e2ba5146108de578063ddf0b0091461092457600080fd5b8063ab58fb8e1161012e578063ab58fb8e146107ad578063b58131b0146107cd578063b90497e0146107e2578063bc197c81146107f7578063c01f9e3714610823578063c28bc2fa1461084357600080fd5b80637d5e81e2146106f757806397c3d334146107175780639a802a6d1461072b578063a007b1971461074b578063a7713a7014610778578063a890c9101461078d57600080fd5b80632fe3e2611161023457806343859632116101ed57806356781388116101c757806356781388146106775780635f398a141461069757806360c4247f146106b75780637b3c71d3146106d757600080fd5b806343859632146105e35780634ed270341461062d57806354fd4d501461064d57600080fd5b80632fe3e261146104fd578063328dd982146105315780633932abb1146105615780633bccf4fd146105765780633e4f49e61461059657806340e58ee5146105c357600080fd5b8063150b7a0211610286578063150b7a0214610421578063160cbed7146104655780631de20bcf1461048557806324bc1a64146104b55780632656227d146104ca5780632d63f693146104dd57600080fd5b8063013cf08b146102f557806301ffc9a71461037057806302a251a3146103a057806303420181146103bf57806306f3f9e6146103df57806306fdde03146103ff57600080fd5b366102f057306102db610af5565b6001600160a01b0316146102ee57600080fd5b005b600080fd5b34801561030157600080fd5b50610315610310366004614198565b610b0e565b604080519a8b526001600160a01b0390991660208b0152978901969096526060880194909452608087019290925260a086015260c085015260e084015215156101008301521515610120820152610140015b60405180910390f35b34801561037c57600080fd5b5061039061038b3660046141b1565b610bb7565b6040519015158152602001610367565b3480156103ac57600080fd5b50600a545b604051908152602001610367565b3480156103cb57600080fd5b506103b16103da3660046142e7565b610bc8565b3480156103eb57600080fd5b506102ee6103fa366004614198565b610cc0565b34801561040b57600080fd5b50610414610d53565b60405161036791906143dd565b34801561042d57600080fd5b5061044c61043c366004614405565b630a85bd0160e11b949350505050565b6040516001600160e01b03199091168152602001610367565b34801561047157600080fd5b506103b16104803660046145e1565b610de5565b34801561049157600080fd5b506104a56104a0366004614198565b610fe6565b6040516103679493929190614739565b3480156104c157600080fd5b506103b1611227565b6103b16104d83660046145e1565b611237565b3480156104e957600080fd5b506103b16104f8366004614198565b611324565b34801561050957600080fd5b506103b17fb3b3f3b703cd84ce352197dcff232b1b5d3cfb2025ce47cf04742d0651f1af8881565b34801561053d57600080fd5b5061055161054c366004614198565b61135b565b6040516103679493929190614786565b34801561056d57600080fd5b506009546103b1565b34801561058257600080fd5b506103b16105913660046147d3565b6115ec565b3480156105a257600080fd5b506105b66105b1366004614198565b611662565b6040516103679190614837565b3480156105cf57600080fd5b506102ee6105de366004614198565b61166d565b3480156105ef57600080fd5b506103906105fe36600461485f565b60008281526004602090815260408083206001600160a01b038516845260080190915290205460ff1692915050565b34801561063957600080fd5b50610414610648366004614198565b611980565b34801561065957600080fd5b506040805180820190915260018152603160f81b6020820152610414565b34801561068357600080fd5b506103b161069236600461488f565b611a20565b3480156106a357600080fd5b506103b16106b23660046148bb565b611a49565b3480156106c357600080fd5b506103b16106d2366004614198565b611a93565b3480156106e357600080fd5b506103b16106f236600461493e565b611b2a565b34801561070357600080fd5b506103b1610712366004614997565b611b7c565b34801561072357600080fd5b5060646103b1565b34801561073757600080fd5b506103b1610746366004614a37565b611c4e565b34801561075757600080fd5b506103b1610766366004614198565b600e6020526000908152604090205481565b34801561078457600080fd5b506103b1611c65565b34801561079957600080fd5b506102ee6107a8366004614a8f565b611c8f565b3480156107b957600080fd5b506103b16107c8366004614198565b611d16565b3480156107d957600080fd5b50600b546103b1565b3480156107ee57600080fd5b50610414611db0565b34801561080357600080fd5b5061044c610812366004614aac565b63bc197c8160e01b95945050505050565b34801561082f57600080fd5b506103b161083e366004614198565b611e3e565b6102ee610851366004614b3f565b611e6d565b34801561086257600080fd5b506103b16108713660046145e1565b611f7c565b34801561088257600080fd5b506007546001600160a01b03165b6040516001600160a01b039091168152602001610367565b3480156108b457600080fd5b506103b1600d5481565b3480156108ca57600080fd5b506103b16108d9366004614c01565b611fb6565b3480156108ea57600080fd5b5060408051808201909152601a81527f737570706f72743d627261766f2671756f72756d3d627261766f0000000000006020820152610414565b34801561093057600080fd5b506102ee61093f366004614198565b611fdb565b34801561095057600080fd5b506103b17f150214d74d59b7d1e90c73fc22ef3d991dd0a76b046543d4d80ab92d2a50328f81565b34801561098457600080fd5b50610a1261099336600461485f565b60408051606081018252600080825260208201819052918101919091525060009182526004602090815260408084206001600160a01b0393909316845260089092018152918190208151606081018352905460ff8082161515835261010082041693820193909352620100009092046001600160601b03169082015290565b6040805182511515815260208084015160ff1690820152918101516001600160601b031690820152606001610367565b348015610a4e57600080fd5b506103b1610a5d366004614ca2565b612249565b348015610a6e57600080fd5b5061044c610a7d366004614cce565b63f23a6e6160e01b95945050505050565b348015610a9a57600080fd5b506103b1610aa9366004614198565b61226a565b348015610aba57600080fd5b506108907f000000000000000000000000000000000000000000000000000000000000000081565b6102ee610af0366004614198565b612314565b6000610b096007546001600160a01b031690565b905090565b8060008080808080808080610b228a611d16565b9750610b2d8b611324565b9650610b388b611e3e565b60008c815260046020526040812080546005820154600683015460078401546001600160a01b039093169e50949a509850929650919450610b788d611662565b90506002816007811115610b8e57610b8e614821565b1493506007816007811115610ba557610ba5614821565b14925050509193959799509193959799565b6000610bc2826126c8565b92915050565b600080610c6c610c647fb3b3f3b703cd84ce352197dcff232b1b5d3cfb2025ce47cf04742d0651f1af888c8c8c8c604051610c04929190614d36565b60405180910390208b80519060200120604051602001610c49959493929190948552602085019390935260ff9190911660408401526060830152608082015260a00190565b604051602081830303815290604052805190602001206126ed565b86868661273b565b9050610cb28a828b8b8b8080601f0160208091040260200160405190810160405280939291908181526020018383808284376000920191909152508d9250612759915050565b9a9950505050505050505050565b610cc8610af5565b6001600160a01b0316336001600160a01b031614610d015760405162461bcd60e51b8152600401610cf890614d46565b60405180910390fd5b30610d0a610af5565b6001600160a01b031614610d475760008036604051610d2a929190614d36565b604051809103902090505b80610d4060026128be565b03610d3557505b610d508161293d565b50565b606060008054610d6290614d7d565b80601f0160208091040260200160405190810160405280929190818152602001828054610d8e90614d7d565b8015610ddb5780601f10610db057610100808354040283529160200191610ddb565b820191906000526020600020905b815481529060010190602001808311610dbe57829003601f168201915b5050505050905090565b600080610df486868686611f7c565b90506004610e0182611662565b6007811115610e1257610e12614821565b14610e2f5760405162461bcd60e51b8152600401610cf890614db7565b6007546040805163793d064960e11b815290516000926001600160a01b03169163f27a0c929160048083019260209291908290030181865afa158015610e79573d6000803e3d6000fd5b505050506040513d601f19601f82011682018060405250810190610e9d9190614df8565b60075460405163b1c5f42760e01b81529192506001600160a01b03169063b1c5f42790610ed7908a908a908a906000908b90600401614e11565b602060405180830381865afa158015610ef4573d6000803e3d6000fd5b505050506040513d601f19601f82011682018060405250810190610f189190614df8565b6000838152600860205260408082209290925560075491516308f2a0bb60e41b81526001600160a01b0390921691638f2a0bb091610f63918b918b918b91908b908990600401614e5f565b600060405180830381600087803b158015610f7d57600080fd5b505af1158015610f91573d6000803e3d6000fd5b505050507f9a2e42fd6722813d69113e7d0079d3d940171428df7373df9c7f7617cfda2892828242610fc39190614ecd565b604080519283526020830191909152015b60405180910390a15095945050505050565b6000818152600f6020908152604091829020805483518184028101840190945280845260609384938493849390926001840192600285019260038601929186919083018282801561106057602002820191906000526020600020905b81546001600160a01b03168152600190910190602001808311611042575b50505050509350828054806020026020016040519081016040528092919081815260200182805480156110b257602002820191906000526020600020905b81548152602001906001019080831161109e575b5050505050925081805480602002602001604051908101604052809291908181526020016000905b828210156111865783829060005260206000200180546110f990614d7d565b80601f016020809104026020016040519081016040528092919081815260200182805461112590614d7d565b80156111725780601f1061114757610100808354040283529160200191611172565b820191906000526020600020905b81548152906001019060200180831161115557829003601f168201915b5050505050815260200190600101906110da565b50505050915080805461119890614d7d565b80601f01602080910402602001604051908101604052809291908181526020018280546111c490614d7d565b80156112115780601f106111e657610100808354040283529160200191611211565b820191906000526020600020905b8154815290600101906020018083116111f457829003601f168201915b5050505050905093509350935093509193509193565b6000610b09610aa9600143614ee0565b60008061124686868686611f7c565b9050600061125382611662565b9050600481600781111561126957611269614821565b14806112865750600581600781111561128457611284614821565b145b6112a25760405162461bcd60e51b8152600401610cf890614db7565b600082815260016020818152604092839020600201805460ff191690921790915590518381527f712ae1383f79ac853f8d882153778e0260ef8f03b504e2866e0593e04d2b291f910160405180910390a16113008288888888612a89565b61130d8288888888612b2b565b61131a8288888888612b38565b5095945050505050565b60008181526001602090815260408083208151928301909152546001600160401b0316908190525b6001600160401b031692915050565b606080606080600060046000878152602001908152602001600020905080600101816002018260030183600401838054806020026020016040519081016040528092919081815260200182805480156113dd57602002820191906000526020600020905b81546001600160a01b031681526001909101906020018083116113bf575b505050505093508280548060200260200160405190810160405280929190818152602001828054801561142f57602002820191906000526020600020905b81548152602001906001019080831161141b575b5050505050925081805480602002602001604051908101604052809291908181526020016000905b8282101561150357838290600052602060002001805461147690614d7d565b80601f01602080910402602001604051908101604052809291908181526020018280546114a290614d7d565b80156114ef5780601f106114c4576101008083540402835291602001916114ef565b820191906000526020600020905b8154815290600101906020018083116114d257829003601f168201915b505050505081526020019060010190611457565b50505050915080805480602002602001604051908101604052809291908181526020016000905b828210156115d657838290600052602060002001805461154990614d7d565b80601f016020809104026020016040519081016040528092919081815260200182805461157590614d7d565b80156115c25780601f10611597576101008083540402835291602001916115c2565b820191906000526020600020905b8154815290600101906020018083116115a557829003601f168201915b50505050508152602001906001019061152a565b5050505090509450945094509450509193509193565b604080517f150214d74d59b7d1e90c73fc22ef3d991dd0a76b046543d4d80ab92d2a50328f602082015290810186905260ff85166060820152600090819061163a90610c6490608001610c49565b905061165787828860405180602001604052806000815250612b71565b979650505050505050565b6000610bc282612b9d565b600081815260046020526040902080546001600160a01b0316336001600160a01b031614806116b65750600b5481546116b4906001600160a01b0316610a5d600143614ee0565b105b6117125760405162461bcd60e51b815260206004820152602760248201527f476f7665726e6f72427261766f3a2070726f706f7365722061626f76652074686044820152661c995cda1bdb1960ca1b6064820152608401610cf8565b61197b8160010180548060200260200160405190810160405280929190818152602001828054801561176d57602002820191906000526020600020905b81546001600160a01b0316815260019091019060200180831161174f575b5050505050826002018054806020026020016040519081016040528092919081815260200182805480156117c057602002820191906000526020600020905b8154815260200190600101908083116117ac575b505050505061197184600301805480602002602001604051908101604052809291908181526020016000905b8282101561189857838290600052602060002001805461180b90614d7d565b80601f016020809104026020016040519081016040528092919081815260200182805461183790614d7d565b80156118845780601f1061185957610100808354040283529160200191611884565b820191906000526020600020905b81548152906001019060200180831161186757829003601f168201915b5050505050815260200190600101906117ec565b50505060048701805460408051602080840282018101909252828152935060009084015b828210156119685783829060005260206000200180546118db90614d7d565b80601f016020809104026020016040519081016040528092919081815260200182805461190790614d7d565b80156119545780601f1061192957610100808354040283529160200191611954565b820191906000526020600020905b81548152906001019060200180831161193757829003601f168201915b5050505050815260200190600101906118bc565b50505050612ce7565b8460090154612e19565b505050565b600f60205260009081526040902060038101805461199d90614d7d565b80601f01602080910402602001604051908101604052809291908181526020018280546119c990614d7d565b8015611a165780601f106119eb57610100808354040283529160200191611a16565b820191906000526020600020905b8154815290600101906020018083116119f957829003601f168201915b5050505050905081565b600080339050611a4184828560405180602001604052806000815250612b71565b949350505050565b60008033905061165787828888888080601f0160208091040260200160405190810160405280939291908181526020018383808284376000920191909152508a9250612759915050565b600654600090808203611aaa575050600554919050565b60006006611ab9600184614ee0565b81548110611ac957611ac9614ef3565b60009182526020918290206040805180820190915291015463ffffffff8116808352600160201b9091046001600160e01b03169282019290925291508410611b1f57602001516001600160e01b03169392505050565b611a41600685612e27565b600080339050611b7286828787878080601f016020809104026020016040519081016040528093929190818152602001838380828437600092019190915250612b7192505050565b9695505050505050565b600080611b8b86868686612ed9565b600d546000908152600e6020908152604080832084905580516080810182528a81528083018a905280820189905260608101889052848452600f835292208251805194955092939092611be2928492910190613fcf565b506020828101518051611bfb9260018501920190614030565b5060408201518051611c1791600284019160209091019061406b565b5060608201516003820190611c2c9082614f4f565b5050600d805491506000611c3f8361500e565b90915550909695505050505050565b6000611c5b848484612f41565b90505b9392505050565b60065460009015611c8857611c7a6006612625565b6001600160e01b0316905090565b5060055490565b611c97610af5565b6001600160a01b0316336001600160a01b031614611cc75760405162461bcd60e51b8152600401610cf890614d46565b30611cd0610af5565b6001600160a01b031614611d0d5760008036604051611cf0929190614d36565b604051809103902090505b80611d0660026128be565b03611cfb57505b610d5081612fd7565b60075460008281526008602052604080822054905163d45c443560e01b81526004810191909152909182916001600160a01b039091169063d45c443590602401602060405180830381865afa158015611d73573d6000803e3d6000fd5b505050506040513d601f19601f82011682018060405250810190611d979190614df8565b905080600114611da75780611c5e565b60009392505050565b600c8054611dbd90614d7d565b80601f0160208091040260200160405190810160405280929190818152602001828054611de990614d7d565b8015611e365780601f10611e0b57610100808354040283529160200191611e36565b820191906000526020600020905b815481529060010190602001808311611e1957829003601f168201915b505050505081565b60008181526001602081815260408084208151928301909152909101546001600160401b03169081905261134c565b611e75610af5565b6001600160a01b0316336001600160a01b031614611ea55760405162461bcd60e51b8152600401610cf890614d46565b30611eae610af5565b6001600160a01b031614611eeb5760008036604051611ece929190614d36565b604051809103902090505b80611ee460026128be565b03611ed957505b600080856001600160a01b0316858585604051611f09929190614d36565b60006040518083038185875af1925050503d8060008114611f46576040519150601f19603f3d011682016040523d82523d6000602084013e611f4b565b606091505b5091509150611f73828260405180606001604052806028815260200161527860289139613040565b50505050505050565b600084848484604051602001611f959493929190615027565b60408051601f19818403018152919052805160209091012095945050505050565b6000611fc6338787878787613059565b611b728686611fd58787612ce7565b85611b7c565b600081815260046020908152604091829020600181018054845181850281018501909552808552919361197b9390929083018282801561204457602002820191906000526020600020905b81546001600160a01b03168152600190910190602001808311612026575b50505050508260020180548060200260200160405190810160405280929190818152602001828054801561209757602002820191906000526020600020905b815481526020019060010190808311612083575b505050505061223f84600301805480602002602001604051908101604052809291908181526020016000905b8282101561216f5783829060005260206000200180546120e290614d7d565b80601f016020809104026020016040519081016040528092919081815260200182805461210e90614d7d565b801561215b5780601f106121305761010080835404028352916020019161215b565b820191906000526020600020905b81548152906001019060200180831161213e57829003601f168201915b5050505050815260200190600101906120c3565b50505060048701805460408051602080840282018101909252828152935060009084015b828210156119685783829060005260206000200180546121b290614d7d565b80601f01602080910402602001604051908101604052809291908181526020018280546121de90614d7d565b801561222b5780601f106122005761010080835404028352916020019161222b565b820191906000526020600020905b81548152906001019060200180831161220e57829003601f168201915b505050505081526020019060010190612193565b8460090154610de5565b6000611c5e838361226560408051602081019091526000815290565b612f41565b6000606461227783611a93565b604051632394e7a360e21b8152600481018590527f00000000000000000000000000000000000000000000000000000000000000006001600160a01b031690638e539e8c90602401602060405180830381865afa1580156122dc573d6000803e3d6000fd5b505050506040513d601f19601f820116820180604052508101906123009190614df8565b61230a9190615072565b610bc29190615089565b600081815260046020908152604091829020600181018054845181850281018501909552808552919361197b9390929083018282801561237d57602002820191906000526020600020905b81546001600160a01b0316815260019091019060200180831161235f575b5050505050826002018054806020026020016040519081016040528092919081815260200182805480156123d057602002820191906000526020600020905b8154815260200190600101908083116123bc575b505050505061257884600301805480602002602001604051908101604052809291908181526020016000905b828210156124a857838290600052602060002001805461241b90614d7d565b80601f016020809104026020016040519081016040528092919081815260200182805461244790614d7d565b80156124945780601f1061246957610100808354040283529160200191612494565b820191906000526020600020905b81548152906001019060200180831161247757829003601f168201915b5050505050815260200190600101906123fc565b50505060048701805460408051602080840282018101909252828152935060009084015b828210156119685783829060005260206000200180546124eb90614d7d565b80601f016020809104026020016040519081016040528092919081815260200182805461251790614d7d565b80156125645780601f1061253957610100808354040283529160200191612564565b820191906000526020600020905b81548152906001019060200180831161254757829003601f168201915b5050505050815260200190600101906124cc565b8460090154611237565b60006001600160e01b038211156125eb5760405162461bcd60e51b815260206004820152602760248201527f53616665436173743a2076616c756520646f65736e27742066697420696e20326044820152663234206269747360c81b6064820152608401610cf8565b5090565b60008061260d846125ff43612663565b61260886612582565b613116565b6001600160e01b0391821693501690505b9250929050565b80546000908015611da75761264d8361263f600184614ee0565b600091825260209091200190565b54600160201b90046001600160e01b0316611c5e565b600063ffffffff8211156125eb5760405162461bcd60e51b815260206004820152602660248201527f53616665436173743a2076616c756520646f65736e27742066697420696e203360448201526532206269747360d01b6064820152608401610cf8565b60006001600160e01b03198216636e665ced60e01b1480610bc25750610bc2826132b9565b6000610bc26126fa613324565b8360405161190160f01b6020820152602281018390526042810182905260009060620160405160208183030381529060405280519060200120905092915050565b600080600061274c8787878761344b565b9150915061131a8161350f565b600085815260016020819052604082209061277388611662565b600781111561278457612784614821565b146127dd5760405162461bcd60e51b815260206004820152602360248201527f476f7665726e6f723a20766f7465206e6f742063757272656e746c792061637460448201526269766560e81b6064820152608401610cf8565b604080516020810190915281546001600160401b03169081905260009061280690889086612f41565b90506128158888888488613659565b835160000361286a57866001600160a01b03167fb8e138887d0aa13bab447e82de9d5c1777041ecd21ca36ba824ff1e6c07ddda48988848960405161285d94939291906150ab565b60405180910390a2611657565b866001600160a01b03167fe2babfbac5889a709b63bb7f598b324e08bc5a4fb9ec647fb3cbc9ec07eb871289888489896040516128ab9594939291906150d3565b60405180910390a2979650505050505050565b60006128d98254600f81810b600160801b909204900b131590565b156128f757604051631ed9509560e11b815260040160405180910390fd5b508054600f0b6000818152600180840160205260408220805492905583546fffffffffffffffffffffffffffffffff191692016001600160801b03169190911790915590565b60648111156129c05760405162461bcd60e51b815260206004820152604360248201527f476f7665726e6f72566f74657351756f72756d4672616374696f6e3a2071756f60448201527f72756d4e756d657261746f72206f7665722071756f72756d44656e6f6d696e616064820152623a37b960e91b608482015260a401610cf8565b60006129ca611c65565b905080158015906129db5750600654155b15612a3f576040805180820190915260008152600690602081016129fe84612582565b6001600160e01b039081169091528254600181018455600093845260209384902083519490930151909116600160201b0263ffffffff909316929092179101555b612a4a6006836125ef565b505060408051828152602081018490527f0553476bf02ef2726e8ce5ced78d63e26e602e4a2257b1f559418e24b4633997910160405180910390a15050565b30612a92610af5565b6001600160a01b031614612b245760005b8451811015612b2257306001600160a01b0316858281518110612ac857612ac8614ef3565b60200260200101516001600160a01b031603612b1257612b12838281518110612af357612af3614ef3565b60200260200101518051906020012060026137f690919063ffffffff16565b612b1b8161500e565b9050612aa3565b505b5050505050565b612b248585858585613832565b30612b41610af5565b6001600160a01b031614612b2457600254600f81810b600160801b909204900b1315612b24576000600255612b24565b6000612b9485858585612b8f60408051602081019091526000815290565b612759565b95945050505050565b600080612ba9836138a6565b90506004816007811115612bbf57612bbf614821565b14612bca5792915050565b60008381526008602052604090205480612be5575092915050565b600754604051632ab0f52960e01b8152600481018390526001600160a01b0390911690632ab0f52990602401602060405180830381865afa158015612c2e573d6000803e3d6000fd5b505050506040513d601f19601f82011682018060405250810190612c529190615119565b15612c61575060079392505050565b600754604051632c258a9f60e11b8152600481018390526001600160a01b039091169063584b153e90602401602060405180830381865afa158015612caa573d6000803e3d6000fd5b505050506040513d601f19601f82011682018060405250810190612cce9190615119565b15612cdd575060059392505050565b5060029392505050565b6060600082516001600160401b03811115612d0457612d04614232565b604051908082528060200260200182016040528015612d3757816020015b6060815260200190600190039081612d225790505b50905060005b8451811015612e1157848181518110612d5857612d58614ef3565b602002602001015151600014612dc857848181518110612d7a57612d7a614ef3565b602002602001015180519060200120848281518110612d9b57612d9b614ef3565b6020026020010151604051602001612db492919061513b565b604051602081830303815290604052612de3565b838181518110612dda57612dda614ef3565b60200260200101515b828281518110612df557612df5614ef3565b602002602001018190525080612e0a9061500e565b9050612d3d565b509392505050565b6000612b94858585856139b8565b6000438210612e785760405162461bcd60e51b815260206004820181905260248201527f436865636b706f696e74733a20626c6f636b206e6f7420796574206d696e65646044820152606401610cf8565b6000612e8383612663565b84549091506000612e9686848385613a6a565b90508015612ec357612ead8661263f600184614ee0565b54600160201b90046001600160e01b0316612ec6565b60005b6001600160e01b03169695505050505050565b6000612f3533868686516001600160401b03811115612efa57612efa614232565b604051908082528060200260200182016040528015612f2d57816020015b6060815260200190600190039081612f185790505b508787613059565b612b9485858585613ac0565b604051630748d63560e31b81526001600160a01b038481166004830152602482018490526000917f000000000000000000000000000000000000000000000000000000000000000090911690633a46b1a890604401602060405180830381865afa158015612fb3573d6000803e3d6000fd5b505050506040513d601f19601f82011682018060405250810190611c5b9190614df8565b600754604080516001600160a01b03928316815291831660208301527f08f74ea46ef7894f65eabfb5e6e695de773a000b47c529ab559178069b226401910160405180910390a1600780546001600160a01b0319166001600160a01b0392909216919091179055565b6060831561304f575081611c5e565b611c5e8383613d86565b80516020820120600061307787876130718888612ce7565b85611f7c565b600081815260046020526040902060098101549192509061310b5780546001600160a01b0319166001600160a01b038a1617815587516130c090600183019060208b0190613fcf565b5086516130d690600283019060208a0190614030565b5085516130ec90600383019060208901906140bd565b508451613102906004830190602088019061406b565b50600981018390555b505050505050505050565b82546000908190801561325c5760006131348761263f600185614ee0565b60408051808201909152905463ffffffff808216808452600160201b9092046001600160e01b0316602084015291925090871610156131b55760405162461bcd60e51b815260206004820152601760248201527f436865636b706f696e743a20696e76616c6964206b65790000000000000000006044820152606401610cf8565b805163ffffffff8088169116036131fd57846131d68861263f600186614ee0565b80546001600160e01b0392909216600160201b0263ffffffff90921691909117905561324c565b6040805180820190915263ffffffff80881682526001600160e01b0380881660208085019182528b54600181018d5560008d81529190912094519151909216600160201b029216919091179101555b6020015192508391506132b19050565b50506040805180820190915263ffffffff80851682526001600160e01b0380851660208085019182528854600181018a5560008a815291822095519251909316600160201b0291909316179201919091559050815b935093915050565b60006001600160e01b0319821663bf26d89760e01b14806132ea57506001600160e01b031982166379dd796f60e01b145b8061330557506001600160e01b03198216630271189760e51b145b80610bc257506301ffc9a760e01b6001600160e01b0319831614610bc2565b6000306001600160a01b037f00000000000000000000000000000000000000000000000000000000000000001614801561337d57507f000000000000000000000000000000000000000000000000000000000000000046145b156133a757507f000000000000000000000000000000000000000000000000000000000000000090565b50604080517f00000000000000000000000000000000000000000000000000000000000000006020808301919091527f0000000000000000000000000000000000000000000000000000000000000000828401527f000000000000000000000000000000000000000000000000000000000000000060608301524660808301523060a0808401919091528351808403909101815260c0909201909252805191012090565b6000807f7fffffffffffffffffffffffffffffff5d576e7357a4501ddfe92f46681b20a08311156134825750600090506003613506565b6040805160008082526020820180845289905260ff881692820192909252606081018690526080810185905260019060a0016020604051602081039080840390855afa1580156134d6573d6000803e3d6000fd5b5050604051601f1901519150506001600160a01b0381166134ff57600060019250925050613506565b9150600090505b94509492505050565b600081600481111561352357613523614821565b0361352b5750565b600181600481111561353f5761353f614821565b0361358c5760405162461bcd60e51b815260206004820152601860248201527f45434453413a20696e76616c6964207369676e617475726500000000000000006044820152606401610cf8565b60028160048111156135a0576135a0614821565b036135ed5760405162461bcd60e51b815260206004820152601f60248201527f45434453413a20696e76616c6964207369676e6174757265206c656e677468006044820152606401610cf8565b600381600481111561360157613601614821565b03610d505760405162461bcd60e51b815260206004820152602260248201527f45434453413a20696e76616c6964207369676e6174757265202773272076616c604482015261756560f01b6064820152608401610cf8565b60008581526004602090815260408083206001600160a01b038816845260088101909252909120805460ff16156136e85760405162461bcd60e51b815260206004820152602d60248201527f476f7665726e6f72436f6d7061746962696c697479427261766f3a20766f746560448201526c08185b1c9958591e4818d85cdd609a1b6064820152608401610cf8565b805460ff86166101000261ffff1990911617600117815561370884613db0565b81546001600160601b039190911662010000026dffffffffffffffffffffffff00001990911617815560ff8516613758578382600601600082825461374d9190614ecd565b90915550611f739050565b60001960ff861601613778578382600501600082825461374d9190614ecd565b60011960ff861601613798578382600701600082825461374d9190614ecd565b60405162461bcd60e51b815260206004820152602d60248201527f476f7665726e6f72436f6d7061746962696c697479427261766f3a20696e766160448201526c6c696420766f7465207479706560981b6064820152608401610cf8565b8154600160801b90819004600f0b6000818152600180860160205260409091209390935583546001600160801b03908116939091011602179055565b60075460405163e38335e560e01b81526001600160a01b039091169063e38335e590349061386d908890889088906000908990600401614e11565b6000604051808303818588803b15801561388657600080fd5b505af115801561389a573d6000803e3d6000fd5b50505050505050505050565b6000818152600160205260408120600281015460ff16156138ca5750600792915050565b6002810154610100900460ff16156138e55750600292915050565b60006138f084611324565b9050806000036139425760405162461bcd60e51b815260206004820152601d60248201527f476f7665726e6f723a20756e6b6e6f776e2070726f706f73616c2069640000006044820152606401610cf8565b438110613953575060009392505050565b600061395e85611e3e565b905043811061397257506001949350505050565b61397b85613e18565b801561399d575060008581526004602052604090206006810154600590910154115b156139ad57506004949350505050565b506003949350505050565b6000806139c786868686613e40565b60008181526008602052604090205490915015612b94576007546000828152600860205260409081902054905163c4d252f560e01b81526001600160a01b039092169163c4d252f591613a209160040190815260200190565b600060405180830381600087803b158015613a3a57600080fd5b505af1158015613a4e573d6000803e3d6000fd5b5050506000828152600860205260408120555095945050505050565b60005b81831015612e11576000613a818484613f4c565b60008781526020902090915063ffffffff86169082015463ffffffff161115613aac57809250613aba565b613ab7816001614ecd565b93505b50613a6d565b6000613acb600b5490565b613ada33610a5d600143614ee0565b1015613b425760405162461bcd60e51b815260206004820152603160248201527f476f7665726e6f723a2070726f706f73657220766f7465732062656c6f7720706044820152701c9bdc1bdcd85b081d1a1c995cda1bdb19607a1b6064820152608401610cf8565b6000613b578686868680519060200120611f7c565b90508451865114613b7a5760405162461bcd60e51b8152600401610cf89061516c565b8351865114613b9b5760405162461bcd60e51b8152600401610cf89061516c565b6000865111613bec5760405162461bcd60e51b815260206004820152601860248201527f476f7665726e6f723a20656d7074792070726f706f73616c00000000000000006044820152606401610cf8565b600081815260016020908152604091829020825191820190925281546001600160401b03169081905215613c6c5760405162461bcd60e51b815260206004820152602160248201527f476f7665726e6f723a2070726f706f73616c20616c72656164792065786973746044820152607360f81b6064820152608401610cf8565b6000613c7f613c7a60095490565b613f67565b613c8843613f67565b613c9291906151ad565b90506000613ca2613c7a600a5490565b613cac90836151ad565b835467ffffffffffffffff19166001600160401b038416178455905060018301805467ffffffffffffffff19166001600160401b0383161790557f7d84a6263ae0d98d3329bd7b46bb4e8d6f98cd35a7adb45c274c8b7fd5ebd5e084338b8b8d516001600160401b03811115613d2457613d24614232565b604051908082528060200260200182016040528015613d5757816020015b6060815260200190600190039081613d425790505b508c88888e604051613d71999897969594939291906151d4565b60405180910390a15091979650505050505050565b815115613d965781518083602001fd5b8060405162461bcd60e51b8152600401610cf891906143dd565b60006001600160601b038211156125eb5760405162461bcd60e51b815260206004820152602660248201527f53616665436173743a2076616c756520646f65736e27742066697420696e203960448201526536206269747360d01b6064820152608401610cf8565b60008181526004602052604081206005810154613e37610aa985611324565b11159392505050565b600080613e4f86868686611f7c565b90506000613e5c82611662565b90506002816007811115613e7257613e72614821565b14158015613e9257506006816007811115613e8f57613e8f614821565b14155b8015613eb057506007816007811115613ead57613ead614821565b14155b613efc5760405162461bcd60e51b815260206004820152601d60248201527f476f7665726e6f723a2070726f706f73616c206e6f74206163746976650000006044820152606401610cf8565b60008281526001602052604090819020600201805461ff001916610100179055517f789cf55be980739dad1d0699b93b58e806b51c9d96619bfa8fe0a28abaa7b30c90610fd49084815260200190565b6000613f5b6002848418615089565b611c5e90848416614ecd565b60006001600160401b038211156125eb5760405162461bcd60e51b815260206004820152602660248201527f53616665436173743a2076616c756520646f65736e27742066697420696e203660448201526534206269747360d01b6064820152608401610cf8565b828054828255906000526020600020908101928215614024579160200282015b8281111561402457825182546001600160a01b0319166001600160a01b03909116178255602090920191600190910190613fef565b506125eb92915061410f565b828054828255906000526020600020908101928215614024579160200282015b82811115614024578251825591602001919060010190614050565b8280548282559060005260206000209081019282156140b1579160200282015b828111156140b157825182906140a19082614f4f565b509160200191906001019061408b565b506125eb929150614124565b828054828255906000526020600020908101928215614103579160200282015b8281111561410357825182906140f39082614f4f565b50916020019190600101906140dd565b506125eb929150614141565b5b808211156125eb5760008155600101614110565b808211156125eb576000614138828261415e565b50600101614124565b808211156125eb576000614155828261415e565b50600101614141565b50805461416a90614d7d565b6000825580601f1061417a575050565b601f016020900490600052602060002090810190610d50919061410f565b6000602082840312156141aa57600080fd5b5035919050565b6000602082840312156141c357600080fd5b81356001600160e01b031981168114611c5e57600080fd5b803560ff811681146141ec57600080fd5b919050565b60008083601f84011261420357600080fd5b5081356001600160401b0381111561421a57600080fd5b60208301915083602082850101111561261e57600080fd5b634e487b7160e01b600052604160045260246000fd5b604051601f8201601f191681016001600160401b038111828210171561427057614270614232565b604052919050565b600082601f83011261428957600080fd5b81356001600160401b038111156142a2576142a2614232565b6142b5601f8201601f1916602001614248565b8181528460208386010111156142ca57600080fd5b816020850160208301376000918101602001919091529392505050565b60008060008060008060008060e0898b03121561430357600080fd5b8835975061431360208a016141db565b965060408901356001600160401b038082111561432f57600080fd5b61433b8c838d016141f1565b909850965060608b013591508082111561435457600080fd5b506143618b828c01614278565b94505061437060808a016141db565b925060a0890135915060c089013590509295985092959890939650565b60005b838110156143a8578181015183820152602001614390565b50506000910152565b600081518084526143c981602086016020860161438d565b601f01601f19169290920160200192915050565b602081526000611c5e60208301846143b1565b6001600160a01b0381168114610d5057600080fd5b6000806000806080858703121561441b57600080fd5b8435614426816143f0565b93506020850135614436816143f0565b92506040850135915060608501356001600160401b0381111561445857600080fd5b61446487828801614278565b91505092959194509250565b60006001600160401b0382111561448957614489614232565b5060051b60200190565b600082601f8301126144a457600080fd5b813560206144b96144b483614470565b614248565b82815260059290921b840181019181810190868411156144d857600080fd5b8286015b848110156144fc5780356144ef816143f0565b83529183019183016144dc565b509695505050505050565b600082601f83011261451857600080fd5b813560206145286144b483614470565b82815260059290921b8401810191818101908684111561454757600080fd5b8286015b848110156144fc578035835291830191830161454b565b600082601f83011261457357600080fd5b813560206145836144b483614470565b82815260059290921b840181019181810190868411156145a257600080fd5b8286015b848110156144fc5780356001600160401b038111156145c55760008081fd5b6145d38986838b0101614278565b8452509183019183016145a6565b600080600080608085870312156145f757600080fd5b84356001600160401b038082111561460e57600080fd5b61461a88838901614493565b9550602087013591508082111561463057600080fd5b61463c88838901614507565b9450604087013591508082111561465257600080fd5b5061465f87828801614562565b949793965093946060013593505050565b600081518084526020808501945080840160005b838110156146a95781516001600160a01b031687529582019590820190600101614684565b509495945050505050565b600081518084526020808501945080840160005b838110156146a9578151875295820195908201906001016146c8565b600081518084526020808501808196508360051b8101915082860160005b8581101561472c57828403895261471a8483516143b1565b98850198935090840190600101614702565b5091979650505050505050565b60808152600061474c6080830187614670565b828103602084015261475e81876146b4565b9050828103604084015261477281866146e4565b9050828103606084015261165781856143b1565b6080815260006147996080830187614670565b82810360208401526147ab81876146b4565b905082810360408401526147bf81866146e4565b9050828103606084015261165781856146e4565b600080600080600060a086880312156147eb57600080fd5b853594506147fb602087016141db565b9350614809604087016141db565b94979396509394606081013594506080013592915050565b634e487b7160e01b600052602160045260246000fd5b602081016008831061485957634e487b7160e01b600052602160045260246000fd5b91905290565b6000806040838503121561487257600080fd5b823591506020830135614884816143f0565b809150509250929050565b600080604083850312156148a257600080fd5b823591506148b2602084016141db565b90509250929050565b6000806000806000608086880312156148d357600080fd5b853594506148e3602087016141db565b935060408601356001600160401b03808211156148ff57600080fd5b61490b89838a016141f1565b9095509350606088013591508082111561492457600080fd5b5061493188828901614278565b9150509295509295909350565b6000806000806060858703121561495457600080fd5b84359350614964602086016141db565b925060408501356001600160401b0381111561497f57600080fd5b61498b878288016141f1565b95989497509550505050565b600080600080608085870312156149ad57600080fd5b84356001600160401b03808211156149c457600080fd5b6149d088838901614493565b955060208701359150808211156149e657600080fd5b6149f288838901614507565b94506040870135915080821115614a0857600080fd5b614a1488838901614562565b93506060870135915080821115614a2a57600080fd5b5061446487828801614278565b600080600060608486031215614a4c57600080fd5b8335614a57816143f0565b92506020840135915060408401356001600160401b03811115614a7957600080fd5b614a8586828701614278565b9150509250925092565b600060208284031215614aa157600080fd5b8135611c5e816143f0565b600080600080600060a08688031215614ac457600080fd5b8535614acf816143f0565b94506020860135614adf816143f0565b935060408601356001600160401b0380821115614afb57600080fd5b614b0789838a01614507565b94506060880135915080821115614b1d57600080fd5b614b2989838a01614507565b9350608088013591508082111561492457600080fd5b60008060008060608587031215614b5557600080fd5b8435614b60816143f0565b93506020850135925060408501356001600160401b0381111561497f57600080fd5b600082601f830112614b9357600080fd5b81356020614ba36144b483614470565b82815260059290921b84018101918181019086841115614bc257600080fd5b8286015b848110156144fc5780356001600160401b03811115614be55760008081fd5b614bf38986838b0101614278565b845250918301918301614bc6565b600080600080600060a08688031215614c1957600080fd5b85356001600160401b0380821115614c3057600080fd5b614c3c89838a01614493565b96506020880135915080821115614c5257600080fd5b614c5e89838a01614507565b95506040880135915080821115614c7457600080fd5b614c8089838a01614b82565b94506060880135915080821115614c9657600080fd5b614b2989838a01614562565b60008060408385031215614cb557600080fd5b8235614cc0816143f0565b946020939093013593505050565b600080600080600060a08688031215614ce657600080fd5b8535614cf1816143f0565b94506020860135614d01816143f0565b9350604086013592506060860135915060808601356001600160401b03811115614d2a57600080fd5b61493188828901614278565b8183823760009101908152919050565b60208082526018908201527f476f7665726e6f723a206f6e6c79476f7665726e616e63650000000000000000604082015260600190565b600181811c90821680614d9157607f821691505b602082108103614db157634e487b7160e01b600052602260045260246000fd5b50919050565b60208082526021908201527f476f7665726e6f723a2070726f706f73616c206e6f74207375636365737366756040820152601b60fa1b606082015260800190565b600060208284031215614e0a57600080fd5b5051919050565b60a081526000614e2460a0830188614670565b8281036020840152614e3681886146b4565b90508281036040840152614e4a81876146e4565b60608401959095525050608001529392505050565b60c081526000614e7260c0830189614670565b8281036020840152614e8481896146b4565b90508281036040840152614e9881886146e4565b60608401969096525050608081019290925260a0909101529392505050565b634e487b7160e01b600052601160045260246000fd5b80820180821115610bc257610bc2614eb7565b81810381811115610bc257610bc2614eb7565b634e487b7160e01b600052603260045260246000fd5b601f82111561197b57600081815260208120601f850160051c81016020861015614f305750805b601f850160051c820191505b81811015612b2257828155600101614f3c565b81516001600160401b03811115614f6857614f68614232565b614f7c81614f768454614d7d565b84614f09565b602080601f831160018114614fb15760008415614f995750858301515b600019600386901b1c1916600185901b178555612b22565b600085815260208120601f198616915b82811015614fe057888601518255948401946001909101908401614fc1565b5085821015614ffe5787850151600019600388901b60f8161c191681555b5050505050600190811b01905550565b60006001820161502057615020614eb7565b5060010190565b60808152600061503a6080830187614670565b828103602084015261504c81876146b4565b9050828103604084015261506081866146e4565b91505082606083015295945050505050565b8082028115828204841417610bc257610bc2614eb7565b6000826150a657634e487b7160e01b600052601260045260246000fd5b500490565b84815260ff84166020820152826040820152608060608201526000611b7260808301846143b1565b85815260ff8516602082015283604082015260a0606082015260006150fb60a08301856143b1565b828103608084015261510d81856143b1565b98975050505050505050565b60006020828403121561512b57600080fd5b81518015158114611c5e57600080fd5b6001600160e01b031983168152815160009061515e81600485016020870161438d565b919091016004019392505050565b60208082526021908201527f476f7665726e6f723a20696e76616c69642070726f706f73616c206c656e67746040820152600d60fb1b606082015260800190565b6001600160401b038181168382160190808211156151cd576151cd614eb7565b5092915050565b8981526001600160a01b0389166020820152610120604082018190526000906151ff8382018b614670565b90508281036060840152615213818a6146b4565b9050828103608084015261522781896146e4565b905082810360a084015261523b81886146e4565b6001600160401b0387811660c0860152861660e0850152838103610100850152905061526781856143b1565b9c9b50505050505050505050505056fe476f7665726e6f723a2072656c617920726576657274656420776974686f7574206d657373616765a26469706673582212209d6f7f590721da86f9d01742170d1f641c3e1b7839c309b6f3a6f73df207b8e064736f6c63430008110033",
  "linkReferences": {},
  "deployedLinkReferences": {}
}