{
  "_format": "hh-sol-artifact-1",
  "contractName": "DAOGovernor",
  "sourceName": "contracts/DAOGovernor.sol",
  "abi": [
    {
      "inputs": [
        {
          "internalType": "string",
          "name": "_name",
          "type": "string"
        },
        {
          "internalType": "contract IVotes",
          "name": "_token",
          "type": "address"
        },
        {
          "internalType": "contract TimelockController",
          "name": "_timelock",
          "type": "address"
        },
        {
          "internalType": "uint256",
          "name": "_quorumFraction",
          "type": "uint256"
        },
        {
          "internalType": "uint256",
          "name": "_votingDelay",
          "type": "uint256"
        },
        {
          "internalType": "uint256",
          "name": "_votingPeriod",
          "type": "uint256"
        },
        {
          "internalType": "uint256",
          "name": "_proposalThreshold",
          "type": "uint256"
        }
      ],
      "stateMutability": "nonpayable",
      "type": "constructor"
    },
    {
      "inputs": [],
      "name": "Empty",
      "type": "error"
    },
    {
      "anonymous": false,
      "inputs": [
        {
          "indexed": false,
          "internalType": "uint256",
          "name": "proposalId",
          "type": "uint256"
        }
      ],
      "name": "ProposalCanceled",
      "type": "event"
    },
    {
      "anonymous": false,
      "inputs": [
        {
          "indexed": false,
          "internalType": "uint256",
          "name": "proposalId",
          "type": "uint256"
        },
        {
          "indexed": false,
          "internalType": "address",
          "name": "proposer",
          "type": "address"
        },
        {
          "indexed": false,
          "internalType": "address[]",
          "name": "targets",
          "type": "address[]"
        },
        {
          "indexed": false,
          "internalType": "uint256[]",
          "name": "values",
          "type": "uint256[]"
        },
        {
          "indexed": false,
          "internalType": "string[]",
          "name": "signatures",
          "type": "string[]"
        },
        {
          "indexed": false,
          "internalType": "bytes[]",
          "name": "calldatas",
          "type": "bytes[]"
        },
        {
          "indexed": false,
          "internalType": "uint256",
          "name": "startBlock",
          "type": "uint256"
        },
        {
          "indexed": false,
          "internalType": "uint256",
          "name": "endBlock",
          "type": "uint256"
        },
        {
          "indexed": false,
          "internalType": "string",
          "name": "description",
          "type": "string"
        }
      ],
      "name": "ProposalCreated",
      "type": "event"
    },
    {
      "anonymous": false,
      "inputs": [
        {
          "indexed": false,
          "internalType": "uint256",
          "name": "proposalId",
          "type": "uint256"
        }
      ],
      "name": "ProposalExecuted",
      "type": "event"
    },
    {
      "anonymous": false,
      "inputs": [
        {
          "indexed": false,
          "internalType": "uint256",
          "name": "proposalId",
          "type": "uint256"
        },
        {
          "indexed": false,
          "internalType": "uint256",
          "name": "eta",
          "type": "uint256"
        }
      ],
      "name": "ProposalQueued",
      "type": "event"
    },
    {
      "anonymous": false,
      "inputs": [
        {
          "indexed": false,
          "internalType": "uint256",
          "name": "oldQuorumNumerator",
          "type": "uint256"
        },
        {
          "indexed": false,
          "internalType": "uint256",
          "name": "newQuorumNumerator",
          "type": "uint256"
        }
      ],
      "name": "QuorumNumeratorUpdated",
      "type": "event"
    },
    {
      "anonymous": false,
      "inputs": [
        {
          "indexed": false,
          "internalType": "address",
          "name": "oldTimelock",
          "type": "address"
        },
        {
          "indexed": false,
          "internalType": "address",
          "name": "newTimelock",
          "type": "address"
        }
      ],
      "name": "TimelockChange",
      "type": "event"
    },
    {
      "anonymous": false,
      "inputs": [
        {
          "indexed": true,
          "internalType": "address",
          "name": "voter",
          "type": "address"
        },
        {
          "indexed": false,
          "internalType": "uint256",
          "name": "proposalId",
          "type": "uint256"
        },
        {
          "indexed": false,
          "internalType": "uint8",
          "name": "support",
          "type": "uint8"
        },
        {
          "indexed": false,
          "internalType": "uint256",
          "name": "weight",
          "type": "uint256"
        },
        {
          "indexed": false,
          "internalType": "string",
          "name": "reason",
          "type": "string"
        }
      ],
      "name": "VoteCast",
      "type": "event"
    },
    {
      "anonymous": false,
      "inputs": [
        {
          "indexed": true,
          "internalType": "address",
          "name": "voter",
          "type": "address"
        },
        {
          "indexed": false,
          "internalType": "uint256",
          "name": "proposalId",
          "type": "uint256"
        },
        {
          "indexed": false,
          "internalType": "uint8",
          "name": "support",
          "type": "uint8"
        },
        {
          "indexed": false,
          "internalType": "uint256",
          "name": "weight",
          "type": "uint256"
        },
        {
          "indexed": false,
          "internalType": "string",
          "name": "reason",
          "type": "string"
        },
        {
          "indexed": false,
          "internalType": "bytes",
          "name": "params",
          "type": "bytes"
        }
      ],
      "name": "VoteCastWithParams",
      "type": "event"
    },
    {
      "inputs": [],
      "name": "BALLOT_TYPEHASH",
      "outputs": [
        {
          "internalType": "bytes32",
          "name": "",
          "type": "bytes32"
        }
      ],
      "stateMutability": "view",
      "type": "function"
    },
    {
      "inputs": [],
      "name": "COUNTING_MODE",
      "outputs": [
        {
          "internalType": "string",
          "name": "",
          "type": "string"
        }
      ],
      "stateMutability": "pure",
      "type": "function"
    },
    {
      "inputs": [],
      "name": "EXTENDED_BALLOT_TYPEHASH",
      "outputs": [
        {
          "internalType": "bytes32",
          "name": "",
          "type": "bytes32"
        }
      ],
      "stateMutability": "view",
      "type": "function"
    },
    {
      "inputs": [
        {
          "internalType": "uint256",
          "name": "proposalId",
          "type": "uint256"
        }
      ],
      "name": "cancel",
      "outputs": [],
      "stateMutability": "nonpayable",
      "type": "function"
    },
    {
      "inputs": [
        {
          "internalType": "uint256",
          "name": "proposalId",
          "type": "uint256"
        },
        {
          "internalType": "uint8",
          "name": "support",
          "type": "uint8"
        }
      ],
      "name": "castVote",
      "outputs": [
        {
          "internalType": "uint256",
          "name": "",
          "type": "uint256"
        }
      ],
      "stateMutability": "nonpayable",
      "type": "function"
    },
    {
      "inputs": [
        {
          "internalType": "uint256",
          "name": "proposalId",
          "type": "uint256"
        },
        {
          "internalType": "uint8",
          "name": "support",
          "type": "uint8"
        },
        {
          "internalType": "uint8",
          "name": "v",
          "type": "uint8"
        },
        {
          "internalType": "bytes32",
          "name": "r",
          "type": "bytes32"
        },
        {
          "internalType": "bytes32",
          "name": "s",
          "type": "bytes32"
        }
      ],
      "name": "castVoteBySig",
      "outputs": [
        {
          "internalType": "uint256",
          "name": "",
          "type": "uint256"
        }
      ],
      "stateMutability": "nonpayable",
      "type": "function"
    },
    {
      "inputs": [
        {
          "internalType": "uint256",
          "name": "proposalId",
          "type": "uint256"
        },
        {
          "internalType": "uint8",
          "name": "support",
          "type": "uint8"
        },
        {
          "internalType": "string",
          "name": "reason",
          "type": "string"
        }
      ],
      "name": "castVoteWithReason",
      "outputs": [
        {
          "internalType": "uint256",
          "name": "",
          "type": "uint256"
        }
      ],
      "stateMutability": "nonpayable",
      "type": "function"
    },
    {
      "inputs": [
        {
          "internalType": "uint256",
          "name": "proposalId",
          "type": "uint256"
        },
        {
          "internalType": "uint8",
          "name": "support",
          "type": "uint8"
        },
        {
          "internalType": "string",
          "name": "reason",
          "type": "string"
        },
        {
          "internalType": "bytes",
          "name": "params",
          "type": "bytes"
        }
      ],
      "name": "castVoteWithReasonAndParams",
      "outputs": [
        {
          "internalType": "uint256",
          "name": "",
          "type": "uint256"
        }
      ],
      "stateMutability": "nonpayable",
      "type": "function"
    },
    {
      "inputs": [
        {
          "internalType": "uint256",
          "name": "proposalId",
          "type": "uint256"
        },
        {
          "internalType": "uint8",
          "name": "support",
          "type": "uint8"
        },
        {
          "internalType": "string",
          "name": "reason",
          "type": "string"
        },
        {
          "internalType": "bytes",
          "name": "params",
          "type": "bytes"
        },
        {
          "internalType": "uint8",
          "name": "v",
          "type": "uint8"
        },
        {
          "internalType": "bytes32",
          "name": "r",
          "type": "bytes32"
        },
        {
          "internalType": "bytes32",
          "name": "s",
          "type": "bytes32"
        }
      ],
      "name": "castVoteWithReasonAndParamsBySig",
      "outputs": [
        {
          "internalType": "uint256",
          "name": "",
          "type": "uint256"
        }
      ],
      "stateMutability": "nonpayable",
      "type": "function"
    },
    {
      "inputs": [
        {
          "internalType": "address[]",
          "name": "targets",
          "type": "address[]"
        },
        {
          "internalType": "uint256[]",
          "name": "values",
          "type": "uint256[]"
        },
        {
          "internalType": "bytes[]",
          "name": "calldatas",
          "type": "bytes[]"
        },
        {
          "internalType": "bytes32",
          "name": "descriptionHash",
          "type": "bytes32"
        }
      ],
      "name": "execute",
      "outputs": [
        {
          "internalType": "uint256",
          "name": "",
          "type": "uint256"
        }
      ],
      "stateMutability": "payable",
      "type": "function"
    },
    {
      "inputs": [
        {
          "internalType": "uint256",
          "name": "proposalId",
          "type": "uint256"
        }
      ],
      "name": "execute",
      "outputs": [],
      "stateMutability": "payable",
      "type": "function"
    },
    {
      "inputs": [
        {
          "internalType": "uint256",
          "name": "proposalId",
          "type": "uint256"
        }
      ],
      "name": "getActions",
      "outputs": [
        {
          "internalType": "address[]",
          "name": "targets",
          "type": "address[]"
        },
        {
          "internalType": "uint256[]",
          "name": "values",
          "type": "uint256[]"
        },
        {
          "internalType": "string[]",
          "name": "signatures",
          "type": "string[]"
        },
        {
          "internalType": "bytes[]",
          "name": "calldatas",
          "type": "bytes[]"
        }
      ],
      "stateMutability": "view",
      "type": "function"
    },
    {
      "inputs": [
        {
          "internalType": "uint256",
          "name": "id",
          "type": "uint256"
        }
      ],
      "name": "getProposalContent",
      "outputs": [
        {
          "internalType": "address[]",
          "name": "",
          "type": "address[]"
        },
        {
          "internalType": "uint256[]",
          "name": "",
          "type": "uint256[]"
        },
        {
          "internalType": "bytes[]",
          "name": "",
          "type": "bytes[]"
        },
        {
          "internalType": "string",
          "name": "",
          "type": "string"
        }
      ],
      "stateMutability": "view",
      "type": "function"
    },
    {
      "inputs": [
        {
          "internalType": "uint256",
          "name": "proposalId",
          "type": "uint256"
        },
        {
          "internalType": "address",
          "name": "voter",
          "type": "address"
        }
      ],
      "name": "getReceipt",
      "outputs": [
        {
          "components": [
            {
              "internalType": "bool",
              "name": "hasVoted",
              "type": "bool"
            },
            {
              "internalType": "uint8",
              "name": "support",
              "type": "uint8"
            },
            {
              "internalType": "uint96",
              "name": "votes",
              "type": "uint96"
            }
          ],
          "internalType": "struct IGovernorCompatibilityBravo.Receipt",
          "name": "",
          "type": "tuple"
        }
      ],
      "stateMutability": "view",
      "type": "function"
    },
    {
      "inputs": [
        {
          "internalType": "address",
          "name": "account",
          "type": "address"
        },
        {
          "internalType": "uint256",
          "name": "blockNumber",
          "type": "uint256"
        }
      ],
      "name": "getVotes",
      "outputs": [
        {
          "internalType": "uint256",
          "name": "",
          "type": "uint256"
        }
      ],
      "stateMutability": "view",
      "type": "function"
    },
    {
      "inputs": [
        {
          "internalType": "address",
          "name": "account",
          "type": "address"
        },
        {
          "internalType": "uint256",
          "name": "blockNumber",
          "type": "uint256"
        },
        {
          "internalType": "bytes",
          "name": "params",
          "type": "bytes"
        }
      ],
      "name": "getVotesWithParams",
      "outputs": [
        {
          "internalType": "uint256",
          "name": "",
          "type": "uint256"
        }
      ],
      "stateMutability": "view",
      "type": "function"
    },
    {
      "inputs": [
        {
          "internalType": "uint256",
          "name": "proposalId",
          "type": "uint256"
        },
        {
          "internalType": "address",
          "name": "account",
          "type": "address"
        }
      ],
      "name": "hasVoted",
      "outputs": [
        {
          "internalType": "bool",
          "name": "",
          "type": "bool"
        }
      ],
      "stateMutability": "view",
      "type": "function"
    },
    {
      "inputs": [
        {
          "internalType": "address[]",
          "name": "targets",
          "type": "address[]"
        },
        {
          "internalType": "uint256[]",
          "name": "values",
          "type": "uint256[]"
        },
        {
          "internalType": "bytes[]",
          "name": "calldatas",
          "type": "bytes[]"
        },
        {
          "internalType": "bytes32",
          "name": "descriptionHash",
          "type": "bytes32"
        }
      ],
      "name": "hashProposal",
      "outputs": [
        {
          "internalType": "uint256",
          "name": "",
          "type": "uint256"
        }
      ],
      "stateMutability": "pure",
      "type": "function"
    },
    {
      "inputs": [],
      "name": "name",
      "outputs": [
        {
          "internalType": "string",
          "name": "",
          "type": "string"
        }
      ],
      "stateMutability": "view",
      "type": "function"
    },
    {
      "inputs": [
        {
          "internalType": "address",
          "name": "",
          "type": "address"
        },
        {
          "internalType": "address",
          "name": "",
          "type": "address"
        },
        {
          "internalType": "uint256[]",
          "name": "",
          "type": "uint256[]"
        },
        {
          "internalType": "uint256[]",
          "name": "",
          "type": "uint256[]"
        },
        {
          "internalType": "bytes",
          "name": "",
          "type": "bytes"
        }
      ],
      "name": "onERC1155BatchReceived",
      "outputs": [
        {
          "internalType": "bytes4",
          "name": "",
          "type": "bytes4"
        }
      ],
      "stateMutability": "nonpayable",
      "type": "function"
    },
    {
      "inputs": [
        {
          "internalType": "address",
          "name": "",
          "type": "address"
        },
        {
          "internalType": "address",
          "name": "",
          "type": "address"
        },
        {
          "internalType": "uint256",
          "name": "",
          "type": "uint256"
        },
        {
          "internalType": "uint256",
          "name": "",
          "type": "uint256"
        },
        {
          "internalType": "bytes",
          "name": "",
          "type": "bytes"
        }
      ],
      "name": "onERC1155Received",
      "outputs": [
        {
          "internalType": "bytes4",
          "name": "",
          "type": "bytes4"
        }
      ],
      "stateMutability": "nonpayable",
      "type": "function"
    },
    {
      "inputs": [
        {
          "internalType": "address",
          "name": "",
          "type": "address"
        },
        {
          "internalType": "address",
          "name": "",
          "type": "address"
        },
        {
          "internalType": "uint256",
          "name": "",
          "type": "uint256"
        },
        {
          "internalType": "bytes",
          "name": "",
          "type": "bytes"
        }
      ],
      "name": "onERC721Received",
      "outputs": [
        {
          "internalType": "bytes4",
          "name": "",
          "type": "bytes4"
        }
      ],
      "stateMutability": "nonpayable",
      "type": "function"
    },
    {
      "inputs": [
        {
          "internalType": "uint256",
          "name": "",
          "type": "uint256"
        }
      ],
      "name": "proposalContents",
      "outputs": [
        {
          "internalType": "string",
          "name": "description",
          "type": "string"
        }
      ],
      "stateMutability": "view",
      "type": "function"
    },
    {
      "inputs": [],
      "name": "proposalCount",
      "outputs": [
        {
          "internalType": "uint256",
          "name": "",
          "type": "uint256"
        }
      ],
      "stateMutability": "view",
      "type": "function"
    },
    {
      "inputs": [
        {
          "internalType": "uint256",
          "name": "proposalId",
          "type": "uint256"
        }
      ],
      "name": "proposalDeadline",
      "outputs": [
        {
          "internalType": "uint256",
          "name": "",
          "type": "uint256"
        }
      ],
      "stateMutability": "view",
      "type": "function"
    },
    {
      "inputs": [
        {
          "internalType": "uint256",
          "name": "proposalId",
          "type": "uint256"
        }
      ],
      "name": "proposalEta",
      "outputs": [
        {
          "internalType": "uint256",
          "name": "",
          "type": "uint256"
        }
      ],
      "stateMutability": "view",
      "type": "function"
    },
    {
      "inputs": [
        {
          "internalType": "uint256",
          "name": "",
          "type": "uint256"
        }
      ],
      "name": "proposalIDs",
      "outputs": [
        {
          "internalType": "uint256",
          "name": "",
          "type": "uint256"
        }
      ],
      "stateMutability": "view",
      "type": "function"
    },
    {
      "inputs": [
        {
          "internalType": "uint256",
          "name": "proposalId",
          "type": "uint256"
        }
      ],
      "name": "proposalSnapshot",
      "outputs": [
        {
          "internalType": "uint256",
          "name": "",
          "type": "uint256"
        }
      ],
      "stateMutability": "view",
      "type": "function"
    },
    {
      "inputs": [],
      "name": "proposalThreshold",
      "outputs": [
        {
          "internalType": "uint256",
          "name": "",
          "type": "uint256"
        }
      ],
      "stateMutability": "view",
      "type": "function"
    },
    {
      "inputs": [
        {
          "internalType": "uint256",
          "name": "proposalId",
          "type": "uint256"
        }
      ],
      "name": "proposals",
      "outputs": [
        {
          "internalType": "uint256",
          "name": "id",
          "type": "uint256"
        },
        {
          "internalType": "address",
          "name": "proposer",
          "type": "address"
        },
        {
          "internalType": "uint256",
          "name": "eta",
          "type": "uint256"
        },
        {
          "internalType": "uint256",
          "name": "startBlock",
          "type": "uint256"
        },
        {
          "internalType": "uint256",
          "name": "endBlock",
          "type": "uint256"
        },
        {
          "internalType": "uint256",
          "name": "forVotes",
          "type": "uint256"
        },
        {
          "internalType": "uint256",
          "name": "againstVotes",
          "type": "uint256"
        },
        {
          "internalType": "uint256",
          "name": "abstainVotes",
          "type": "uint256"
        },
        {
          "internalType": "bool",
          "name": "canceled",
          "type": "bool"
        },
        {
          "internalType": "bool",
          "name": "executed",
          "type": "bool"
        }
      ],
      "stateMutability": "view",
      "type": "function"
    },
    {
      "inputs": [
        {
          "internalType": "address[]",
          "name": "targets",
          "type": "address[]"
        },
        {
          "internalType": "uint256[]",
          "name": "values",
          "type": "uint256[]"
        },
        {
          "internalType": "bytes[]",
          "name": "calldatas",
          "type": "bytes[]"
        },
        {
          "internalType": "string",
          "name": "description",
          "type": "string"
        }
      ],
      "name": "propose",
      "outputs": [
        {
          "internalType": "uint256",
          "name": "",
          "type": "uint256"
        }
      ],
      "stateMutability": "nonpayable",
      "type": "function"
    },
    {
      "inputs": [
        {
          "internalType": "address[]",
          "name": "targets",
          "type": "address[]"
        },
        {
          "internalType": "uint256[]",
          "name": "values",
          "type": "uint256[]"
        },
        {
          "internalType": "string[]",
          "name": "signatures",
          "type": "string[]"
        },
        {
          "internalType": "bytes[]",
          "name": "calldatas",
          "type": "bytes[]"
        },
        {
          "internalType": "string",
          "name": "description",
          "type": "string"
        }
      ],
      "name": "propose",
      "outputs": [
        {
          "internalType": "uint256",
          "name": "",
          "type": "uint256"
        }
      ],
      "stateMutability": "nonpayable",
      "type": "function"
    },
    {
      "inputs": [
        {
          "internalType": "address[]",
          "name": "targets",
          "type": "address[]"
        },
        {
          "internalType": "uint256[]",
          "name": "values",
          "type": "uint256[]"
        },
        {
          "internalType": "bytes[]",
          "name": "calldatas",
          "type": "bytes[]"
        },
        {
          "internalType": "bytes32",
          "name": "descriptionHash",
          "type": "bytes32"
        }
      ],
      "name": "queue",
      "outputs": [
        {
          "internalType": "uint256",
          "name": "",
          "type": "uint256"
        }
      ],
      "stateMutability": "nonpayable",
      "type": "function"
    },
    {
      "inputs": [
        {
          "internalType": "uint256",
          "name": "proposalId",
          "type": "uint256"
        }
      ],
      "name": "queue",
      "outputs": [],
      "stateMutability": "nonpayable",
      "type": "function"
    },
    {
      "inputs": [
        {
          "internalType": "uint256",
          "name": "blockNumber",
          "type": "uint256"
        }
      ],
      "name": "quorum",
      "outputs": [
        {
          "internalType": "uint256",
          "name": "",
          "type": "uint256"
        }
      ],
      "stateMutability": "view",
      "type": "function"
    },
    {
      "inputs": [],
      "name": "quorumDenominator",
      "outputs": [
        {
          "internalType": "uint256",
          "name": "",
          "type": "uint256"
        }
      ],
      "stateMutability": "view",
      "type": "function"
    },
    {
      "inputs": [
        {
          "internalType": "uint256",
          "name": "blockNumber",
          "type": "uint256"
        }
      ],
      "name": "quorumNumerator",
      "outputs": [
        {
          "internalType": "uint256",
          "name": "",
          "type": "uint256"
        }
      ],
      "stateMutability": "view",
      "type": "function"
    },
    {
      "inputs": [],
      "name": "quorumNumerator",
      "outputs": [
        {
          "internalType": "uint256",
          "name": "",
          "type": "uint256"
        }
      ],
      "stateMutability": "view",
      "type": "function"
    },
    {
      "inputs": [],
      "name": "quorumVotes",
      "outputs": [
        {
          "internalType": "uint256",
          "name": "",
          "type": "uint256"
        }
      ],
      "stateMutability": "view",
      "type": "function"
    },
    {
      "inputs": [
        {
          "internalType": "address",
          "name": "target",
          "type": "address"
        },
        {
          "internalType": "uint256",
          "name": "value",
          "type": "uint256"
        },
        {
          "internalType": "bytes",
          "name": "data",
          "type": "bytes"
        }
      ],
      "name": "relay",
      "outputs": [],
      "stateMutability": "payable",
      "type": "function"
    },
    {
      "inputs": [
        {
          "internalType": "uint256",
          "name": "proposalId",
          "type": "uint256"
        }
      ],
      "name": "state",
      "outputs": [
        {
          "internalType": "enum IGovernor.ProposalState",
          "name": "",
          "type": "uint8"
        }
      ],
      "stateMutability": "view",
      "type": "function"
    },
    {
      "inputs": [
        {
          "internalType": "bytes4",
          "name": "interfaceId",
          "type": "bytes4"
        }
      ],
      "name": "supportsInterface",
      "outputs": [
        {
          "internalType": "bool",
          "name": "",
          "type": "bool"
        }
      ],
      "stateMutability": "view",
      "type": "function"
    },
    {
      "inputs": [],
      "name": "timelock",
      "outputs": [
        {
          "internalType": "address",
          "name": "",
          "type": "address"
        }
      ],
      "stateMutability": "view",
      "type": "function"
    },
    {
      "inputs": [],
      "name": "token",
      "outputs": [
        {
          "internalType": "contract IVotes",
          "name": "",
          "type": "address"
        }
      ],
      "stateMutability": "view",
      "type": "function"
    },
    {
      "inputs": [
        {
          "internalType": "uint256",
          "name": "newQuorumNumerator",
          "type": "uint256"
        }
      ],
      "name": "updateQuorumNumerator",
      "outputs": [],
      "stateMutability": "nonpayable",
      "type": "function"
    },
    {
      "inputs": [
        {
          "internalType": "contract TimelockController",
          "name": "newTimelock",
          "type": "address"
        }
      ],
      "name": "updateTimelock",
      "outputs": [],
      "stateMutability": "nonpayable",
      "type": "function"
    },
    {
      "inputs": [],
      "name": "version",
      "outputs": [
        {
          "internalType": "string",
          "name": "",
          "type": "string"
        }
      ],
      "stateMutability": "view",
      "type": "function"
    },
    {
      "inputs": [],
      "name": "votingDelay",
      "outputs": [
        {
          "internalType": "uint256",
          "name": "",
          "type": "uint256"
        }
      ],
      "stateMutability": "view",
      "type": "function"
    },
    {
      "inputs": [],
      "name": "votingPeriod",
      "outputs": [
        {
          "internalType": "uint256",
          "name": "",
          "type": "uint256"
        }
      ],
      "stateMutability": "view",
      "type": "function"
    },
    {
      "stateMutability": "payable",
      "type": "receive"
    }
  ],
  "bytecode": "0x6101606040526000600c553480156200001757600080fd5b5060405162005bd738038062005bd78339810160408190526200003a91620006b3565b84848789806200005e6040805180820190915260018152603160f81b602082015290565b815160209283012081519183019190912060e08290526101008190524660a0818152604080517f8b73c3c69bb8fe3d512ecc4cf759cc79239f7b179b0ffacaa9a75d522b39400f818801819052818301969096526060810194909452608080850193909352308483018190528151808603909301835260c094850190915281519190950120905291909152610120526000620000fb828262000863565b50506001600160a01b031661014052620001158162000139565b506200012181620002b5565b50600992909255600a55600b55506200095792505050565b6064811115620001c25760405162461bcd60e51b815260206004820152604360248201527f476f7665726e6f72566f74657351756f72756d4672616374696f6e3a2071756f60448201527f72756d4e756d657261746f72206f7665722071756f72756d44656e6f6d696e616064820152623a37b960e91b608482015260a4015b60405180910390fd5b6000620001ce6200031e565b90508015801590620001e05750600654155b156200025b5760066000016040518060400160405280600063ffffffff16815260200162000219846200035660201b620024c41760201c565b6001600160e01b0390811690915282546001810184556000938452602093849020835194909301519091166401000000000263ffffffff909316929092179101555b62000276826006620003c560201b620025311790919060201c565b505060408051828152602081018490527f0553476bf02ef2726e8ce5ced78d63e26e602e4a2257b1f559418e24b4633997910160405180910390a15050565b600754604080516001600160a01b03928316815291831660208301527f08f74ea46ef7894f65eabfb5e6e695de773a000b47c529ab559178069b226401910160405180910390a1600780546001600160a01b0319166001600160a01b0392909216919091179055565b600654600090156200034f576200034160066200041860201b620025671760201c565b6001600160e01b0316905090565b5060055490565b60006001600160e01b03821115620003c15760405162461bcd60e51b815260206004820152602760248201527f53616665436173743a2076616c756520646f65736e27742066697420696e20326044820152663234206269747360c81b6064820152608401620001b9565b5090565b6000806200040284600001620003e6436200046660201b620025a51760201c565b620003fc866200035660201b620024c41760201c565b620004cd565b6001600160e01b03918216969116945092505050565b805460009080156200045c576200044483620004366001846200092f565b600091825260209091200190565b5464010000000090046001600160e01b03166200045f565b60005b9392505050565b600063ffffffff821115620003c15760405162461bcd60e51b815260206004820152602660248201527f53616665436173743a2076616c756520646f65736e27742066697420696e203360448201526532206269747360d01b6064820152608401620001b9565b82546000908190801562000622576000620004ef87620004366001856200092f565b60408051808201909152905463ffffffff8082168084526401000000009092046001600160e01b031660208401529192509087161015620005735760405162461bcd60e51b815260206004820152601760248201527f436865636b706f696e743a20696e76616c6964206b65790000000000000000006044820152606401620001b9565b805163ffffffff808816911603620005c157846200059888620004366001866200092f565b80546001600160e01b03929092166401000000000263ffffffff90921691909117905562000611565b6040805180820190915263ffffffff80881682526001600160e01b0380881660208085019182528b54600181018d5560008d81529190912094519151909216640100000000029216919091179101555b602001519250839150620006789050565b50506040805180820190915263ffffffff80851682526001600160e01b0380851660208085019182528854600181018a5560008a8152918220955192519093166401000000000291909316179201919091559050815b935093915050565b634e487b7160e01b600052604160045260246000fd5b80516001600160a01b0381168114620006ae57600080fd5b919050565b600080600080600080600060e0888a031215620006cf57600080fd5b87516001600160401b0380821115620006e757600080fd5b818a0191508a601f830112620006fc57600080fd5b81518181111562000711576200071162000680565b604051601f8201601f19908116603f011681019083821181831017156200073c576200073c62000680565b81604052828152602093508d848487010111156200075957600080fd5b600091505b828210156200077d57848201840151818301850152908301906200075e565b6000848483010152809b5050505062000798818b0162000696565b97505050620007aa6040890162000696565b9450606088015193506080880151925060a0880151915060c0880151905092959891949750929550565b600181811c90821680620007e957607f821691505b6020821081036200080a57634e487b7160e01b600052602260045260246000fd5b50919050565b601f8211156200085e57600081815260208120601f850160051c81016020861015620008395750805b601f850160051c820191505b818110156200085a5782815560010162000845565b5050505b505050565b81516001600160401b038111156200087f576200087f62000680565b6200089781620008908454620007d4565b8462000810565b602080601f831160018114620008cf5760008415620008b65750858301515b600019600386901b1c1916600185901b1785556200085a565b600085815260208120601f198616915b828110156200090057888601518255948401946001909101908401620008df565b50858210156200091f5787850151600019600388901b60f8161c191681555b5050505050600190811b01905550565b818103818111156200095157634e487b7160e01b600052601160045260246000fd5b92915050565b60805160a05160c05160e051610100516101205161014051615217620009c060003960008181610a90015281816121cf0152612eac015260006132f00152600061333f0152600061331a015260006132730152600061329d015260006132c701526152176000f3fe6080604052600436106102b25760003560e01c80637b3c71d311610175578063c59057e4116100dc578063deaaa7cc11610095578063f23a6e611161006f578063f23a6e6114610a32578063f8ce560a14610a5e578063fc0c546a14610a7e578063fe0d94c114610ab257600080fd5b8063deaaa7cc14610914578063e23a9a5214610948578063eb9019d414610a1257600080fd5b8063c59057e414610826578063d33219b414610846578063da35c66414610878578063da95691a1461088e578063dd4e2ba5146108ae578063ddf0b009146108f457600080fd5b8063a890c9101161012e578063a890c91014610772578063ab58fb8e14610792578063b58131b0146107b2578063bc197c81146107c7578063c01f9e37146107f3578063c28bc2fa1461081357600080fd5b80637b3c71d3146106bc5780637d5e81e2146106dc57806397c3d334146106fc5780639a802a6d14610710578063a007b19714610730578063a7713a701461075d57600080fd5b80632fe3e2611161021957806343859632116101d257806343859632146105c85780634ed270341461061257806354fd4d5014610632578063567813881461065c5780635f398a141461067c57806360c4247f1461069c57600080fd5b80632fe3e261146104e2578063328dd982146105165780633932abb1146105465780633bccf4fd1461055b5780633e4f49e61461057b57806340e58ee5146105a857600080fd5b8063150b7a021161026b578063150b7a0214610406578063160cbed71461044a5780631de20bcf1461046a57806324bc1a641461049a5780632656227d146104af5780632d63f693146104c257600080fd5b8063013cf08b146102da57806301ffc9a71461035557806302a251a31461038557806303420181146103a457806306f3f9e6146103c457806306fdde03146103e457600080fd5b366102d557306102c0610ac5565b6001600160a01b0316146102d357600080fd5b005b600080fd5b3480156102e657600080fd5b506102fa6102f53660046140da565b610ade565b604080519a8b526001600160a01b0390991660208b0152978901969096526060880194909452608087019290925260a086015260c085015260e084015215156101008301521515610120820152610140015b60405180910390f35b34801561036157600080fd5b506103756103703660046140f3565b610b87565b604051901515815260200161034c565b34801561039157600080fd5b50600a545b60405190815260200161034c565b3480156103b057600080fd5b506103966103bf366004614229565b610b98565b3480156103d057600080fd5b506102d36103df3660046140da565b610c90565b3480156103f057600080fd5b506103f9610d23565b60405161034c919061431f565b34801561041257600080fd5b50610431610421366004614347565b630a85bd0160e11b949350505050565b6040516001600160e01b0319909116815260200161034c565b34801561045657600080fd5b50610396610465366004614523565b610db5565b34801561047657600080fd5b5061048a6104853660046140da565b610fb6565b60405161034c949392919061467b565b3480156104a657600080fd5b506103966111f7565b6103966104bd366004614523565b611207565b3480156104ce57600080fd5b506103966104dd3660046140da565b6112f4565b3480156104ee57600080fd5b506103967fb3b3f3b703cd84ce352197dcff232b1b5d3cfb2025ce47cf04742d0651f1af8881565b34801561052257600080fd5b506105366105313660046140da565b61132b565b60405161034c94939291906146c8565b34801561055257600080fd5b50600954610396565b34801561056757600080fd5b50610396610576366004614715565b6115bc565b34801561058757600080fd5b5061059b6105963660046140da565b611632565b60405161034c9190614779565b3480156105b457600080fd5b506102d36105c33660046140da565b61163d565b3480156105d457600080fd5b506103756105e33660046147a1565b60008281526004602090815260408083206001600160a01b038516845260080190915290205460ff1692915050565b34801561061e57600080fd5b506103f961062d3660046140da565b611950565b34801561063e57600080fd5b506040805180820190915260018152603160f81b60208201526103f9565b34801561066857600080fd5b506103966106773660046147d1565b6119f0565b34801561068857600080fd5b506103966106973660046147fd565b611a19565b3480156106a857600080fd5b506103966106b73660046140da565b611a63565b3480156106c857600080fd5b506103966106d7366004614880565b611afa565b3480156106e857600080fd5b506103966106f73660046148d9565b611b4c565b34801561070857600080fd5b506064610396565b34801561071c57600080fd5b5061039661072b366004614979565b611c1e565b34801561073c57600080fd5b5061039661074b3660046140da565b600d6020526000908152604090205481565b34801561076957600080fd5b50610396611c35565b34801561077e57600080fd5b506102d361078d3660046149d1565b611c5f565b34801561079e57600080fd5b506103966107ad3660046140da565b611ce6565b3480156107be57600080fd5b50600b54610396565b3480156107d357600080fd5b506104316107e23660046149ee565b63bc197c8160e01b95945050505050565b3480156107ff57600080fd5b5061039661080e3660046140da565b611d80565b6102d3610821366004614a81565b611daf565b34801561083257600080fd5b50610396610841366004614523565b611ebe565b34801561085257600080fd5b506007546001600160a01b03165b6040516001600160a01b03909116815260200161034c565b34801561088457600080fd5b50610396600c5481565b34801561089a57600080fd5b506103966108a9366004614b43565b611ef8565b3480156108ba57600080fd5b5060408051808201909152601a81527f737570706f72743d627261766f2671756f72756d3d627261766f00000000000060208201526103f9565b34801561090057600080fd5b506102d361090f3660046140da565b611f1d565b34801561092057600080fd5b506103967f150214d74d59b7d1e90c73fc22ef3d991dd0a76b046543d4d80ab92d2a50328f81565b34801561095457600080fd5b506109e26109633660046147a1565b60408051606081018252600080825260208201819052918101919091525060009182526004602090815260408084206001600160a01b0393909316845260089092018152918190208151606081018352905460ff8082161515835261010082041693820193909352620100009092046001600160601b03169082015290565b6040805182511515815260208084015160ff1690820152918101516001600160601b03169082015260600161034c565b348015610a1e57600080fd5b50610396610a2d366004614be4565b61218b565b348015610a3e57600080fd5b50610431610a4d366004614c10565b63f23a6e6160e01b95945050505050565b348015610a6a57600080fd5b50610396610a793660046140da565b6121ac565b348015610a8a57600080fd5b506108607f000000000000000000000000000000000000000000000000000000000000000081565b6102d3610ac03660046140da565b612256565b6000610ad96007546001600160a01b031690565b905090565b8060008080808080808080610af28a611ce6565b9750610afd8b6112f4565b9650610b088b611d80565b60008c815260046020526040812080546005820154600683015460078401546001600160a01b039093169e50949a509850929650919450610b488d611632565b90506002816007811115610b5e57610b5e614763565b1493506007816007811115610b7557610b75614763565b14925050509193959799509193959799565b6000610b928261260a565b92915050565b600080610c3c610c347fb3b3f3b703cd84ce352197dcff232b1b5d3cfb2025ce47cf04742d0651f1af888c8c8c8c604051610bd4929190614c78565b60405180910390208b80519060200120604051602001610c19959493929190948552602085019390935260ff9190911660408401526060830152608082015260a00190565b6040516020818303038152906040528051906020012061262f565b86868661267d565b9050610c828a828b8b8b8080601f0160208091040260200160405190810160405280939291908181526020018383808284376000920191909152508d925061269b915050565b9a9950505050505050505050565b610c98610ac5565b6001600160a01b0316336001600160a01b031614610cd15760405162461bcd60e51b8152600401610cc890614c88565b60405180910390fd5b30610cda610ac5565b6001600160a01b031614610d175760008036604051610cfa929190614c78565b604051809103902090505b80610d106002612800565b03610d0557505b610d208161287f565b50565b606060008054610d3290614cbf565b80601f0160208091040260200160405190810160405280929190818152602001828054610d5e90614cbf565b8015610dab5780601f10610d8057610100808354040283529160200191610dab565b820191906000526020600020905b815481529060010190602001808311610d8e57829003601f168201915b5050505050905090565b600080610dc486868686611ebe565b90506004610dd182611632565b6007811115610de257610de2614763565b14610dff5760405162461bcd60e51b8152600401610cc890614cf9565b6007546040805163793d064960e11b815290516000926001600160a01b03169163f27a0c929160048083019260209291908290030181865afa158015610e49573d6000803e3d6000fd5b505050506040513d601f19601f82011682018060405250810190610e6d9190614d3a565b60075460405163b1c5f42760e01b81529192506001600160a01b03169063b1c5f42790610ea7908a908a908a906000908b90600401614d53565b602060405180830381865afa158015610ec4573d6000803e3d6000fd5b505050506040513d601f19601f82011682018060405250810190610ee89190614d3a565b6000838152600860205260408082209290925560075491516308f2a0bb60e41b81526001600160a01b0390921691638f2a0bb091610f33918b918b918b91908b908990600401614da1565b600060405180830381600087803b158015610f4d57600080fd5b505af1158015610f61573d6000803e3d6000fd5b505050507f9a2e42fd6722813d69113e7d0079d3d940171428df7373df9c7f7617cfda2892828242610f939190614e0f565b604080519283526020830191909152015b60405180910390a15095945050505050565b6000818152600e6020908152604091829020805483518184028101840190945280845260609384938493849390926001840192600285019260038601929186919083018282801561103057602002820191906000526020600020905b81546001600160a01b03168152600190910190602001808311611012575b505050505093508280548060200260200160405190810160405280929190818152602001828054801561108257602002820191906000526020600020905b81548152602001906001019080831161106e575b5050505050925081805480602002602001604051908101604052809291908181526020016000905b828210156111565783829060005260206000200180546110c990614cbf565b80601f01602080910402602001604051908101604052809291908181526020018280546110f590614cbf565b80156111425780601f1061111757610100808354040283529160200191611142565b820191906000526020600020905b81548152906001019060200180831161112557829003601f168201915b5050505050815260200190600101906110aa565b50505050915080805461116890614cbf565b80601f016020809104026020016040519081016040528092919081815260200182805461119490614cbf565b80156111e15780601f106111b6576101008083540402835291602001916111e1565b820191906000526020600020905b8154815290600101906020018083116111c457829003601f168201915b5050505050905093509350935093509193509193565b6000610ad9610a79600143614e22565b60008061121686868686611ebe565b9050600061122382611632565b9050600481600781111561123957611239614763565b14806112565750600581600781111561125457611254614763565b145b6112725760405162461bcd60e51b8152600401610cc890614cf9565b600082815260016020818152604092839020600201805460ff191690921790915590518381527f712ae1383f79ac853f8d882153778e0260ef8f03b504e2866e0593e04d2b291f910160405180910390a16112d082888888886129cb565b6112dd8288888888612a6d565b6112ea8288888888612a7a565b5095945050505050565b60008181526001602090815260408083208151928301909152546001600160401b0316908190525b6001600160401b031692915050565b606080606080600060046000878152602001908152602001600020905080600101816002018260030183600401838054806020026020016040519081016040528092919081815260200182805480156113ad57602002820191906000526020600020905b81546001600160a01b0316815260019091019060200180831161138f575b50505050509350828054806020026020016040519081016040528092919081815260200182805480156113ff57602002820191906000526020600020905b8154815260200190600101908083116113eb575b5050505050925081805480602002602001604051908101604052809291908181526020016000905b828210156114d357838290600052602060002001805461144690614cbf565b80601f016020809104026020016040519081016040528092919081815260200182805461147290614cbf565b80156114bf5780601f10611494576101008083540402835291602001916114bf565b820191906000526020600020905b8154815290600101906020018083116114a257829003601f168201915b505050505081526020019060010190611427565b50505050915080805480602002602001604051908101604052809291908181526020016000905b828210156115a657838290600052602060002001805461151990614cbf565b80601f016020809104026020016040519081016040528092919081815260200182805461154590614cbf565b80156115925780601f1061156757610100808354040283529160200191611592565b820191906000526020600020905b81548152906001019060200180831161157557829003601f168201915b5050505050815260200190600101906114fa565b5050505090509450945094509450509193509193565b604080517f150214d74d59b7d1e90c73fc22ef3d991dd0a76b046543d4d80ab92d2a50328f602082015290810186905260ff85166060820152600090819061160a90610c3490608001610c19565b905061162787828860405180602001604052806000815250612ab3565b979650505050505050565b6000610b9282612adf565b600081815260046020526040902080546001600160a01b0316336001600160a01b031614806116865750600b548154611684906001600160a01b0316610a2d600143614e22565b105b6116e25760405162461bcd60e51b815260206004820152602760248201527f476f7665726e6f72427261766f3a2070726f706f7365722061626f76652074686044820152661c995cda1bdb1960ca1b6064820152608401610cc8565b61194b8160010180548060200260200160405190810160405280929190818152602001828054801561173d57602002820191906000526020600020905b81546001600160a01b0316815260019091019060200180831161171f575b50505050508260020180548060200260200160405190810160405280929190818152602001828054801561179057602002820191906000526020600020905b81548152602001906001019080831161177c575b505050505061194184600301805480602002602001604051908101604052809291908181526020016000905b828210156118685783829060005260206000200180546117db90614cbf565b80601f016020809104026020016040519081016040528092919081815260200182805461180790614cbf565b80156118545780601f1061182957610100808354040283529160200191611854565b820191906000526020600020905b81548152906001019060200180831161183757829003601f168201915b5050505050815260200190600101906117bc565b50505060048701805460408051602080840282018101909252828152935060009084015b828210156119385783829060005260206000200180546118ab90614cbf565b80601f01602080910402602001604051908101604052809291908181526020018280546118d790614cbf565b80156119245780601f106118f957610100808354040283529160200191611924565b820191906000526020600020905b81548152906001019060200180831161190757829003601f168201915b50505050508152602001906001019061188c565b50505050612c29565b8460090154612d5b565b505050565b600e60205260009081526040902060038101805461196d90614cbf565b80601f016020809104026020016040519081016040528092919081815260200182805461199990614cbf565b80156119e65780601f106119bb576101008083540402835291602001916119e6565b820191906000526020600020905b8154815290600101906020018083116119c957829003601f168201915b5050505050905081565b600080339050611a1184828560405180602001604052806000815250612ab3565b949350505050565b60008033905061162787828888888080601f0160208091040260200160405190810160405280939291908181526020018383808284376000920191909152508a925061269b915050565b600654600090808203611a7a575050600554919050565b60006006611a89600184614e22565b81548110611a9957611a99614e35565b60009182526020918290206040805180820190915291015463ffffffff8116808352600160201b9091046001600160e01b03169282019290925291508410611aef57602001516001600160e01b03169392505050565b611a11600685612d69565b600080339050611b4286828787878080601f016020809104026020016040519081016040528093929190818152602001838380828437600092019190915250612ab392505050565b9695505050505050565b600080611b5b86868686612e1b565b600c546000908152600d6020908152604080832084905580516080810182528a81528083018a905280820189905260608101889052848452600e835292208251805194955092939092611bb2928492910190613f11565b506020828101518051611bcb9260018501920190613f72565b5060408201518051611be7916002840191602090910190613fad565b5060608201516003820190611bfc9082614e91565b5050600c805491506000611c0f83614f50565b90915550909695505050505050565b6000611c2b848484612e83565b90505b9392505050565b60065460009015611c5857611c4a6006612567565b6001600160e01b0316905090565b5060055490565b611c67610ac5565b6001600160a01b0316336001600160a01b031614611c975760405162461bcd60e51b8152600401610cc890614c88565b30611ca0610ac5565b6001600160a01b031614611cdd5760008036604051611cc0929190614c78565b604051809103902090505b80611cd66002612800565b03611ccb57505b610d2081612f19565b60075460008281526008602052604080822054905163d45c443560e01b81526004810191909152909182916001600160a01b039091169063d45c443590602401602060405180830381865afa158015611d43573d6000803e3d6000fd5b505050506040513d601f19601f82011682018060405250810190611d679190614d3a565b905080600114611d775780611c2e565b60009392505050565b60008181526001602081815260408084208151928301909152909101546001600160401b03169081905261131c565b611db7610ac5565b6001600160a01b0316336001600160a01b031614611de75760405162461bcd60e51b8152600401610cc890614c88565b30611df0610ac5565b6001600160a01b031614611e2d5760008036604051611e10929190614c78565b604051809103902090505b80611e266002612800565b03611e1b57505b600080856001600160a01b0316858585604051611e4b929190614c78565b60006040518083038185875af1925050503d8060008114611e88576040519150601f19603f3d011682016040523d82523d6000602084013e611e8d565b606091505b5091509150611eb582826040518060600160405280602881526020016151ba60289139612f82565b50505050505050565b600084848484604051602001611ed79493929190614f69565b60408051601f19818403018152919052805160209091012095945050505050565b6000611f08338787878787612f9b565b611b428686611f178787612c29565b85611b4c565b600081815260046020908152604091829020600181018054845181850281018501909552808552919361194b93909290830182828015611f8657602002820191906000526020600020905b81546001600160a01b03168152600190910190602001808311611f68575b505050505082600201805480602002602001604051908101604052809291908181526020018280548015611fd957602002820191906000526020600020905b815481526020019060010190808311611fc5575b505050505061218184600301805480602002602001604051908101604052809291908181526020016000905b828210156120b157838290600052602060002001805461202490614cbf565b80601f016020809104026020016040519081016040528092919081815260200182805461205090614cbf565b801561209d5780601f106120725761010080835404028352916020019161209d565b820191906000526020600020905b81548152906001019060200180831161208057829003601f168201915b505050505081526020019060010190612005565b50505060048701805460408051602080840282018101909252828152935060009084015b828210156119385783829060005260206000200180546120f490614cbf565b80601f016020809104026020016040519081016040528092919081815260200182805461212090614cbf565b801561216d5780601f106121425761010080835404028352916020019161216d565b820191906000526020600020905b81548152906001019060200180831161215057829003601f168201915b5050505050815260200190600101906120d5565b8460090154610db5565b6000611c2e83836121a760408051602081019091526000815290565b612e83565b600060646121b983611a63565b604051632394e7a360e21b8152600481018590527f00000000000000000000000000000000000000000000000000000000000000006001600160a01b031690638e539e8c90602401602060405180830381865afa15801561221e573d6000803e3d6000fd5b505050506040513d601f19601f820116820180604052508101906122429190614d3a565b61224c9190614fb4565b610b929190614fcb565b600081815260046020908152604091829020600181018054845181850281018501909552808552919361194b939092908301828280156122bf57602002820191906000526020600020905b81546001600160a01b031681526001909101906020018083116122a1575b50505050508260020180548060200260200160405190810160405280929190818152602001828054801561231257602002820191906000526020600020905b8154815260200190600101908083116122fe575b50505050506124ba84600301805480602002602001604051908101604052809291908181526020016000905b828210156123ea57838290600052602060002001805461235d90614cbf565b80601f016020809104026020016040519081016040528092919081815260200182805461238990614cbf565b80156123d65780601f106123ab576101008083540402835291602001916123d6565b820191906000526020600020905b8154815290600101906020018083116123b957829003601f168201915b50505050508152602001906001019061233e565b50505060048701805460408051602080840282018101909252828152935060009084015b8282101561193857838290600052602060002001805461242d90614cbf565b80601f016020809104026020016040519081016040528092919081815260200182805461245990614cbf565b80156124a65780601f1061247b576101008083540402835291602001916124a6565b820191906000526020600020905b81548152906001019060200180831161248957829003601f168201915b50505050508152602001906001019061240e565b8460090154611207565b60006001600160e01b0382111561252d5760405162461bcd60e51b815260206004820152602760248201527f53616665436173743a2076616c756520646f65736e27742066697420696e20326044820152663234206269747360c81b6064820152608401610cc8565b5090565b60008061254f84612541436125a5565b61254a866124c4565b613058565b6001600160e01b0391821693501690505b9250929050565b80546000908015611d775761258f83612581600184614e22565b600091825260209091200190565b54600160201b90046001600160e01b0316611c2e565b600063ffffffff82111561252d5760405162461bcd60e51b815260206004820152602660248201527f53616665436173743a2076616c756520646f65736e27742066697420696e203360448201526532206269747360d01b6064820152608401610cc8565b60006001600160e01b03198216636e665ced60e01b1480610b925750610b92826131fb565b6000610b9261263c613266565b8360405161190160f01b6020820152602281018390526042810182905260009060620160405160208183030381529060405280519060200120905092915050565b600080600061268e8787878761338d565b915091506112ea81613451565b60008581526001602081905260408220906126b588611632565b60078111156126c6576126c6614763565b1461271f5760405162461bcd60e51b815260206004820152602360248201527f476f7665726e6f723a20766f7465206e6f742063757272656e746c792061637460448201526269766560e81b6064820152608401610cc8565b604080516020810190915281546001600160401b03169081905260009061274890889086612e83565b9050612757888888848861359b565b83516000036127ac57866001600160a01b03167fb8e138887d0aa13bab447e82de9d5c1777041ecd21ca36ba824ff1e6c07ddda48988848960405161279f9493929190614fed565b60405180910390a2611627565b866001600160a01b03167fe2babfbac5889a709b63bb7f598b324e08bc5a4fb9ec647fb3cbc9ec07eb871289888489896040516127ed959493929190615015565b60405180910390a2979650505050505050565b600061281b8254600f81810b600160801b909204900b131590565b1561283957604051631ed9509560e11b815260040160405180910390fd5b508054600f0b6000818152600180840160205260408220805492905583546fffffffffffffffffffffffffffffffff191692016001600160801b03169190911790915590565b60648111156129025760405162461bcd60e51b815260206004820152604360248201527f476f7665726e6f72566f74657351756f72756d4672616374696f6e3a2071756f60448201527f72756d4e756d657261746f72206f7665722071756f72756d44656e6f6d696e616064820152623a37b960e91b608482015260a401610cc8565b600061290c611c35565b9050801580159061291d5750600654155b1561298157604080518082019091526000815260069060208101612940846124c4565b6001600160e01b039081169091528254600181018455600093845260209384902083519490930151909116600160201b0263ffffffff909316929092179101555b61298c600683612531565b505060408051828152602081018490527f0553476bf02ef2726e8ce5ced78d63e26e602e4a2257b1f559418e24b4633997910160405180910390a15050565b306129d4610ac5565b6001600160a01b031614612a665760005b8451811015612a6457306001600160a01b0316858281518110612a0a57612a0a614e35565b60200260200101516001600160a01b031603612a5457612a54838281518110612a3557612a35614e35565b602002602001015180519060200120600261373890919063ffffffff16565b612a5d81614f50565b90506129e5565b505b5050505050565b612a668585858585613774565b30612a83610ac5565b6001600160a01b031614612a6657600254600f81810b600160801b909204900b1315612a66576000600255612a66565b6000612ad685858585612ad160408051602081019091526000815290565b61269b565b95945050505050565b600080612aeb836137e8565b90506004816007811115612b0157612b01614763565b14612b0c5792915050565b60008381526008602052604090205480612b27575092915050565b600754604051632ab0f52960e01b8152600481018390526001600160a01b0390911690632ab0f52990602401602060405180830381865afa158015612b70573d6000803e3d6000fd5b505050506040513d601f19601f82011682018060405250810190612b94919061505b565b15612ba3575060079392505050565b600754604051632c258a9f60e11b8152600481018390526001600160a01b039091169063584b153e90602401602060405180830381865afa158015612bec573d6000803e3d6000fd5b505050506040513d601f19601f82011682018060405250810190612c10919061505b565b15612c1f575060059392505050565b5060029392505050565b6060600082516001600160401b03811115612c4657612c46614174565b604051908082528060200260200182016040528015612c7957816020015b6060815260200190600190039081612c645790505b50905060005b8451811015612d5357848181518110612c9a57612c9a614e35565b602002602001015151600014612d0a57848181518110612cbc57612cbc614e35565b602002602001015180519060200120848281518110612cdd57612cdd614e35565b6020026020010151604051602001612cf692919061507d565b604051602081830303815290604052612d25565b838181518110612d1c57612d1c614e35565b60200260200101515b828281518110612d3757612d37614e35565b602002602001018190525080612d4c90614f50565b9050612c7f565b509392505050565b6000612ad6858585856138fa565b6000438210612dba5760405162461bcd60e51b815260206004820181905260248201527f436865636b706f696e74733a20626c6f636b206e6f7420796574206d696e65646044820152606401610cc8565b6000612dc5836125a5565b84549091506000612dd8868483856139ac565b90508015612e0557612def86612581600184614e22565b54600160201b90046001600160e01b0316612e08565b60005b6001600160e01b03169695505050505050565b6000612e7733868686516001600160401b03811115612e3c57612e3c614174565b604051908082528060200260200182016040528015612e6f57816020015b6060815260200190600190039081612e5a5790505b508787612f9b565b612ad685858585613a02565b604051630748d63560e31b81526001600160a01b038481166004830152602482018490526000917f000000000000000000000000000000000000000000000000000000000000000090911690633a46b1a890604401602060405180830381865afa158015612ef5573d6000803e3d6000fd5b505050506040513d601f19601f82011682018060405250810190611c2b9190614d3a565b600754604080516001600160a01b03928316815291831660208301527f08f74ea46ef7894f65eabfb5e6e695de773a000b47c529ab559178069b226401910160405180910390a1600780546001600160a01b0319166001600160a01b0392909216919091179055565b60608315612f91575081611c2e565b611c2e8383613cc8565b805160208201206000612fb98787612fb38888612c29565b85611ebe565b600081815260046020526040902060098101549192509061304d5780546001600160a01b0319166001600160a01b038a16178155875161300290600183019060208b0190613f11565b50865161301890600283019060208a0190613f72565b50855161302e9060038301906020890190613fff565b5084516130449060048301906020880190613fad565b50600981018390555b505050505050505050565b82546000908190801561319e57600061307687612581600185614e22565b60408051808201909152905463ffffffff808216808452600160201b9092046001600160e01b0316602084015291925090871610156130f75760405162461bcd60e51b815260206004820152601760248201527f436865636b706f696e743a20696e76616c6964206b65790000000000000000006044820152606401610cc8565b805163ffffffff80881691160361313f578461311888612581600186614e22565b80546001600160e01b0392909216600160201b0263ffffffff90921691909117905561318e565b6040805180820190915263ffffffff80881682526001600160e01b0380881660208085019182528b54600181018d5560008d81529190912094519151909216600160201b029216919091179101555b6020015192508391506131f39050565b50506040805180820190915263ffffffff80851682526001600160e01b0380851660208085019182528854600181018a5560008a815291822095519251909316600160201b0291909316179201919091559050815b935093915050565b60006001600160e01b0319821663bf26d89760e01b148061322c57506001600160e01b031982166379dd796f60e01b145b8061324757506001600160e01b03198216630271189760e51b145b80610b9257506301ffc9a760e01b6001600160e01b0319831614610b92565b6000306001600160a01b037f0000000000000000000000000000000000000000000000000000000000000000161480156132bf57507f000000000000000000000000000000000000000000000000000000000000000046145b156132e957507f000000000000000000000000000000000000000000000000000000000000000090565b50604080517f00000000000000000000000000000000000000000000000000000000000000006020808301919091527f0000000000000000000000000000000000000000000000000000000000000000828401527f000000000000000000000000000000000000000000000000000000000000000060608301524660808301523060a0808401919091528351808403909101815260c0909201909252805191012090565b6000807f7fffffffffffffffffffffffffffffff5d576e7357a4501ddfe92f46681b20a08311156133c45750600090506003613448565b6040805160008082526020820180845289905260ff881692820192909252606081018690526080810185905260019060a0016020604051602081039080840390855afa158015613418573d6000803e3d6000fd5b5050604051601f1901519150506001600160a01b03811661344157600060019250925050613448565b9150600090505b94509492505050565b600081600481111561346557613465614763565b0361346d5750565b600181600481111561348157613481614763565b036134ce5760405162461bcd60e51b815260206004820152601860248201527f45434453413a20696e76616c6964207369676e617475726500000000000000006044820152606401610cc8565b60028160048111156134e2576134e2614763565b0361352f5760405162461bcd60e51b815260206004820152601f60248201527f45434453413a20696e76616c6964207369676e6174757265206c656e677468006044820152606401610cc8565b600381600481111561354357613543614763565b03610d205760405162461bcd60e51b815260206004820152602260248201527f45434453413a20696e76616c6964207369676e6174757265202773272076616c604482015261756560f01b6064820152608401610cc8565b60008581526004602090815260408083206001600160a01b038816845260088101909252909120805460ff161561362a5760405162461bcd60e51b815260206004820152602d60248201527f476f7665726e6f72436f6d7061746962696c697479427261766f3a20766f746560448201526c08185b1c9958591e4818d85cdd609a1b6064820152608401610cc8565b805460ff86166101000261ffff1990911617600117815561364a84613cf2565b81546001600160601b039190911662010000026dffffffffffffffffffffffff00001990911617815560ff851661369a578382600601600082825461368f9190614e0f565b90915550611eb59050565b60001960ff8616016136ba578382600501600082825461368f9190614e0f565b60011960ff8616016136da578382600701600082825461368f9190614e0f565b60405162461bcd60e51b815260206004820152602d60248201527f476f7665726e6f72436f6d7061746962696c697479427261766f3a20696e766160448201526c6c696420766f7465207479706560981b6064820152608401610cc8565b8154600160801b90819004600f0b6000818152600180860160205260409091209390935583546001600160801b03908116939091011602179055565b60075460405163e38335e560e01b81526001600160a01b039091169063e38335e59034906137af908890889088906000908990600401614d53565b6000604051808303818588803b1580156137c857600080fd5b505af11580156137dc573d6000803e3d6000fd5b50505050505050505050565b6000818152600160205260408120600281015460ff161561380c5750600792915050565b6002810154610100900460ff16156138275750600292915050565b6000613832846112f4565b9050806000036138845760405162461bcd60e51b815260206004820152601d60248201527f476f7665726e6f723a20756e6b6e6f776e2070726f706f73616c2069640000006044820152606401610cc8565b438110613895575060009392505050565b60006138a085611d80565b90504381106138b457506001949350505050565b6138bd85613d5a565b80156138df575060008581526004602052604090206006810154600590910154115b156138ef57506004949350505050565b506003949350505050565b60008061390986868686613d82565b60008181526008602052604090205490915015612ad6576007546000828152600860205260409081902054905163c4d252f560e01b81526001600160a01b039092169163c4d252f5916139629160040190815260200190565b600060405180830381600087803b15801561397c57600080fd5b505af1158015613990573d6000803e3d6000fd5b5050506000828152600860205260408120555095945050505050565b60005b81831015612d535760006139c38484613e8e565b60008781526020902090915063ffffffff86169082015463ffffffff1611156139ee578092506139fc565b6139f9816001614e0f565b93505b506139af565b6000613a0d600b5490565b613a1c33610a2d600143614e22565b1015613a845760405162461bcd60e51b815260206004820152603160248201527f476f7665726e6f723a2070726f706f73657220766f7465732062656c6f7720706044820152701c9bdc1bdcd85b081d1a1c995cda1bdb19607a1b6064820152608401610cc8565b6000613a998686868680519060200120611ebe565b90508451865114613abc5760405162461bcd60e51b8152600401610cc8906150ae565b8351865114613add5760405162461bcd60e51b8152600401610cc8906150ae565b6000865111613b2e5760405162461bcd60e51b815260206004820152601860248201527f476f7665726e6f723a20656d7074792070726f706f73616c00000000000000006044820152606401610cc8565b600081815260016020908152604091829020825191820190925281546001600160401b03169081905215613bae5760405162461bcd60e51b815260206004820152602160248201527f476f7665726e6f723a2070726f706f73616c20616c72656164792065786973746044820152607360f81b6064820152608401610cc8565b6000613bc1613bbc60095490565b613ea9565b613bca43613ea9565b613bd491906150ef565b90506000613be4613bbc600a5490565b613bee90836150ef565b835467ffffffffffffffff19166001600160401b038416178455905060018301805467ffffffffffffffff19166001600160401b0383161790557f7d84a6263ae0d98d3329bd7b46bb4e8d6f98cd35a7adb45c274c8b7fd5ebd5e084338b8b8d516001600160401b03811115613c6657613c66614174565b604051908082528060200260200182016040528015613c9957816020015b6060815260200190600190039081613c845790505b508c88888e604051613cb399989796959493929190615116565b60405180910390a15091979650505050505050565b815115613cd85781518083602001fd5b8060405162461bcd60e51b8152600401610cc8919061431f565b60006001600160601b0382111561252d5760405162461bcd60e51b815260206004820152602660248201527f53616665436173743a2076616c756520646f65736e27742066697420696e203960448201526536206269747360d01b6064820152608401610cc8565b60008181526004602052604081206005810154613d79610a79856112f4565b11159392505050565b600080613d9186868686611ebe565b90506000613d9e82611632565b90506002816007811115613db457613db4614763565b14158015613dd457506006816007811115613dd157613dd1614763565b14155b8015613df257506007816007811115613def57613def614763565b14155b613e3e5760405162461bcd60e51b815260206004820152601d60248201527f476f7665726e6f723a2070726f706f73616c206e6f74206163746976650000006044820152606401610cc8565b60008281526001602052604090819020600201805461ff001916610100179055517f789cf55be980739dad1d0699b93b58e806b51c9d96619bfa8fe0a28abaa7b30c90610fa49084815260200190565b6000613e9d6002848418614fcb565b611c2e90848416614e0f565b60006001600160401b0382111561252d5760405162461bcd60e51b815260206004820152602660248201527f53616665436173743a2076616c756520646f65736e27742066697420696e203660448201526534206269747360d01b6064820152608401610cc8565b828054828255906000526020600020908101928215613f66579160200282015b82811115613f6657825182546001600160a01b0319166001600160a01b03909116178255602090920191600190910190613f31565b5061252d929150614051565b828054828255906000526020600020908101928215613f66579160200282015b82811115613f66578251825591602001919060010190613f92565b828054828255906000526020600020908101928215613ff3579160200282015b82811115613ff35782518290613fe39082614e91565b5091602001919060010190613fcd565b5061252d929150614066565b828054828255906000526020600020908101928215614045579160200282015b8281111561404557825182906140359082614e91565b509160200191906001019061401f565b5061252d929150614083565b5b8082111561252d5760008155600101614052565b8082111561252d57600061407a82826140a0565b50600101614066565b8082111561252d57600061409782826140a0565b50600101614083565b5080546140ac90614cbf565b6000825580601f106140bc575050565b601f016020900490600052602060002090810190610d209190614051565b6000602082840312156140ec57600080fd5b5035919050565b60006020828403121561410557600080fd5b81356001600160e01b031981168114611c2e57600080fd5b803560ff8116811461412e57600080fd5b919050565b60008083601f84011261414557600080fd5b5081356001600160401b0381111561415c57600080fd5b60208301915083602082850101111561256057600080fd5b634e487b7160e01b600052604160045260246000fd5b604051601f8201601f191681016001600160401b03811182821017156141b2576141b2614174565b604052919050565b600082601f8301126141cb57600080fd5b81356001600160401b038111156141e4576141e4614174565b6141f7601f8201601f191660200161418a565b81815284602083860101111561420c57600080fd5b816020850160208301376000918101602001919091529392505050565b60008060008060008060008060e0898b03121561424557600080fd5b8835975061425560208a0161411d565b965060408901356001600160401b038082111561427157600080fd5b61427d8c838d01614133565b909850965060608b013591508082111561429657600080fd5b506142a38b828c016141ba565b9450506142b260808a0161411d565b925060a0890135915060c089013590509295985092959890939650565b60005b838110156142ea5781810151838201526020016142d2565b50506000910152565b6000815180845261430b8160208601602086016142cf565b601f01601f19169290920160200192915050565b602081526000611c2e60208301846142f3565b6001600160a01b0381168114610d2057600080fd5b6000806000806080858703121561435d57600080fd5b843561436881614332565b9350602085013561437881614332565b92506040850135915060608501356001600160401b0381111561439a57600080fd5b6143a6878288016141ba565b91505092959194509250565b60006001600160401b038211156143cb576143cb614174565b5060051b60200190565b600082601f8301126143e657600080fd5b813560206143fb6143f6836143b2565b61418a565b82815260059290921b8401810191818101908684111561441a57600080fd5b8286015b8481101561443e57803561443181614332565b835291830191830161441e565b509695505050505050565b600082601f83011261445a57600080fd5b8135602061446a6143f6836143b2565b82815260059290921b8401810191818101908684111561448957600080fd5b8286015b8481101561443e578035835291830191830161448d565b600082601f8301126144b557600080fd5b813560206144c56143f6836143b2565b82815260059290921b840181019181810190868411156144e457600080fd5b8286015b8481101561443e5780356001600160401b038111156145075760008081fd5b6145158986838b01016141ba565b8452509183019183016144e8565b6000806000806080858703121561453957600080fd5b84356001600160401b038082111561455057600080fd5b61455c888389016143d5565b9550602087013591508082111561457257600080fd5b61457e88838901614449565b9450604087013591508082111561459457600080fd5b506145a1878288016144a4565b949793965093946060013593505050565b600081518084526020808501945080840160005b838110156145eb5781516001600160a01b0316875295820195908201906001016145c6565b509495945050505050565b600081518084526020808501945080840160005b838110156145eb5781518752958201959082019060010161460a565b600081518084526020808501808196508360051b8101915082860160005b8581101561466e57828403895261465c8483516142f3565b98850198935090840190600101614644565b5091979650505050505050565b60808152600061468e60808301876145b2565b82810360208401526146a081876145f6565b905082810360408401526146b48186614626565b9050828103606084015261162781856142f3565b6080815260006146db60808301876145b2565b82810360208401526146ed81876145f6565b905082810360408401526147018186614626565b905082810360608401526116278185614626565b600080600080600060a0868803121561472d57600080fd5b8535945061473d6020870161411d565b935061474b6040870161411d565b94979396509394606081013594506080013592915050565b634e487b7160e01b600052602160045260246000fd5b602081016008831061479b57634e487b7160e01b600052602160045260246000fd5b91905290565b600080604083850312156147b457600080fd5b8235915060208301356147c681614332565b809150509250929050565b600080604083850312156147e457600080fd5b823591506147f46020840161411d565b90509250929050565b60008060008060006080868803121561481557600080fd5b853594506148256020870161411d565b935060408601356001600160401b038082111561484157600080fd5b61484d89838a01614133565b9095509350606088013591508082111561486657600080fd5b50614873888289016141ba565b9150509295509295909350565b6000806000806060858703121561489657600080fd5b843593506148a66020860161411d565b925060408501356001600160401b038111156148c157600080fd5b6148cd87828801614133565b95989497509550505050565b600080600080608085870312156148ef57600080fd5b84356001600160401b038082111561490657600080fd5b614912888389016143d5565b9550602087013591508082111561492857600080fd5b61493488838901614449565b9450604087013591508082111561494a57600080fd5b614956888389016144a4565b9350606087013591508082111561496c57600080fd5b506143a6878288016141ba565b60008060006060848603121561498e57600080fd5b833561499981614332565b92506020840135915060408401356001600160401b038111156149bb57600080fd5b6149c7868287016141ba565b9150509250925092565b6000602082840312156149e357600080fd5b8135611c2e81614332565b600080600080600060a08688031215614a0657600080fd5b8535614a1181614332565b94506020860135614a2181614332565b935060408601356001600160401b0380821115614a3d57600080fd5b614a4989838a01614449565b94506060880135915080821115614a5f57600080fd5b614a6b89838a01614449565b9350608088013591508082111561486657600080fd5b60008060008060608587031215614a9757600080fd5b8435614aa281614332565b93506020850135925060408501356001600160401b038111156148c157600080fd5b600082601f830112614ad557600080fd5b81356020614ae56143f6836143b2565b82815260059290921b84018101918181019086841115614b0457600080fd5b8286015b8481101561443e5780356001600160401b03811115614b275760008081fd5b614b358986838b01016141ba565b845250918301918301614b08565b600080600080600060a08688031215614b5b57600080fd5b85356001600160401b0380821115614b7257600080fd5b614b7e89838a016143d5565b96506020880135915080821115614b9457600080fd5b614ba089838a01614449565b95506040880135915080821115614bb657600080fd5b614bc289838a01614ac4565b94506060880135915080821115614bd857600080fd5b614a6b89838a016144a4565b60008060408385031215614bf757600080fd5b8235614c0281614332565b946020939093013593505050565b600080600080600060a08688031215614c2857600080fd5b8535614c3381614332565b94506020860135614c4381614332565b9350604086013592506060860135915060808601356001600160401b03811115614c6c57600080fd5b614873888289016141ba565b8183823760009101908152919050565b60208082526018908201527f476f7665726e6f723a206f6e6c79476f7665726e616e63650000000000000000604082015260600190565b600181811c90821680614cd357607f821691505b602082108103614cf357634e487b7160e01b600052602260045260246000fd5b50919050565b60208082526021908201527f476f7665726e6f723a2070726f706f73616c206e6f74207375636365737366756040820152601b60fa1b606082015260800190565b600060208284031215614d4c57600080fd5b5051919050565b60a081526000614d6660a08301886145b2565b8281036020840152614d7881886145f6565b90508281036040840152614d8c8187614626565b60608401959095525050608001529392505050565b60c081526000614db460c08301896145b2565b8281036020840152614dc681896145f6565b90508281036040840152614dda8188614626565b60608401969096525050608081019290925260a0909101529392505050565b634e487b7160e01b600052601160045260246000fd5b80820180821115610b9257610b92614df9565b81810381811115610b9257610b92614df9565b634e487b7160e01b600052603260045260246000fd5b601f82111561194b57600081815260208120601f850160051c81016020861015614e725750805b601f850160051c820191505b81811015612a6457828155600101614e7e565b81516001600160401b03811115614eaa57614eaa614174565b614ebe81614eb88454614cbf565b84614e4b565b602080601f831160018114614ef35760008415614edb5750858301515b600019600386901b1c1916600185901b178555612a64565b600085815260208120601f198616915b82811015614f2257888601518255948401946001909101908401614f03565b5085821015614f405787850151600019600388901b60f8161c191681555b5050505050600190811b01905550565b600060018201614f6257614f62614df9565b5060010190565b608081526000614f7c60808301876145b2565b8281036020840152614f8e81876145f6565b90508281036040840152614fa28186614626565b91505082606083015295945050505050565b8082028115828204841417610b9257610b92614df9565b600082614fe857634e487b7160e01b600052601260045260246000fd5b500490565b84815260ff84166020820152826040820152608060608201526000611b4260808301846142f3565b85815260ff8516602082015283604082015260a06060820152600061503d60a08301856142f3565b828103608084015261504f81856142f3565b98975050505050505050565b60006020828403121561506d57600080fd5b81518015158114611c2e57600080fd5b6001600160e01b03198316815281516000906150a08160048501602087016142cf565b919091016004019392505050565b60208082526021908201527f476f7665726e6f723a20696e76616c69642070726f706f73616c206c656e67746040820152600d60fb1b606082015260800190565b6001600160401b0381811683821601908082111561510f5761510f614df9565b5092915050565b8981526001600160a01b0389166020820152610120604082018190526000906151418382018b6145b2565b90508281036060840152615155818a6145f6565b905082810360808401526151698189614626565b905082810360a084015261517d8188614626565b6001600160401b0387811660c0860152861660e085015283810361010085015290506151a981856142f3565b9c9b50505050505050505050505056fe476f7665726e6f723a2072656c617920726576657274656420776974686f7574206d657373616765a2646970667358221220eafcdebda4f0b1725983db5d5e04a93ea44299ac58417222097abcf4935e4bb064736f6c63430008110033",
  "linkReferences": {},
  "deployedLinkReferences": {}
}