{
  "_format": "hh-sol-artifact-1",
  "contractName": "DAOGovernor",
  "sourceName": "contracts/DAOGovernor.sol",
  "abi": [
    {
      "inputs": [
        {
          "internalType": "string",
          "name": "_name",
          "type": "string"
        },
        {
          "internalType": "string",
          "name": "_imageURL",
          "type": "string"
        },
        {
          "internalType": "contract IVotes",
          "name": "_token",
          "type": "address"
        },
        {
          "internalType": "contract TimelockController",
          "name": "_timelock",
          "type": "address"
        },
        {
          "internalType": "address",
          "name": "_proposer",
          "type": "address"
        },
        {
          "internalType": "uint256",
          "name": "_quorumFraction",
          "type": "uint256"
        },
        {
          "internalType": "uint256",
          "name": "_votingDelay",
          "type": "uint256"
        },
        {
          "internalType": "uint256",
          "name": "_votingPeriod",
          "type": "uint256"
        }
      ],
      "stateMutability": "nonpayable",
      "type": "constructor"
    },
    {
      "inputs": [],
      "name": "Empty",
      "type": "error"
    },
    {
      "anonymous": false,
      "inputs": [
        {
          "indexed": false,
          "internalType": "uint256",
          "name": "proposalId",
          "type": "uint256"
        }
      ],
      "name": "ProposalCanceled",
      "type": "event"
    },
    {
      "anonymous": false,
      "inputs": [
        {
          "indexed": false,
          "internalType": "uint256",
          "name": "proposalId",
          "type": "uint256"
        },
        {
          "indexed": false,
          "internalType": "address",
          "name": "proposer",
          "type": "address"
        },
        {
          "indexed": false,
          "internalType": "address[]",
          "name": "targets",
          "type": "address[]"
        },
        {
          "indexed": false,
          "internalType": "uint256[]",
          "name": "values",
          "type": "uint256[]"
        },
        {
          "indexed": false,
          "internalType": "string[]",
          "name": "signatures",
          "type": "string[]"
        },
        {
          "indexed": false,
          "internalType": "bytes[]",
          "name": "calldatas",
          "type": "bytes[]"
        },
        {
          "indexed": false,
          "internalType": "uint256",
          "name": "startBlock",
          "type": "uint256"
        },
        {
          "indexed": false,
          "internalType": "uint256",
          "name": "endBlock",
          "type": "uint256"
        },
        {
          "indexed": false,
          "internalType": "string",
          "name": "description",
          "type": "string"
        }
      ],
      "name": "ProposalCreated",
      "type": "event"
    },
    {
      "anonymous": false,
      "inputs": [
        {
          "indexed": false,
          "internalType": "uint256",
          "name": "proposalId",
          "type": "uint256"
        }
      ],
      "name": "ProposalExecuted",
      "type": "event"
    },
    {
      "anonymous": false,
      "inputs": [
        {
          "indexed": false,
          "internalType": "uint256",
          "name": "proposalId",
          "type": "uint256"
        },
        {
          "indexed": false,
          "internalType": "uint256",
          "name": "eta",
          "type": "uint256"
        }
      ],
      "name": "ProposalQueued",
      "type": "event"
    },
    {
      "anonymous": false,
      "inputs": [
        {
          "indexed": false,
          "internalType": "uint256",
          "name": "oldQuorumNumerator",
          "type": "uint256"
        },
        {
          "indexed": false,
          "internalType": "uint256",
          "name": "newQuorumNumerator",
          "type": "uint256"
        }
      ],
      "name": "QuorumNumeratorUpdated",
      "type": "event"
    },
    {
      "anonymous": false,
      "inputs": [
        {
          "indexed": false,
          "internalType": "address",
          "name": "oldTimelock",
          "type": "address"
        },
        {
          "indexed": false,
          "internalType": "address",
          "name": "newTimelock",
          "type": "address"
        }
      ],
      "name": "TimelockChange",
      "type": "event"
    },
    {
      "anonymous": false,
      "inputs": [
        {
          "indexed": true,
          "internalType": "address",
          "name": "voter",
          "type": "address"
        },
        {
          "indexed": false,
          "internalType": "uint256",
          "name": "proposalId",
          "type": "uint256"
        },
        {
          "indexed": false,
          "internalType": "uint8",
          "name": "support",
          "type": "uint8"
        },
        {
          "indexed": false,
          "internalType": "uint256",
          "name": "weight",
          "type": "uint256"
        },
        {
          "indexed": false,
          "internalType": "string",
          "name": "reason",
          "type": "string"
        }
      ],
      "name": "VoteCast",
      "type": "event"
    },
    {
      "anonymous": false,
      "inputs": [
        {
          "indexed": true,
          "internalType": "address",
          "name": "voter",
          "type": "address"
        },
        {
          "indexed": false,
          "internalType": "uint256",
          "name": "proposalId",
          "type": "uint256"
        },
        {
          "indexed": false,
          "internalType": "uint8",
          "name": "support",
          "type": "uint8"
        },
        {
          "indexed": false,
          "internalType": "uint256",
          "name": "weight",
          "type": "uint256"
        },
        {
          "indexed": false,
          "internalType": "string",
          "name": "reason",
          "type": "string"
        },
        {
          "indexed": false,
          "internalType": "bytes",
          "name": "params",
          "type": "bytes"
        }
      ],
      "name": "VoteCastWithParams",
      "type": "event"
    },
    {
      "inputs": [],
      "name": "BALLOT_TYPEHASH",
      "outputs": [
        {
          "internalType": "bytes32",
          "name": "",
          "type": "bytes32"
        }
      ],
      "stateMutability": "view",
      "type": "function"
    },
    {
      "inputs": [],
      "name": "COUNTING_MODE",
      "outputs": [
        {
          "internalType": "string",
          "name": "",
          "type": "string"
        }
      ],
      "stateMutability": "pure",
      "type": "function"
    },
    {
      "inputs": [],
      "name": "EXTENDED_BALLOT_TYPEHASH",
      "outputs": [
        {
          "internalType": "bytes32",
          "name": "",
          "type": "bytes32"
        }
      ],
      "stateMutability": "view",
      "type": "function"
    },
    {
      "inputs": [
        {
          "internalType": "uint256",
          "name": "proposalId",
          "type": "uint256"
        }
      ],
      "name": "cancel",
      "outputs": [],
      "stateMutability": "nonpayable",
      "type": "function"
    },
    {
      "inputs": [
        {
          "internalType": "uint256",
          "name": "proposalId",
          "type": "uint256"
        },
        {
          "internalType": "uint8",
          "name": "support",
          "type": "uint8"
        }
      ],
      "name": "castVote",
      "outputs": [
        {
          "internalType": "uint256",
          "name": "",
          "type": "uint256"
        }
      ],
      "stateMutability": "nonpayable",
      "type": "function"
    },
    {
      "inputs": [
        {
          "internalType": "uint256",
          "name": "proposalId",
          "type": "uint256"
        },
        {
          "internalType": "uint8",
          "name": "support",
          "type": "uint8"
        },
        {
          "internalType": "uint8",
          "name": "v",
          "type": "uint8"
        },
        {
          "internalType": "bytes32",
          "name": "r",
          "type": "bytes32"
        },
        {
          "internalType": "bytes32",
          "name": "s",
          "type": "bytes32"
        }
      ],
      "name": "castVoteBySig",
      "outputs": [
        {
          "internalType": "uint256",
          "name": "",
          "type": "uint256"
        }
      ],
      "stateMutability": "nonpayable",
      "type": "function"
    },
    {
      "inputs": [
        {
          "internalType": "uint256",
          "name": "proposalId",
          "type": "uint256"
        },
        {
          "internalType": "uint8",
          "name": "support",
          "type": "uint8"
        },
        {
          "internalType": "string",
          "name": "reason",
          "type": "string"
        }
      ],
      "name": "castVoteWithReason",
      "outputs": [
        {
          "internalType": "uint256",
          "name": "",
          "type": "uint256"
        }
      ],
      "stateMutability": "nonpayable",
      "type": "function"
    },
    {
      "inputs": [
        {
          "internalType": "uint256",
          "name": "proposalId",
          "type": "uint256"
        },
        {
          "internalType": "uint8",
          "name": "support",
          "type": "uint8"
        },
        {
          "internalType": "string",
          "name": "reason",
          "type": "string"
        },
        {
          "internalType": "bytes",
          "name": "params",
          "type": "bytes"
        }
      ],
      "name": "castVoteWithReasonAndParams",
      "outputs": [
        {
          "internalType": "uint256",
          "name": "",
          "type": "uint256"
        }
      ],
      "stateMutability": "nonpayable",
      "type": "function"
    },
    {
      "inputs": [
        {
          "internalType": "uint256",
          "name": "proposalId",
          "type": "uint256"
        },
        {
          "internalType": "uint8",
          "name": "support",
          "type": "uint8"
        },
        {
          "internalType": "string",
          "name": "reason",
          "type": "string"
        },
        {
          "internalType": "bytes",
          "name": "params",
          "type": "bytes"
        },
        {
          "internalType": "uint8",
          "name": "v",
          "type": "uint8"
        },
        {
          "internalType": "bytes32",
          "name": "r",
          "type": "bytes32"
        },
        {
          "internalType": "bytes32",
          "name": "s",
          "type": "bytes32"
        }
      ],
      "name": "castVoteWithReasonAndParamsBySig",
      "outputs": [
        {
          "internalType": "uint256",
          "name": "",
          "type": "uint256"
        }
      ],
      "stateMutability": "nonpayable",
      "type": "function"
    },
    {
      "inputs": [
        {
          "internalType": "address[]",
          "name": "targets",
          "type": "address[]"
        },
        {
          "internalType": "uint256[]",
          "name": "values",
          "type": "uint256[]"
        },
        {
          "internalType": "bytes[]",
          "name": "calldatas",
          "type": "bytes[]"
        },
        {
          "internalType": "bytes32",
          "name": "descriptionHash",
          "type": "bytes32"
        }
      ],
      "name": "execute",
      "outputs": [
        {
          "internalType": "uint256",
          "name": "",
          "type": "uint256"
        }
      ],
      "stateMutability": "payable",
      "type": "function"
    },
    {
      "inputs": [
        {
          "internalType": "uint256",
          "name": "proposalId",
          "type": "uint256"
        }
      ],
      "name": "execute",
      "outputs": [],
      "stateMutability": "payable",
      "type": "function"
    },
    {
      "inputs": [
        {
          "internalType": "uint256",
          "name": "proposalId",
          "type": "uint256"
        }
      ],
      "name": "getActions",
      "outputs": [
        {
          "internalType": "address[]",
          "name": "targets",
          "type": "address[]"
        },
        {
          "internalType": "uint256[]",
          "name": "values",
          "type": "uint256[]"
        },
        {
          "internalType": "string[]",
          "name": "signatures",
          "type": "string[]"
        },
        {
          "internalType": "bytes[]",
          "name": "calldatas",
          "type": "bytes[]"
        }
      ],
      "stateMutability": "view",
      "type": "function"
    },
    {
      "inputs": [
        {
          "internalType": "uint256",
          "name": "proposalId",
          "type": "uint256"
        },
        {
          "internalType": "address",
          "name": "voter",
          "type": "address"
        }
      ],
      "name": "getReceipt",
      "outputs": [
        {
          "components": [
            {
              "internalType": "bool",
              "name": "hasVoted",
              "type": "bool"
            },
            {
              "internalType": "uint8",
              "name": "support",
              "type": "uint8"
            },
            {
              "internalType": "uint96",
              "name": "votes",
              "type": "uint96"
            }
          ],
          "internalType": "struct IGovernorCompatibilityBravo.Receipt",
          "name": "",
          "type": "tuple"
        }
      ],
      "stateMutability": "view",
      "type": "function"
    },
    {
      "inputs": [
        {
          "internalType": "address",
          "name": "account",
          "type": "address"
        },
        {
          "internalType": "uint256",
          "name": "blockNumber",
          "type": "uint256"
        }
      ],
      "name": "getVotes",
      "outputs": [
        {
          "internalType": "uint256",
          "name": "",
          "type": "uint256"
        }
      ],
      "stateMutability": "view",
      "type": "function"
    },
    {
      "inputs": [
        {
          "internalType": "address",
          "name": "account",
          "type": "address"
        },
        {
          "internalType": "uint256",
          "name": "blockNumber",
          "type": "uint256"
        },
        {
          "internalType": "bytes",
          "name": "params",
          "type": "bytes"
        }
      ],
      "name": "getVotesWithParams",
      "outputs": [
        {
          "internalType": "uint256",
          "name": "",
          "type": "uint256"
        }
      ],
      "stateMutability": "view",
      "type": "function"
    },
    {
      "inputs": [
        {
          "internalType": "uint256",
          "name": "proposalId",
          "type": "uint256"
        },
        {
          "internalType": "address",
          "name": "account",
          "type": "address"
        }
      ],
      "name": "hasVoted",
      "outputs": [
        {
          "internalType": "bool",
          "name": "",
          "type": "bool"
        }
      ],
      "stateMutability": "view",
      "type": "function"
    },
    {
      "inputs": [
        {
          "internalType": "address[]",
          "name": "targets",
          "type": "address[]"
        },
        {
          "internalType": "uint256[]",
          "name": "values",
          "type": "uint256[]"
        },
        {
          "internalType": "bytes[]",
          "name": "calldatas",
          "type": "bytes[]"
        },
        {
          "internalType": "bytes32",
          "name": "descriptionHash",
          "type": "bytes32"
        }
      ],
      "name": "hashProposal",
      "outputs": [
        {
          "internalType": "uint256",
          "name": "",
          "type": "uint256"
        }
      ],
      "stateMutability": "pure",
      "type": "function"
    },
    {
      "inputs": [],
      "name": "imageURL",
      "outputs": [
        {
          "internalType": "string",
          "name": "",
          "type": "string"
        }
      ],
      "stateMutability": "view",
      "type": "function"
    },
    {
      "inputs": [],
      "name": "name",
      "outputs": [
        {
          "internalType": "string",
          "name": "",
          "type": "string"
        }
      ],
      "stateMutability": "view",
      "type": "function"
    },
    {
      "inputs": [
        {
          "internalType": "address",
          "name": "",
          "type": "address"
        },
        {
          "internalType": "address",
          "name": "",
          "type": "address"
        },
        {
          "internalType": "uint256[]",
          "name": "",
          "type": "uint256[]"
        },
        {
          "internalType": "uint256[]",
          "name": "",
          "type": "uint256[]"
        },
        {
          "internalType": "bytes",
          "name": "",
          "type": "bytes"
        }
      ],
      "name": "onERC1155BatchReceived",
      "outputs": [
        {
          "internalType": "bytes4",
          "name": "",
          "type": "bytes4"
        }
      ],
      "stateMutability": "nonpayable",
      "type": "function"
    },
    {
      "inputs": [
        {
          "internalType": "address",
          "name": "",
          "type": "address"
        },
        {
          "internalType": "address",
          "name": "",
          "type": "address"
        },
        {
          "internalType": "uint256",
          "name": "",
          "type": "uint256"
        },
        {
          "internalType": "uint256",
          "name": "",
          "type": "uint256"
        },
        {
          "internalType": "bytes",
          "name": "",
          "type": "bytes"
        }
      ],
      "name": "onERC1155Received",
      "outputs": [
        {
          "internalType": "bytes4",
          "name": "",
          "type": "bytes4"
        }
      ],
      "stateMutability": "nonpayable",
      "type": "function"
    },
    {
      "inputs": [
        {
          "internalType": "address",
          "name": "",
          "type": "address"
        },
        {
          "internalType": "address",
          "name": "",
          "type": "address"
        },
        {
          "internalType": "uint256",
          "name": "",
          "type": "uint256"
        },
        {
          "internalType": "bytes",
          "name": "",
          "type": "bytes"
        }
      ],
      "name": "onERC721Received",
      "outputs": [
        {
          "internalType": "bytes4",
          "name": "",
          "type": "bytes4"
        }
      ],
      "stateMutability": "nonpayable",
      "type": "function"
    },
    {
      "inputs": [
        {
          "internalType": "uint256",
          "name": "proposalId",
          "type": "uint256"
        }
      ],
      "name": "proposalDeadline",
      "outputs": [
        {
          "internalType": "uint256",
          "name": "",
          "type": "uint256"
        }
      ],
      "stateMutability": "view",
      "type": "function"
    },
    {
      "inputs": [
        {
          "internalType": "uint256",
          "name": "proposalId",
          "type": "uint256"
        }
      ],
      "name": "proposalEta",
      "outputs": [
        {
          "internalType": "uint256",
          "name": "",
          "type": "uint256"
        }
      ],
      "stateMutability": "view",
      "type": "function"
    },
    {
      "inputs": [
        {
          "internalType": "uint256",
          "name": "proposalId",
          "type": "uint256"
        }
      ],
      "name": "proposalSnapshot",
      "outputs": [
        {
          "internalType": "uint256",
          "name": "",
          "type": "uint256"
        }
      ],
      "stateMutability": "view",
      "type": "function"
    },
    {
      "inputs": [],
      "name": "proposalThreshold",
      "outputs": [
        {
          "internalType": "uint256",
          "name": "",
          "type": "uint256"
        }
      ],
      "stateMutability": "pure",
      "type": "function"
    },
    {
      "inputs": [
        {
          "internalType": "uint256",
          "name": "proposalId",
          "type": "uint256"
        }
      ],
      "name": "proposals",
      "outputs": [
        {
          "internalType": "uint256",
          "name": "id",
          "type": "uint256"
        },
        {
          "internalType": "address",
          "name": "proposer",
          "type": "address"
        },
        {
          "internalType": "uint256",
          "name": "eta",
          "type": "uint256"
        },
        {
          "internalType": "uint256",
          "name": "startBlock",
          "type": "uint256"
        },
        {
          "internalType": "uint256",
          "name": "endBlock",
          "type": "uint256"
        },
        {
          "internalType": "uint256",
          "name": "forVotes",
          "type": "uint256"
        },
        {
          "internalType": "uint256",
          "name": "againstVotes",
          "type": "uint256"
        },
        {
          "internalType": "uint256",
          "name": "abstainVotes",
          "type": "uint256"
        },
        {
          "internalType": "bool",
          "name": "canceled",
          "type": "bool"
        },
        {
          "internalType": "bool",
          "name": "executed",
          "type": "bool"
        }
      ],
      "stateMutability": "view",
      "type": "function"
    },
    {
      "inputs": [
        {
          "internalType": "address[]",
          "name": "targets",
          "type": "address[]"
        },
        {
          "internalType": "uint256[]",
          "name": "values",
          "type": "uint256[]"
        },
        {
          "internalType": "bytes[]",
          "name": "calldatas",
          "type": "bytes[]"
        },
        {
          "internalType": "string",
          "name": "description",
          "type": "string"
        }
      ],
      "name": "propose",
      "outputs": [
        {
          "internalType": "uint256",
          "name": "",
          "type": "uint256"
        }
      ],
      "stateMutability": "nonpayable",
      "type": "function"
    },
    {
      "inputs": [
        {
          "internalType": "address[]",
          "name": "targets",
          "type": "address[]"
        },
        {
          "internalType": "uint256[]",
          "name": "values",
          "type": "uint256[]"
        },
        {
          "internalType": "string[]",
          "name": "signatures",
          "type": "string[]"
        },
        {
          "internalType": "bytes[]",
          "name": "calldatas",
          "type": "bytes[]"
        },
        {
          "internalType": "string",
          "name": "description",
          "type": "string"
        }
      ],
      "name": "propose",
      "outputs": [
        {
          "internalType": "uint256",
          "name": "",
          "type": "uint256"
        }
      ],
      "stateMutability": "nonpayable",
      "type": "function"
    },
    {
      "inputs": [],
      "name": "proposer",
      "outputs": [
        {
          "internalType": "address",
          "name": "",
          "type": "address"
        }
      ],
      "stateMutability": "view",
      "type": "function"
    },
    {
      "inputs": [
        {
          "internalType": "address[]",
          "name": "targets",
          "type": "address[]"
        },
        {
          "internalType": "uint256[]",
          "name": "values",
          "type": "uint256[]"
        },
        {
          "internalType": "bytes[]",
          "name": "calldatas",
          "type": "bytes[]"
        },
        {
          "internalType": "bytes32",
          "name": "descriptionHash",
          "type": "bytes32"
        }
      ],
      "name": "queue",
      "outputs": [
        {
          "internalType": "uint256",
          "name": "",
          "type": "uint256"
        }
      ],
      "stateMutability": "nonpayable",
      "type": "function"
    },
    {
      "inputs": [
        {
          "internalType": "uint256",
          "name": "proposalId",
          "type": "uint256"
        }
      ],
      "name": "queue",
      "outputs": [],
      "stateMutability": "nonpayable",
      "type": "function"
    },
    {
      "inputs": [
        {
          "internalType": "uint256",
          "name": "blockNumber",
          "type": "uint256"
        }
      ],
      "name": "quorum",
      "outputs": [
        {
          "internalType": "uint256",
          "name": "",
          "type": "uint256"
        }
      ],
      "stateMutability": "view",
      "type": "function"
    },
    {
      "inputs": [],
      "name": "quorumDenominator",
      "outputs": [
        {
          "internalType": "uint256",
          "name": "",
          "type": "uint256"
        }
      ],
      "stateMutability": "view",
      "type": "function"
    },
    {
      "inputs": [
        {
          "internalType": "uint256",
          "name": "blockNumber",
          "type": "uint256"
        }
      ],
      "name": "quorumNumerator",
      "outputs": [
        {
          "internalType": "uint256",
          "name": "",
          "type": "uint256"
        }
      ],
      "stateMutability": "view",
      "type": "function"
    },
    {
      "inputs": [],
      "name": "quorumNumerator",
      "outputs": [
        {
          "internalType": "uint256",
          "name": "",
          "type": "uint256"
        }
      ],
      "stateMutability": "view",
      "type": "function"
    },
    {
      "inputs": [],
      "name": "quorumVotes",
      "outputs": [
        {
          "internalType": "uint256",
          "name": "",
          "type": "uint256"
        }
      ],
      "stateMutability": "view",
      "type": "function"
    },
    {
      "inputs": [
        {
          "internalType": "address",
          "name": "target",
          "type": "address"
        },
        {
          "internalType": "uint256",
          "name": "value",
          "type": "uint256"
        },
        {
          "internalType": "bytes",
          "name": "data",
          "type": "bytes"
        }
      ],
      "name": "relay",
      "outputs": [],
      "stateMutability": "payable",
      "type": "function"
    },
    {
      "inputs": [
        {
          "internalType": "uint256",
          "name": "proposalId",
          "type": "uint256"
        }
      ],
      "name": "state",
      "outputs": [
        {
          "internalType": "enum IGovernor.ProposalState",
          "name": "",
          "type": "uint8"
        }
      ],
      "stateMutability": "view",
      "type": "function"
    },
    {
      "inputs": [
        {
          "internalType": "bytes4",
          "name": "interfaceId",
          "type": "bytes4"
        }
      ],
      "name": "supportsInterface",
      "outputs": [
        {
          "internalType": "bool",
          "name": "",
          "type": "bool"
        }
      ],
      "stateMutability": "view",
      "type": "function"
    },
    {
      "inputs": [],
      "name": "timelock",
      "outputs": [
        {
          "internalType": "address",
          "name": "",
          "type": "address"
        }
      ],
      "stateMutability": "view",
      "type": "function"
    },
    {
      "inputs": [],
      "name": "token",
      "outputs": [
        {
          "internalType": "contract IVotes",
          "name": "",
          "type": "address"
        }
      ],
      "stateMutability": "view",
      "type": "function"
    },
    {
      "inputs": [
        {
          "internalType": "uint256",
          "name": "newQuorumNumerator",
          "type": "uint256"
        }
      ],
      "name": "updateQuorumNumerator",
      "outputs": [],
      "stateMutability": "nonpayable",
      "type": "function"
    },
    {
      "inputs": [
        {
          "internalType": "contract TimelockController",
          "name": "newTimelock",
          "type": "address"
        }
      ],
      "name": "updateTimelock",
      "outputs": [],
      "stateMutability": "nonpayable",
      "type": "function"
    },
    {
      "inputs": [],
      "name": "version",
      "outputs": [
        {
          "internalType": "string",
          "name": "",
          "type": "string"
        }
      ],
      "stateMutability": "view",
      "type": "function"
    },
    {
      "inputs": [],
      "name": "votingDelay",
      "outputs": [
        {
          "internalType": "uint256",
          "name": "",
          "type": "uint256"
        }
      ],
      "stateMutability": "view",
      "type": "function"
    },
    {
      "inputs": [],
      "name": "votingPeriod",
      "outputs": [
        {
          "internalType": "uint256",
          "name": "",
          "type": "uint256"
        }
      ],
      "stateMutability": "view",
      "type": "function"
    },
    {
      "stateMutability": "payable",
      "type": "receive"
    }
  ],
  "bytecode": "0x6101606040523480156200001257600080fd5b50604051620058de380380620058de83398101604081905262000035916200078a565b8483878a80620000596040805180820190915260018152603160f81b602082015290565b815160209283012081519183019190912060e08290526101008190524660a0818152604080517f8b73c3c69bb8fe3d512ecc4cf759cc79239f7b179b0ffacaa9a75d522b39400f818801819052818301969096526060810194909452608080850193909352308483018190528151808603909301835260c094850190915281519190950120905291909152610120526000620000f68282620008e0565b50506001600160a01b031661014052620001108162000165565b506200011c81620002e1565b506009829055600a819055600b620001358882620008e0565b5050600c80546001600160a01b0319166001600160a01b03949094169390931790925550620009d4945050505050565b6064811115620001ee5760405162461bcd60e51b815260206004820152604360248201527f476f7665726e6f72566f74657351756f72756d4672616374696f6e3a2071756f60448201527f72756d4e756d657261746f72206f7665722071756f72756d44656e6f6d696e616064820152623a37b960e91b608482015260a4015b60405180910390fd5b6000620001fa6200034a565b905080158015906200020c5750600654155b15620002875760066000016040518060400160405280600063ffffffff16815260200162000245846200038260201b620021a31760201c565b6001600160e01b0390811690915282546001810184556000938452602093849020835194909301519091166401000000000263ffffffff909316929092179101555b620002a2826006620003f160201b620022101790919060201c565b505060408051828152602081018490527f0553476bf02ef2726e8ce5ced78d63e26e602e4a2257b1f559418e24b4633997910160405180910390a15050565b600754604080516001600160a01b03928316815291831660208301527f08f74ea46ef7894f65eabfb5e6e695de773a000b47c529ab559178069b226401910160405180910390a1600780546001600160a01b0319166001600160a01b0392909216919091179055565b600654600090156200037b576200036d60066200044460201b620022461760201c565b6001600160e01b0316905090565b5060055490565b60006001600160e01b03821115620003ed5760405162461bcd60e51b815260206004820152602760248201527f53616665436173743a2076616c756520646f65736e27742066697420696e20326044820152663234206269747360c81b6064820152608401620001e5565b5090565b6000806200042e8460000162000412436200049260201b620022841760201c565b62000428866200038260201b620021a31760201c565b620004f9565b6001600160e01b03918216969116945092505050565b805460009080156200048857620004708362000462600184620009ac565b600091825260209091200190565b5464010000000090046001600160e01b03166200048b565b60005b9392505050565b600063ffffffff821115620003ed5760405162461bcd60e51b815260206004820152602660248201527f53616665436173743a2076616c756520646f65736e27742066697420696e203360448201526532206269747360d01b6064820152608401620001e5565b8254600090819080156200064e5760006200051b8762000462600185620009ac565b60408051808201909152905463ffffffff8082168084526401000000009092046001600160e01b0316602084015291925090871610156200059f5760405162461bcd60e51b815260206004820152601760248201527f436865636b706f696e743a20696e76616c6964206b65790000000000000000006044820152606401620001e5565b805163ffffffff808816911603620005ed5784620005c48862000462600186620009ac565b80546001600160e01b03929092166401000000000263ffffffff9092169190911790556200063d565b6040805180820190915263ffffffff80881682526001600160e01b0380881660208085019182528b54600181018d5560008d81529190912094519151909216640100000000029216919091179101555b602001519250839150620006a49050565b50506040805180820190915263ffffffff80851682526001600160e01b0380851660208085019182528854600181018a5560008a8152918220955192519093166401000000000291909316179201919091559050815b935093915050565b634e487b7160e01b600052604160045260246000fd5b600082601f830112620006d457600080fd5b81516001600160401b0380821115620006f157620006f1620006ac565b604051601f8301601f19908116603f011681019082821181831017156200071c576200071c620006ac565b816040528381526020925086838588010111156200073957600080fd5b600091505b838210156200075d57858201830151818301840152908201906200073e565b600093810190920192909252949350505050565b6001600160a01b03811681146200078757600080fd5b50565b600080600080600080600080610100898b031215620007a857600080fd5b88516001600160401b0380821115620007c057600080fd5b620007ce8c838d01620006c2565b995060208b0151915080821115620007e557600080fd5b50620007f48b828c01620006c2565b9750506040890151620008078162000771565b60608a01519096506200081a8162000771565b60808a01519095506200082d8162000771565b60a08a015160c08b015160e0909b0151999c989b5096999598909790945092505050565b600181811c908216806200086657607f821691505b6020821081036200088757634e487b7160e01b600052602260045260246000fd5b50919050565b601f821115620008db57600081815260208120601f850160051c81016020861015620008b65750805b601f850160051c820191505b81811015620008d757828155600101620008c2565b5050505b505050565b81516001600160401b03811115620008fc57620008fc620006ac565b62000914816200090d845462000851565b846200088d565b602080601f8311600181146200094c5760008415620009335750858301515b600019600386901b1c1916600185901b178555620008d7565b600085815260208120601f198616915b828110156200097d578886015182559484019460019091019084016200095c565b50858210156200099c5787850151600019600388901b60f8161c191681555b5050505050600190811b01905550565b81810381811115620009ce57634e487b7160e01b600052601160045260246000fd5b92915050565b60805160a05160c05160e051610100516101205161014051614ea162000a3d60003960008181610a0f01528181611eae0152612b8b01526000612fcf0152600061301e01526000612ff901526000612f5201526000612f7c01526000612fa60152614ea16000f3fe60806040526004361061028c5760003560e01c80637d5e81e21161015a578063c59057e4116100c1578063e23a9a521161007a578063e23a9a52146108c7578063eb9019d414610991578063f23a6e61146109b1578063f8ce560a146109dd578063fc0c546a146109fd578063fe0d94c114610a3157600080fd5b8063c59057e4146107cf578063d33219b4146107ef578063da95691a1461080d578063dd4e2ba51461082d578063ddf0b00914610873578063deaaa7cc1461089357600080fd5b8063ab58fb8e11610113578063ab58fb8e14610727578063b58131b014610747578063b90497e01461075b578063bc197c8114610770578063c01f9e371461079c578063c28bc2fa146107bc57600080fd5b80637d5e81e21461066657806397c3d334146106865780639a802a6d1461069a578063a7713a70146106ba578063a890c910146106cf578063a8e4fb90146106ef57600080fd5b80632fe3e261116101fe57806343859632116101b7578063438596321461057257806354fd4d50146105bc57806356781388146105e65780635f398a141461060657806360c4247f146106265780637b3c71d31461064657600080fd5b80632fe3e2611461048c578063328dd982146104c05780633932abb1146104f05780633bccf4fd146105055780633e4f49e61461052557806340e58ee51461055257600080fd5b806306fdde031161025057806306fdde03146103be578063150b7a02146103e0578063160cbed71461042457806324bc1a64146104445780632656227d146104595780632d63f6931461046c57600080fd5b8063013cf08b146102b457806301ffc9a71461032f57806302a251a31461035f578063034201811461037e57806306f3f9e61461039e57600080fd5b366102af573061029a610a44565b6001600160a01b0316146102ad57600080fd5b005b600080fd5b3480156102c057600080fd5b506102d46102cf366004613db1565b610a5d565b604080519a8b526001600160a01b0390991660208b0152978901969096526060880194909452608087019290925260a086015260c085015260e084015215156101008301521515610120820152610140015b60405180910390f35b34801561033b57600080fd5b5061034f61034a366004613dca565b610b06565b6040519015158152602001610326565b34801561036b57600080fd5b50600a545b604051908152602001610326565b34801561038a57600080fd5b50610370610399366004613f00565b610b17565b3480156103aa57600080fd5b506102ad6103b9366004613db1565b610c0f565b3480156103ca57600080fd5b506103d3610ca2565b6040516103269190613ff6565b3480156103ec57600080fd5b5061040b6103fb36600461401e565b630a85bd0160e11b949350505050565b6040516001600160e01b03199091168152602001610326565b34801561043057600080fd5b5061037061043f3660046141fa565b610d34565b34801561045057600080fd5b50610370610f35565b6103706104673660046141fa565b610f45565b34801561047857600080fd5b50610370610487366004613db1565b611032565b34801561049857600080fd5b506103707fb3b3f3b703cd84ce352197dcff232b1b5d3cfb2025ce47cf04742d0651f1af8881565b3480156104cc57600080fd5b506104e06104db366004613db1565b611069565b6040516103269493929190614352565b3480156104fc57600080fd5b50600954610370565b34801561051157600080fd5b5061037061052036600461439f565b6112fa565b34801561053157600080fd5b50610545610540366004613db1565b611370565b6040516103269190614403565b34801561055e57600080fd5b506102ad61056d366004613db1565b61137b565b34801561057e57600080fd5b5061034f61058d36600461442b565b60008281526004602090815260408083206001600160a01b038516845260080190915290205460ff1692915050565b3480156105c857600080fd5b506040805180820190915260018152603160f81b60208201526103d3565b3480156105f257600080fd5b5061037061060136600461445b565b61168d565b34801561061257600080fd5b50610370610621366004614487565b6116b6565b34801561063257600080fd5b50610370610641366004613db1565b611700565b34801561065257600080fd5b5061037061066136600461450a565b611797565b34801561067257600080fd5b50610370610681366004614563565b6117e9565b34801561069257600080fd5b506064610370565b3480156106a657600080fd5b506103706106b5366004614603565b61186f565b3480156106c657600080fd5b50610370611886565b3480156106db57600080fd5b506102ad6106ea36600461465b565b6118b0565b3480156106fb57600080fd5b50600c5461070f906001600160a01b031681565b6040516001600160a01b039091168152602001610326565b34801561073357600080fd5b50610370610742366004613db1565b611937565b34801561075357600080fd5b506000610370565b34801561076757600080fd5b506103d36119d1565b34801561077c57600080fd5b5061040b61078b366004614678565b63bc197c8160e01b95945050505050565b3480156107a857600080fd5b506103706107b7366004613db1565b611a5f565b6102ad6107ca36600461470b565b611a8e565b3480156107db57600080fd5b506103706107ea3660046141fa565b611b9d565b3480156107fb57600080fd5b506007546001600160a01b031661070f565b34801561081957600080fd5b506103706108283660046147cd565b611bd7565b34801561083957600080fd5b5060408051808201909152601a81527f737570706f72743d627261766f2671756f72756d3d627261766f00000000000060208201526103d3565b34801561087f57600080fd5b506102ad61088e366004613db1565b611bfc565b34801561089f57600080fd5b506103707f150214d74d59b7d1e90c73fc22ef3d991dd0a76b046543d4d80ab92d2a50328f81565b3480156108d357600080fd5b506109616108e236600461442b565b60408051606081018252600080825260208201819052918101919091525060009182526004602090815260408084206001600160a01b0393909316845260089092018152918190208151606081018352905460ff8082161515835261010082041693820193909352620100009092046001600160601b03169082015290565b6040805182511515815260208084015160ff1690820152918101516001600160601b031690820152606001610326565b34801561099d57600080fd5b506103706109ac36600461486e565b611e6a565b3480156109bd57600080fd5b5061040b6109cc36600461489a565b63f23a6e6160e01b95945050505050565b3480156109e957600080fd5b506103706109f8366004613db1565b611e8b565b348015610a0957600080fd5b5061070f7f000000000000000000000000000000000000000000000000000000000000000081565b6102ad610a3f366004613db1565b611f35565b6000610a586007546001600160a01b031690565b905090565b8060008080808080808080610a718a611937565b9750610a7c8b611032565b9650610a878b611a5f565b60008c815260046020526040812080546005820154600683015460078401546001600160a01b039093169e50949a509850929650919450610ac78d611370565b90506002816007811115610add57610add6143ed565b1493506007816007811115610af457610af46143ed565b14925050509193959799509193959799565b6000610b11826122e9565b92915050565b600080610bbb610bb37fb3b3f3b703cd84ce352197dcff232b1b5d3cfb2025ce47cf04742d0651f1af888c8c8c8c604051610b53929190614902565b60405180910390208b80519060200120604051602001610b98959493929190948552602085019390935260ff9190911660408401526060830152608082015260a00190565b6040516020818303038152906040528051906020012061230e565b86868661235c565b9050610c018a828b8b8b8080601f0160208091040260200160405190810160405280939291908181526020018383808284376000920191909152508d925061237a915050565b9a9950505050505050505050565b610c17610a44565b6001600160a01b0316336001600160a01b031614610c505760405162461bcd60e51b8152600401610c4790614912565b60405180910390fd5b30610c59610a44565b6001600160a01b031614610c965760008036604051610c79929190614902565b604051809103902090505b80610c8f60026124df565b03610c8457505b610c9f8161255e565b50565b606060008054610cb190614949565b80601f0160208091040260200160405190810160405280929190818152602001828054610cdd90614949565b8015610d2a5780601f10610cff57610100808354040283529160200191610d2a565b820191906000526020600020905b815481529060010190602001808311610d0d57829003601f168201915b5050505050905090565b600080610d4386868686611b9d565b90506004610d5082611370565b6007811115610d6157610d616143ed565b14610d7e5760405162461bcd60e51b8152600401610c4790614983565b6007546040805163793d064960e11b815290516000926001600160a01b03169163f27a0c929160048083019260209291908290030181865afa158015610dc8573d6000803e3d6000fd5b505050506040513d601f19601f82011682018060405250810190610dec91906149c4565b60075460405163b1c5f42760e01b81529192506001600160a01b03169063b1c5f42790610e26908a908a908a906000908b906004016149dd565b602060405180830381865afa158015610e43573d6000803e3d6000fd5b505050506040513d601f19601f82011682018060405250810190610e6791906149c4565b6000838152600860205260408082209290925560075491516308f2a0bb60e41b81526001600160a01b0390921691638f2a0bb091610eb2918b918b918b91908b908990600401614a2b565b600060405180830381600087803b158015610ecc57600080fd5b505af1158015610ee0573d6000803e3d6000fd5b505050507f9a2e42fd6722813d69113e7d0079d3d940171428df7373df9c7f7617cfda2892828242610f129190614a99565b604080519283526020830191909152015b60405180910390a15095945050505050565b6000610a586109f8600143614aac565b600080610f5486868686611b9d565b90506000610f6182611370565b90506004816007811115610f7757610f776143ed565b1480610f9457506005816007811115610f9257610f926143ed565b145b610fb05760405162461bcd60e51b8152600401610c4790614983565b600082815260016020818152604092839020600201805460ff191690921790915590518381527f712ae1383f79ac853f8d882153778e0260ef8f03b504e2866e0593e04d2b291f910160405180910390a161100e82888888886126aa565b61101b828888888861274c565b6110288288888888612759565b5095945050505050565b60008181526001602090815260408083208151928301909152546001600160401b0316908190525b6001600160401b031692915050565b606080606080600060046000878152602001908152602001600020905080600101816002018260030183600401838054806020026020016040519081016040528092919081815260200182805480156110eb57602002820191906000526020600020905b81546001600160a01b031681526001909101906020018083116110cd575b505050505093508280548060200260200160405190810160405280929190818152602001828054801561113d57602002820191906000526020600020905b815481526020019060010190808311611129575b5050505050925081805480602002602001604051908101604052809291908181526020016000905b8282101561121157838290600052602060002001805461118490614949565b80601f01602080910402602001604051908101604052809291908181526020018280546111b090614949565b80156111fd5780601f106111d2576101008083540402835291602001916111fd565b820191906000526020600020905b8154815290600101906020018083116111e057829003601f168201915b505050505081526020019060010190611165565b50505050915080805480602002602001604051908101604052809291908181526020016000905b828210156112e457838290600052602060002001805461125790614949565b80601f016020809104026020016040519081016040528092919081815260200182805461128390614949565b80156112d05780601f106112a5576101008083540402835291602001916112d0565b820191906000526020600020905b8154815290600101906020018083116112b357829003601f168201915b505050505081526020019060010190611238565b5050505090509450945094509450509193509193565b604080517f150214d74d59b7d1e90c73fc22ef3d991dd0a76b046543d4d80ab92d2a50328f602082015290810186905260ff85166060820152600090819061134890610bb390608001610b98565b905061136587828860405180602001604052806000815250612792565b979650505050505050565b6000610b11826127be565b600081815260046020526040902080546001600160a01b0316336001600160a01b031614806113c35750600081546113c1906001600160a01b03166109ac600143614aac565b105b61141f5760405162461bcd60e51b815260206004820152602760248201527f476f7665726e6f72427261766f3a2070726f706f7365722061626f76652074686044820152661c995cda1bdb1960ca1b6064820152608401610c47565b6116888160010180548060200260200160405190810160405280929190818152602001828054801561147a57602002820191906000526020600020905b81546001600160a01b0316815260019091019060200180831161145c575b5050505050826002018054806020026020016040519081016040528092919081815260200182805480156114cd57602002820191906000526020600020905b8154815260200190600101908083116114b9575b505050505061167e84600301805480602002602001604051908101604052809291908181526020016000905b828210156115a557838290600052602060002001805461151890614949565b80601f016020809104026020016040519081016040528092919081815260200182805461154490614949565b80156115915780601f1061156657610100808354040283529160200191611591565b820191906000526020600020905b81548152906001019060200180831161157457829003601f168201915b5050505050815260200190600101906114f9565b50505060048701805460408051602080840282018101909252828152935060009084015b828210156116755783829060005260206000200180546115e890614949565b80601f016020809104026020016040519081016040528092919081815260200182805461161490614949565b80156116615780601f1061163657610100808354040283529160200191611661565b820191906000526020600020905b81548152906001019060200180831161164457829003601f168201915b5050505050815260200190600101906115c9565b50505050612908565b8460090154612a3a565b505050565b6000803390506116ae84828560405180602001604052806000815250612792565b949350505050565b60008033905061136587828888888080601f0160208091040260200160405190810160405280939291908181526020018383808284376000920191909152508a925061237a915050565b600654600090808203611717575050600554919050565b60006006611726600184614aac565b8154811061173657611736614abf565b60009182526020918290206040805180820190915291015463ffffffff8116808352600160201b9091046001600160e01b0316928201929092529150841061178c57602001516001600160e01b03169392505050565b6116ae600685612a48565b6000803390506117df86828787878080601f01602080910402602001604051908101604052809392919081815260200183838082843760009201919091525061279292505050565b9695505050505050565b600c546000906001600160a01b031633146118615760405162461bcd60e51b815260206004820152603260248201527f4f6e6c79207468652070726f706f73657220636f6e74726163742063616e20656044820152711e1958dd5d19481d1a1a5cc81b595d1a1bd960721b6064820152608401610c47565b60006117df86868686612afa565b600061187c848484612b62565b90505b9392505050565b600654600090156118a95761189b6006612246565b6001600160e01b0316905090565b5060055490565b6118b8610a44565b6001600160a01b0316336001600160a01b0316146118e85760405162461bcd60e51b8152600401610c4790614912565b306118f1610a44565b6001600160a01b03161461192e5760008036604051611911929190614902565b604051809103902090505b8061192760026124df565b0361191c57505b610c9f81612bf8565b60075460008281526008602052604080822054905163d45c443560e01b81526004810191909152909182916001600160a01b039091169063d45c443590602401602060405180830381865afa158015611994573d6000803e3d6000fd5b505050506040513d601f19601f820116820180604052508101906119b891906149c4565b9050806001146119c8578061187f565b60009392505050565b600b80546119de90614949565b80601f0160208091040260200160405190810160405280929190818152602001828054611a0a90614949565b8015611a575780601f10611a2c57610100808354040283529160200191611a57565b820191906000526020600020905b815481529060010190602001808311611a3a57829003601f168201915b505050505081565b60008181526001602081815260408084208151928301909152909101546001600160401b03169081905261105a565b611a96610a44565b6001600160a01b0316336001600160a01b031614611ac65760405162461bcd60e51b8152600401610c4790614912565b30611acf610a44565b6001600160a01b031614611b0c5760008036604051611aef929190614902565b604051809103902090505b80611b0560026124df565b03611afa57505b600080856001600160a01b0316858585604051611b2a929190614902565b60006040518083038185875af1925050503d8060008114611b67576040519150601f19603f3d011682016040523d82523d6000602084013e611b6c565b606091505b5091509150611b948282604051806060016040528060288152602001614e4460289139612c61565b50505050505050565b600084848484604051602001611bb69493929190614ad5565b60408051601f19818403018152919052805160209091012095945050505050565b6000611be7338787878787612c7a565b6117df8686611bf68787612908565b856117e9565b600081815260046020908152604091829020600181018054845181850281018501909552808552919361168893909290830182828015611c6557602002820191906000526020600020905b81546001600160a01b03168152600190910190602001808311611c47575b505050505082600201805480602002602001604051908101604052809291908181526020018280548015611cb857602002820191906000526020600020905b815481526020019060010190808311611ca4575b5050505050611e6084600301805480602002602001604051908101604052809291908181526020016000905b82821015611d90578382906000526020600020018054611d0390614949565b80601f0160208091040260200160405190810160405280929190818152602001828054611d2f90614949565b8015611d7c5780601f10611d5157610100808354040283529160200191611d7c565b820191906000526020600020905b815481529060010190602001808311611d5f57829003601f168201915b505050505081526020019060010190611ce4565b50505060048701805460408051602080840282018101909252828152935060009084015b82821015611675578382906000526020600020018054611dd390614949565b80601f0160208091040260200160405190810160405280929190818152602001828054611dff90614949565b8015611e4c5780601f10611e2157610100808354040283529160200191611e4c565b820191906000526020600020905b815481529060010190602001808311611e2f57829003601f168201915b505050505081526020019060010190611db4565b8460090154610d34565b600061187f8383611e8660408051602081019091526000815290565b612b62565b60006064611e9883611700565b604051632394e7a360e21b8152600481018590527f00000000000000000000000000000000000000000000000000000000000000006001600160a01b031690638e539e8c90602401602060405180830381865afa158015611efd573d6000803e3d6000fd5b505050506040513d601f19601f82011682018060405250810190611f2191906149c4565b611f2b9190614b20565b610b119190614b37565b600081815260046020908152604091829020600181018054845181850281018501909552808552919361168893909290830182828015611f9e57602002820191906000526020600020905b81546001600160a01b03168152600190910190602001808311611f80575b505050505082600201805480602002602001604051908101604052809291908181526020018280548015611ff157602002820191906000526020600020905b815481526020019060010190808311611fdd575b505050505061219984600301805480602002602001604051908101604052809291908181526020016000905b828210156120c957838290600052602060002001805461203c90614949565b80601f016020809104026020016040519081016040528092919081815260200182805461206890614949565b80156120b55780601f1061208a576101008083540402835291602001916120b5565b820191906000526020600020905b81548152906001019060200180831161209857829003601f168201915b50505050508152602001906001019061201d565b50505060048701805460408051602080840282018101909252828152935060009084015b8282101561167557838290600052602060002001805461210c90614949565b80601f016020809104026020016040519081016040528092919081815260200182805461213890614949565b80156121855780601f1061215a57610100808354040283529160200191612185565b820191906000526020600020905b81548152906001019060200180831161216857829003601f168201915b5050505050815260200190600101906120ed565b8460090154610f45565b60006001600160e01b0382111561220c5760405162461bcd60e51b815260206004820152602760248201527f53616665436173743a2076616c756520646f65736e27742066697420696e20326044820152663234206269747360c81b6064820152608401610c47565b5090565b60008061222e8461222043612284565b612229866121a3565b612d37565b6001600160e01b0391821693501690505b9250929050565b805460009080156119c85761226e83612260600184614aac565b600091825260209091200190565b54600160201b90046001600160e01b031661187f565b600063ffffffff82111561220c5760405162461bcd60e51b815260206004820152602660248201527f53616665436173743a2076616c756520646f65736e27742066697420696e203360448201526532206269747360d01b6064820152608401610c47565b60006001600160e01b03198216636e665ced60e01b1480610b115750610b1182612eda565b6000610b1161231b612f45565b8360405161190160f01b6020820152602281018390526042810182905260009060620160405160208183030381529060405280519060200120905092915050565b600080600061236d8787878761306c565b9150915061102881613130565b600085815260016020819052604082209061239488611370565b60078111156123a5576123a56143ed565b146123fe5760405162461bcd60e51b815260206004820152602360248201527f476f7665726e6f723a20766f7465206e6f742063757272656e746c792061637460448201526269766560e81b6064820152608401610c47565b604080516020810190915281546001600160401b03169081905260009061242790889086612b62565b9050612436888888848861327a565b835160000361248b57866001600160a01b03167fb8e138887d0aa13bab447e82de9d5c1777041ecd21ca36ba824ff1e6c07ddda48988848960405161247e9493929190614b59565b60405180910390a2611365565b866001600160a01b03167fe2babfbac5889a709b63bb7f598b324e08bc5a4fb9ec647fb3cbc9ec07eb871289888489896040516124cc959493929190614b81565b60405180910390a2979650505050505050565b60006124fa8254600f81810b600160801b909204900b131590565b1561251857604051631ed9509560e11b815260040160405180910390fd5b508054600f0b6000818152600180840160205260408220805492905583546fffffffffffffffffffffffffffffffff191692016001600160801b03169190911790915590565b60648111156125e15760405162461bcd60e51b815260206004820152604360248201527f476f7665726e6f72566f74657351756f72756d4672616374696f6e3a2071756f60448201527f72756d4e756d657261746f72206f7665722071756f72756d44656e6f6d696e616064820152623a37b960e91b608482015260a401610c47565b60006125eb611886565b905080158015906125fc5750600654155b156126605760408051808201909152600081526006906020810161261f846121a3565b6001600160e01b039081169091528254600181018455600093845260209384902083519490930151909116600160201b0263ffffffff909316929092179101555b61266b600683612210565b505060408051828152602081018490527f0553476bf02ef2726e8ce5ced78d63e26e602e4a2257b1f559418e24b4633997910160405180910390a15050565b306126b3610a44565b6001600160a01b0316146127455760005b845181101561274357306001600160a01b03168582815181106126e9576126e9614abf565b60200260200101516001600160a01b0316036127335761273383828151811061271457612714614abf565b602002602001015180519060200120600261341790919063ffffffff16565b61273c81614bc7565b90506126c4565b505b5050505050565b6127458585858585613453565b30612762610a44565b6001600160a01b03161461274557600254600f81810b600160801b909204900b1315612745576000600255612745565b60006127b5858585856127b060408051602081019091526000815290565b61237a565b95945050505050565b6000806127ca836134c7565b905060048160078111156127e0576127e06143ed565b146127eb5792915050565b60008381526008602052604090205480612806575092915050565b600754604051632ab0f52960e01b8152600481018390526001600160a01b0390911690632ab0f52990602401602060405180830381865afa15801561284f573d6000803e3d6000fd5b505050506040513d601f19601f820116820180604052508101906128739190614be0565b15612882575060079392505050565b600754604051632c258a9f60e11b8152600481018390526001600160a01b039091169063584b153e90602401602060405180830381865afa1580156128cb573d6000803e3d6000fd5b505050506040513d601f19601f820116820180604052508101906128ef9190614be0565b156128fe575060059392505050565b5060029392505050565b6060600082516001600160401b0381111561292557612925613e4b565b60405190808252806020026020018201604052801561295857816020015b60608152602001906001900390816129435790505b50905060005b8451811015612a325784818151811061297957612979614abf565b6020026020010151516000146129e95784818151811061299b5761299b614abf565b6020026020010151805190602001208482815181106129bc576129bc614abf565b60200260200101516040516020016129d5929190614c02565b604051602081830303815290604052612a04565b8381815181106129fb576129fb614abf565b60200260200101515b828281518110612a1657612a16614abf565b602002602001018190525080612a2b90614bc7565b905061295e565b509392505050565b60006127b5858585856135d9565b6000438210612a995760405162461bcd60e51b815260206004820181905260248201527f436865636b706f696e74733a20626c6f636b206e6f7420796574206d696e65646044820152606401610c47565b6000612aa483612284565b84549091506000612ab78684838561368b565b90508015612ae457612ace86612260600184614aac565b54600160201b90046001600160e01b0316612ae7565b60005b6001600160e01b03169695505050505050565b6000612b5633868686516001600160401b03811115612b1b57612b1b613e4b565b604051908082528060200260200182016040528015612b4e57816020015b6060815260200190600190039081612b395790505b508787612c7a565b6127b5858585856136e1565b604051630748d63560e31b81526001600160a01b038481166004830152602482018490526000917f000000000000000000000000000000000000000000000000000000000000000090911690633a46b1a890604401602060405180830381865afa158015612bd4573d6000803e3d6000fd5b505050506040513d601f19601f8201168201806040525081019061187c91906149c4565b600754604080516001600160a01b03928316815291831660208301527f08f74ea46ef7894f65eabfb5e6e695de773a000b47c529ab559178069b226401910160405180910390a1600780546001600160a01b0319166001600160a01b0392909216919091179055565b60608315612c7057508161187f565b61187f838361399f565b805160208201206000612c988787612c928888612908565b85611b9d565b6000818152600460205260409020600981015491925090612d2c5780546001600160a01b0319166001600160a01b038a161781558751612ce190600183019060208b0190613be8565b508651612cf790600283019060208a0190613c49565b508551612d0d9060038301906020890190613c84565b508451612d239060048301906020880190613cd6565b50600981018390555b505050505050505050565b825460009081908015612e7d576000612d5587612260600185614aac565b60408051808201909152905463ffffffff808216808452600160201b9092046001600160e01b031660208401529192509087161015612dd65760405162461bcd60e51b815260206004820152601760248201527f436865636b706f696e743a20696e76616c6964206b65790000000000000000006044820152606401610c47565b805163ffffffff808816911603612e1e5784612df788612260600186614aac565b80546001600160e01b0392909216600160201b0263ffffffff909216919091179055612e6d565b6040805180820190915263ffffffff80881682526001600160e01b0380881660208085019182528b54600181018d5560008d81529190912094519151909216600160201b029216919091179101555b602001519250839150612ed29050565b50506040805180820190915263ffffffff80851682526001600160e01b0380851660208085019182528854600181018a5560008a815291822095519251909316600160201b0291909316179201919091559050815b935093915050565b60006001600160e01b0319821663bf26d89760e01b1480612f0b57506001600160e01b031982166379dd796f60e01b145b80612f2657506001600160e01b03198216630271189760e51b145b80610b1157506301ffc9a760e01b6001600160e01b0319831614610b11565b6000306001600160a01b037f000000000000000000000000000000000000000000000000000000000000000016148015612f9e57507f000000000000000000000000000000000000000000000000000000000000000046145b15612fc857507f000000000000000000000000000000000000000000000000000000000000000090565b50604080517f00000000000000000000000000000000000000000000000000000000000000006020808301919091527f0000000000000000000000000000000000000000000000000000000000000000828401527f000000000000000000000000000000000000000000000000000000000000000060608301524660808301523060a0808401919091528351808403909101815260c0909201909252805191012090565b6000807f7fffffffffffffffffffffffffffffff5d576e7357a4501ddfe92f46681b20a08311156130a35750600090506003613127565b6040805160008082526020820180845289905260ff881692820192909252606081018690526080810185905260019060a0016020604051602081039080840390855afa1580156130f7573d6000803e3d6000fd5b5050604051601f1901519150506001600160a01b03811661312057600060019250925050613127565b9150600090505b94509492505050565b6000816004811115613144576131446143ed565b0361314c5750565b6001816004811115613160576131606143ed565b036131ad5760405162461bcd60e51b815260206004820152601860248201527f45434453413a20696e76616c6964207369676e617475726500000000000000006044820152606401610c47565b60028160048111156131c1576131c16143ed565b0361320e5760405162461bcd60e51b815260206004820152601f60248201527f45434453413a20696e76616c6964207369676e6174757265206c656e677468006044820152606401610c47565b6003816004811115613222576132226143ed565b03610c9f5760405162461bcd60e51b815260206004820152602260248201527f45434453413a20696e76616c6964207369676e6174757265202773272076616c604482015261756560f01b6064820152608401610c47565b60008581526004602090815260408083206001600160a01b038816845260088101909252909120805460ff16156133095760405162461bcd60e51b815260206004820152602d60248201527f476f7665726e6f72436f6d7061746962696c697479427261766f3a20766f746560448201526c08185b1c9958591e4818d85cdd609a1b6064820152608401610c47565b805460ff86166101000261ffff19909116176001178155613329846139c9565b81546001600160601b039190911662010000026dffffffffffffffffffffffff00001990911617815560ff8516613379578382600601600082825461336e9190614a99565b90915550611b949050565b60001960ff861601613399578382600501600082825461336e9190614a99565b60011960ff8616016133b9578382600701600082825461336e9190614a99565b60405162461bcd60e51b815260206004820152602d60248201527f476f7665726e6f72436f6d7061746962696c697479427261766f3a20696e766160448201526c6c696420766f7465207479706560981b6064820152608401610c47565b8154600160801b90819004600f0b6000818152600180860160205260409091209390935583546001600160801b03908116939091011602179055565b60075460405163e38335e560e01b81526001600160a01b039091169063e38335e590349061348e9088908890889060009089906004016149dd565b6000604051808303818588803b1580156134a757600080fd5b505af11580156134bb573d6000803e3d6000fd5b50505050505050505050565b6000818152600160205260408120600281015460ff16156134eb5750600792915050565b6002810154610100900460ff16156135065750600292915050565b600061351184611032565b9050806000036135635760405162461bcd60e51b815260206004820152601d60248201527f476f7665726e6f723a20756e6b6e6f776e2070726f706f73616c2069640000006044820152606401610c47565b438110613574575060009392505050565b600061357f85611a5f565b905043811061359357506001949350505050565b61359c85613a31565b80156135be575060008581526004602052604090206006810154600590910154115b156135ce57506004949350505050565b506003949350505050565b6000806135e886868686613a59565b600081815260086020526040902054909150156127b5576007546000828152600860205260409081902054905163c4d252f560e01b81526001600160a01b039092169163c4d252f5916136419160040190815260200190565b600060405180830381600087803b15801561365b57600080fd5b505af115801561366f573d6000803e3d6000fd5b5050506000828152600860205260408120555095945050505050565b60005b81831015612a325760006136a28484613b65565b60008781526020902090915063ffffffff86169082015463ffffffff1611156136cd578092506136db565b6136d8816001614a99565b93505b5061368e565b6000806136f3336109ac600143614aac565b101561375b5760405162461bcd60e51b815260206004820152603160248201527f476f7665726e6f723a2070726f706f73657220766f7465732062656c6f7720706044820152701c9bdc1bdcd85b081d1a1c995cda1bdb19607a1b6064820152608401610c47565b60006137708686868680519060200120611b9d565b905084518651146137935760405162461bcd60e51b8152600401610c4790614c33565b83518651146137b45760405162461bcd60e51b8152600401610c4790614c33565b60008651116138055760405162461bcd60e51b815260206004820152601860248201527f476f7665726e6f723a20656d7074792070726f706f73616c00000000000000006044820152606401610c47565b600081815260016020908152604091829020825191820190925281546001600160401b031690819052156138855760405162461bcd60e51b815260206004820152602160248201527f476f7665726e6f723a2070726f706f73616c20616c72656164792065786973746044820152607360f81b6064820152608401610c47565b600061389861389360095490565b613b80565b6138a143613b80565b6138ab9190614c74565b905060006138bb613893600a5490565b6138c59083614c74565b835467ffffffffffffffff19166001600160401b038416178455905060018301805467ffffffffffffffff19166001600160401b0383161790557f7d84a6263ae0d98d3329bd7b46bb4e8d6f98cd35a7adb45c274c8b7fd5ebd5e084338b8b8d516001600160401b0381111561393d5761393d613e4b565b60405190808252806020026020018201604052801561397057816020015b606081526020019060019003908161395b5790505b508c88888e60405161398a99989796959493929190614c9b565b60405180910390a15091979650505050505050565b8151156139af5781518083602001fd5b8060405162461bcd60e51b8152600401610c479190613ff6565b60006001600160601b0382111561220c5760405162461bcd60e51b815260206004820152602660248201527f53616665436173743a2076616c756520646f65736e27742066697420696e203960448201526536206269747360d01b6064820152608401610c47565b60008181526004602052604081206005810154613a506109f885611032565b11159392505050565b600080613a6886868686611b9d565b90506000613a7582611370565b90506002816007811115613a8b57613a8b6143ed565b14158015613aab57506006816007811115613aa857613aa86143ed565b14155b8015613ac957506007816007811115613ac657613ac66143ed565b14155b613b155760405162461bcd60e51b815260206004820152601d60248201527f476f7665726e6f723a2070726f706f73616c206e6f74206163746976650000006044820152606401610c47565b60008281526001602052604090819020600201805461ff001916610100179055517f789cf55be980739dad1d0699b93b58e806b51c9d96619bfa8fe0a28abaa7b30c90610f239084815260200190565b6000613b746002848418614b37565b61187f90848416614a99565b60006001600160401b0382111561220c5760405162461bcd60e51b815260206004820152602660248201527f53616665436173743a2076616c756520646f65736e27742066697420696e203660448201526534206269747360d01b6064820152608401610c47565b828054828255906000526020600020908101928215613c3d579160200282015b82811115613c3d57825182546001600160a01b0319166001600160a01b03909116178255602090920191600190910190613c08565b5061220c929150613d28565b828054828255906000526020600020908101928215613c3d579160200282015b82811115613c3d578251825591602001919060010190613c69565b828054828255906000526020600020908101928215613cca579160200282015b82811115613cca5782518290613cba9082614d84565b5091602001919060010190613ca4565b5061220c929150613d3d565b828054828255906000526020600020908101928215613d1c579160200282015b82811115613d1c5782518290613d0c9082614d84565b5091602001919060010190613cf6565b5061220c929150613d5a565b5b8082111561220c5760008155600101613d29565b8082111561220c576000613d518282613d77565b50600101613d3d565b8082111561220c576000613d6e8282613d77565b50600101613d5a565b508054613d8390614949565b6000825580601f10613d93575050565b601f016020900490600052602060002090810190610c9f9190613d28565b600060208284031215613dc357600080fd5b5035919050565b600060208284031215613ddc57600080fd5b81356001600160e01b03198116811461187f57600080fd5b803560ff81168114613e0557600080fd5b919050565b60008083601f840112613e1c57600080fd5b5081356001600160401b03811115613e3357600080fd5b60208301915083602082850101111561223f57600080fd5b634e487b7160e01b600052604160045260246000fd5b604051601f8201601f191681016001600160401b0381118282101715613e8957613e89613e4b565b604052919050565b600082601f830112613ea257600080fd5b81356001600160401b03811115613ebb57613ebb613e4b565b613ece601f8201601f1916602001613e61565b818152846020838601011115613ee357600080fd5b816020850160208301376000918101602001919091529392505050565b60008060008060008060008060e0898b031215613f1c57600080fd5b88359750613f2c60208a01613df4565b965060408901356001600160401b0380821115613f4857600080fd5b613f548c838d01613e0a565b909850965060608b0135915080821115613f6d57600080fd5b50613f7a8b828c01613e91565b945050613f8960808a01613df4565b925060a0890135915060c089013590509295985092959890939650565b60005b83811015613fc1578181015183820152602001613fa9565b50506000910152565b60008151808452613fe2816020860160208601613fa6565b601f01601f19169290920160200192915050565b60208152600061187f6020830184613fca565b6001600160a01b0381168114610c9f57600080fd5b6000806000806080858703121561403457600080fd5b843561403f81614009565b9350602085013561404f81614009565b92506040850135915060608501356001600160401b0381111561407157600080fd5b61407d87828801613e91565b91505092959194509250565b60006001600160401b038211156140a2576140a2613e4b565b5060051b60200190565b600082601f8301126140bd57600080fd5b813560206140d26140cd83614089565b613e61565b82815260059290921b840181019181810190868411156140f157600080fd5b8286015b8481101561411557803561410881614009565b83529183019183016140f5565b509695505050505050565b600082601f83011261413157600080fd5b813560206141416140cd83614089565b82815260059290921b8401810191818101908684111561416057600080fd5b8286015b848110156141155780358352918301918301614164565b600082601f83011261418c57600080fd5b8135602061419c6140cd83614089565b82815260059290921b840181019181810190868411156141bb57600080fd5b8286015b848110156141155780356001600160401b038111156141de5760008081fd5b6141ec8986838b0101613e91565b8452509183019183016141bf565b6000806000806080858703121561421057600080fd5b84356001600160401b038082111561422757600080fd5b614233888389016140ac565b9550602087013591508082111561424957600080fd5b61425588838901614120565b9450604087013591508082111561426b57600080fd5b506142788782880161417b565b949793965093946060013593505050565b600081518084526020808501945080840160005b838110156142c25781516001600160a01b03168752958201959082019060010161429d565b509495945050505050565b600081518084526020808501945080840160005b838110156142c2578151875295820195908201906001016142e1565b600081518084526020808501808196508360051b8101915082860160005b85811015614345578284038952614333848351613fca565b9885019893509084019060010161431b565b5091979650505050505050565b6080815260006143656080830187614289565b828103602084015261437781876142cd565b9050828103604084015261438b81866142fd565b9050828103606084015261136581856142fd565b600080600080600060a086880312156143b757600080fd5b853594506143c760208701613df4565b93506143d560408701613df4565b94979396509394606081013594506080013592915050565b634e487b7160e01b600052602160045260246000fd5b602081016008831061442557634e487b7160e01b600052602160045260246000fd5b91905290565b6000806040838503121561443e57600080fd5b82359150602083013561445081614009565b809150509250929050565b6000806040838503121561446e57600080fd5b8235915061447e60208401613df4565b90509250929050565b60008060008060006080868803121561449f57600080fd5b853594506144af60208701613df4565b935060408601356001600160401b03808211156144cb57600080fd5b6144d789838a01613e0a565b909550935060608801359150808211156144f057600080fd5b506144fd88828901613e91565b9150509295509295909350565b6000806000806060858703121561452057600080fd5b8435935061453060208601613df4565b925060408501356001600160401b0381111561454b57600080fd5b61455787828801613e0a565b95989497509550505050565b6000806000806080858703121561457957600080fd5b84356001600160401b038082111561459057600080fd5b61459c888389016140ac565b955060208701359150808211156145b257600080fd5b6145be88838901614120565b945060408701359150808211156145d457600080fd5b6145e08883890161417b565b935060608701359150808211156145f657600080fd5b5061407d87828801613e91565b60008060006060848603121561461857600080fd5b833561462381614009565b92506020840135915060408401356001600160401b0381111561464557600080fd5b61465186828701613e91565b9150509250925092565b60006020828403121561466d57600080fd5b813561187f81614009565b600080600080600060a0868803121561469057600080fd5b853561469b81614009565b945060208601356146ab81614009565b935060408601356001600160401b03808211156146c757600080fd5b6146d389838a01614120565b945060608801359150808211156146e957600080fd5b6146f589838a01614120565b935060808801359150808211156144f057600080fd5b6000806000806060858703121561472157600080fd5b843561472c81614009565b93506020850135925060408501356001600160401b0381111561454b57600080fd5b600082601f83011261475f57600080fd5b8135602061476f6140cd83614089565b82815260059290921b8401810191818101908684111561478e57600080fd5b8286015b848110156141155780356001600160401b038111156147b15760008081fd5b6147bf8986838b0101613e91565b845250918301918301614792565b600080600080600060a086880312156147e557600080fd5b85356001600160401b03808211156147fc57600080fd5b61480889838a016140ac565b9650602088013591508082111561481e57600080fd5b61482a89838a01614120565b9550604088013591508082111561484057600080fd5b61484c89838a0161474e565b9450606088013591508082111561486257600080fd5b6146f589838a0161417b565b6000806040838503121561488157600080fd5b823561488c81614009565b946020939093013593505050565b600080600080600060a086880312156148b257600080fd5b85356148bd81614009565b945060208601356148cd81614009565b9350604086013592506060860135915060808601356001600160401b038111156148f657600080fd5b6144fd88828901613e91565b8183823760009101908152919050565b60208082526018908201527f476f7665726e6f723a206f6e6c79476f7665726e616e63650000000000000000604082015260600190565b600181811c9082168061495d57607f821691505b60208210810361497d57634e487b7160e01b600052602260045260246000fd5b50919050565b60208082526021908201527f476f7665726e6f723a2070726f706f73616c206e6f74207375636365737366756040820152601b60fa1b606082015260800190565b6000602082840312156149d657600080fd5b5051919050565b60a0815260006149f060a0830188614289565b8281036020840152614a0281886142cd565b90508281036040840152614a1681876142fd565b60608401959095525050608001529392505050565b60c081526000614a3e60c0830189614289565b8281036020840152614a5081896142cd565b90508281036040840152614a6481886142fd565b60608401969096525050608081019290925260a0909101529392505050565b634e487b7160e01b600052601160045260246000fd5b80820180821115610b1157610b11614a83565b81810381811115610b1157610b11614a83565b634e487b7160e01b600052603260045260246000fd5b608081526000614ae86080830187614289565b8281036020840152614afa81876142cd565b90508281036040840152614b0e81866142fd565b91505082606083015295945050505050565b8082028115828204841417610b1157610b11614a83565b600082614b5457634e487b7160e01b600052601260045260246000fd5b500490565b84815260ff841660208201528260408201526080606082015260006117df6080830184613fca565b85815260ff8516602082015283604082015260a060608201526000614ba960a0830185613fca565b8281036080840152614bbb8185613fca565b98975050505050505050565b600060018201614bd957614bd9614a83565b5060010190565b600060208284031215614bf257600080fd5b8151801515811461187f57600080fd5b6001600160e01b0319831681528151600090614c25816004850160208701613fa6565b919091016004019392505050565b60208082526021908201527f476f7665726e6f723a20696e76616c69642070726f706f73616c206c656e67746040820152600d60fb1b606082015260800190565b6001600160401b03818116838216019080821115614c9457614c94614a83565b5092915050565b8981526001600160a01b038916602082015261012060408201819052600090614cc68382018b614289565b90508281036060840152614cda818a6142cd565b90508281036080840152614cee81896142fd565b905082810360a0840152614d0281886142fd565b6001600160401b0387811660c0860152861660e08501528381036101008501529050614d2e8185613fca565b9c9b505050505050505050505050565b601f82111561168857600081815260208120601f850160051c81016020861015614d655750805b601f850160051c820191505b8181101561274357828155600101614d71565b81516001600160401b03811115614d9d57614d9d613e4b565b614db181614dab8454614949565b84614d3e565b602080601f831160018114614de65760008415614dce5750858301515b600019600386901b1c1916600185901b178555612743565b600085815260208120601f198616915b82811015614e1557888601518255948401946001909101908401614df6565b5085821015614e335787850151600019600388901b60f8161c191681555b5050505050600190811b0190555056fe476f7665726e6f723a2072656c617920726576657274656420776974686f7574206d657373616765a26469706673582212201da03c918f23b8c40bf2d34ec7ed15b0b884170dac6a185266b47df23fc32b9064736f6c63430008110033",
  "linkReferences": {},
  "deployedLinkReferences": {}
}